{
  "_format": "hh-sol-artifact-1",
  "contractName": "ProcurementGate",
  "sourceName": "contracts/ProcurementGate.sol",
  "abi": [
    {
      "inputs": [
        {
          "internalType": "address",
          "name": "_identityRegistry",
          "type": "address"
        },
        {
          "internalType": "address",
          "name": "_componentRegistry",
          "type": "address"
        },
        {
          "internalType": "address",
          "name": "_auditLog",
          "type": "address"
        },
        {
          "internalType": "address",
          "name": "_circuitBreaker",
          "type": "address"
        }
      ],
      "stateMutability": "nonpayable",
      "type": "constructor"
    },
    {
      "anonymous": false,
      "inputs": [
        {
          "indexed": true,
          "internalType": "address",
          "name": "officer",
          "type": "address"
        },
        {
          "indexed": true,
          "internalType": "bytes32",
          "name": "componentId",
          "type": "bytes32"
        },
        {
          "indexed": false,
          "internalType": "string",
          "name": "reason",
          "type": "string"
        },
        {
          "indexed": false,
          "internalType": "uint256",
          "name": "timestamp",
          "type": "uint256"
        },
        {
          "indexed": false,
          "internalType": "bytes32",
          "name": "rootHash",
          "type": "bytes32"
        }
      ],
      "name": "ApprovalDenied",
      "type": "event"
    },
    {
      "anonymous": false,
      "inputs": [
        {
          "indexed": true,
          "internalType": "address",
          "name": "officer",
          "type": "address"
        },
        {
          "indexed": true,
          "internalType": "bytes32",
          "name": "componentId",
          "type": "bytes32"
        },
        {
          "indexed": false,
          "internalType": "string",
          "name": "deviceToken",
          "type": "string"
        },
        {
          "indexed": false,
          "internalType": "uint256",
          "name": "timestamp",
          "type": "uint256"
        },
        {
          "indexed": false,
          "internalType": "bytes32",
          "name": "rootHash",
          "type": "bytes32"
        }
      ],
      "name": "ApprovalGranted",
      "type": "event"
    },
    {
      "anonymous": false,
      "inputs": [
        {
          "indexed": false,
          "internalType": "string",
          "name": "token",
          "type": "string"
        },
        {
          "indexed": false,
          "internalType": "uint256",
          "name": "timestamp",
          "type": "uint256"
        }
      ],
      "name": "DeviceTokenFlagged",
      "type": "event"
    },
    {
      "anonymous": false,
      "inputs": [
        {
          "indexed": true,
          "internalType": "bytes32",
          "name": "componentId",
          "type": "bytes32"
        },
        {
          "indexed": true,
          "internalType": "address",
          "name": "officer",
          "type": "address"
        },
        {
          "indexed": false,
          "internalType": "uint256",
          "name": "timestamp",
          "type": "uint256"
        }
      ],
      "name": "SecondSignatureSubmitted",
      "type": "event"
    },
    {
      "inputs": [],
      "name": "HIGH_VALUE_THRESHOLD",
      "outputs": [
        {
          "internalType": "uint256",
          "name": "",
          "type": "uint256"
        }
      ],
      "stateMutability": "view",
      "type": "function"
    },
    {
      "inputs": [],
      "name": "RATE_LIMIT_COUNT",
      "outputs": [
        {
          "internalType": "uint256",
          "name": "",
          "type": "uint256"
        }
      ],
      "stateMutability": "view",
      "type": "function"
    },
    {
      "inputs": [],
      "name": "RATE_LIMIT_WINDOW",
      "outputs": [
        {
          "internalType": "uint256",
          "name": "",
          "type": "uint256"
        }
      ],
      "stateMutability": "view",
      "type": "function"
    },
    {
      "inputs": [
        {
          "internalType": "address",
          "name": "officer",
          "type": "address"
        },
        {
          "internalType": "bytes32",
          "name": "componentId",
          "type": "bytes32"
        },
        {
          "internalType": "string",
          "name": "deviceToken",
          "type": "string"
        },
        {
          "internalType": "bytes32",
          "name": "locationHash",
          "type": "bytes32"
        }
      ],
      "name": "approveProcurement",
      "outputs": [
        {
          "internalType": "bool",
          "name": "",
          "type": "bool"
        }
      ],
      "stateMutability": "nonpayable",
      "type": "function"
    },
    {
      "inputs": [],
      "name": "auditLog",
      "outputs": [
        {
          "internalType": "contract IAuditLog",
          "name": "",
          "type": "address"
        }
      ],
      "stateMutability": "view",
      "type": "function"
    },
    {
      "inputs": [],
      "name": "circuitBreaker",
      "outputs": [
        {
          "internalType": "contract ICircuitBreaker",
          "name": "",
          "type": "address"
        }
      ],
      "stateMutability": "view",
      "type": "function"
    },
    {
      "inputs": [],
      "name": "componentRegistry",
      "outputs": [
        {
          "internalType": "contract IComponentRegistry",
          "name": "",
          "type": "address"
        }
      ],
      "stateMutability": "view",
      "type": "function"
    },
    {
      "inputs": [
        {
          "internalType": "string",
          "name": "",
          "type": "string"
        }
      ],
      "name": "compromisedDeviceTokens",
      "outputs": [
        {
          "internalType": "bool",
          "name": "",
          "type": "bool"
        }
      ],
      "stateMutability": "view",
      "type": "function"
    },
    {
      "inputs": [
        {
          "internalType": "string",
          "name": "token",
          "type": "string"
        }
      ],
      "name": "flagDeviceToken",
      "outputs": [],
      "stateMutability": "nonpayable",
      "type": "function"
    },
    {
      "inputs": [],
      "name": "identityRegistry",
      "outputs": [
        {
          "internalType": "contract IIdentityRegistry",
          "name": "",
          "type": "address"
        }
      ],
      "stateMutability": "view",
      "type": "function"
    },
    {
      "inputs": [
        {
          "internalType": "string",
          "name": "token",
          "type": "string"
        }
      ],
      "name": "isDeviceTokenCompromised",
      "outputs": [
        {
          "internalType": "bool",
          "name": "",
          "type": "bool"
        }
      ],
      "stateMutability": "view",
      "type": "function"
    },
    {
      "inputs": [
        {
          "internalType": "bytes32",
          "name": "componentId",
          "type": "bytes32"
        }
      ],
      "name": "submitSecondSignature",
      "outputs": [],
      "stateMutability": "nonpayable",
      "type": "function"
    }
  ],
  "bytecode": "0x608034620000c657601f620014f938819003918201601f19168301916001600160401b03831184841017620000cb57808492608094604052833981010312620000c6576200004d81620000e1565b906200005c60208201620000e1565b6200007860606200007060408501620000e1565b9301620000e1565b9060018060a01b03928380928160018060a01b031997168760005416176000551685600154161760015516836002541617600255169060035416176003556040516114029081620000f78239f35b600080fd5b634e487b7160e01b600052604160045260246000fd5b51906001600160a01b0382168203620000c65756fe608060408181526004918236101561001657600080fd5b600092833560e01c918263134e18f41461049d5750816316efd941146104745781631d0da64e146103e35781634cb303201461034857816359c49248146102f35781635a2d6ebd146102ca5781636903604e146101985781637130dfc91461017c5781638b1c767c1461011257508063ca7b64bb146100ef578063f85e3394146100d45763ff0039cb146100a957600080fd5b346100d057816003193601126100d05760015490516001600160a01b039091168152602090f35b5080fd5b50346100d057816003193601126100d05760209051600a8152f35b50346100d057816003193601126100d0576020905168056bc75e2d631000008152f35b905034610178576080366003190112610178578035926001600160a01b038416840361017557604435906001600160401b03821161017557509261015e61016c926020953691016104c1565b9060643592602435906106c0565b90519015158152f35b80fd5b8280fd5b5050346100d057816003193601126100d05760209051603c8152f35b90503461017857602091826003193601126102c65783548151639f8a13d760e01b81523381850152833593918590829060249082906001600160a01b03165afa9081156102bc578691610283575b501561023757507f9129dfdcc806e6ee697728224842f3911d7f611f73e1b1731874673906a0259f90828552600684528085203386528452808520600160ff1982541617905551924284523393a380f35b83608492519162461bcd60e51b8352820152602260248201527f50726f637572656d656e74476174653a207369676e6572206e6f742061637469604482015261766560f01b6064820152fd5b90508481813d83116102b5575b61029a8183610524565b810103126102b1576102ab906105a4565b386101e6565b8580fd5b503d610290565b83513d88823e3d90fd5b8380fd5b5050346100d057816003193601126100d05760025490516001600160a01b039091168152602090f35b828434610175576020366003190112610175578235906001600160401b03821161017557506020928361032b60ff93369084016104c1565b928386519485938437820190815203019020541690519015158152f35b905034610178576020366003190112610178578035906001600160401b0382116102c657366023830112156102c657818101359361038585610545565b9461039285519687610524565b8086526020860193366024838301011161017857926020968793848460ff989560246103cf99018737830101528651948593849251928391610560565b820190815203019020541690519015158152f35b905034610178576020366003190112610178578035916001600160401b0383116102c6576104686104387f41acb1d22867b64e26aed37033a194ce67d9f5a5c7796b56d42fa5c38ef340ca94369085016104c1565b936020845180928785833781880190815203019020805460ff191660011790558251838152938493840191610583565b4260208301520390a180f35b5050346100d057816003193601126100d05760035490516001600160a01b039091168152602090f35b8490346100d057816003193601126100d05790546001600160a01b03168152602090f35b9181601f840112156104ee578235916001600160401b0383116104ee57602083818601950101116104ee57565b600080fd5b604081019081106001600160401b0382111761050e57604052565b634e487b7160e01b600052604160045260246000fd5b90601f801991011681019081106001600160401b0382111761050e57604052565b6001600160401b03811161050e57601f01601f191660200190565b60005b8381106105735750506000910152565b8181015183820152602001610563565b908060209392818452848401376000828201840152601f01601f1916010190565b519081151582036104ee57565b81601f820112156104ee5780516105c781610545565b926105d56040519485610524565b818452602082840101116104ee576105f39160208085019101610560565b90565b51906001600160a01b03821682036104ee57565b519060ff821682036104ee57565b80548210156106305760005260206000200190600090565b634e487b7160e01b600052603260045260246000fd5b9060209161065f81518092818552858086019101610560565b601f01601f1916010190565b90815180825260208092019182818360051b85019501936000915b8483106106965750505050505090565b90919293949584806106b083856001950387528a51610646565b9801930193019194939290610686565b91909392600060405190602082018281106001600160401b03821117610b0057604090815281835260035490516358c3de9360e11b815290602090829060049082906001600160a01b03165afa908115610b145782916111e6575b506111af5760ff6040518486823760208186810160048152030190205416611168578054604051639f8a13d760e01b81526001600160a01b038781166004830152909160209183916024918391165afa908115610b1457829161112e575b50156110f2578054604051635b962d2d60e01b81526001600160a01b038781166004830152909160209183916024918391165afa908115610b145782916110b8575b506110715760015460405163418ea65960e01b815260048101899052908290829060249082906001600160a01b03165afa8015610b145782918391610da9575b5061016082015115610d6a57610140820151610d2957610ce15781546040516313cf548360e21b81526001600160a01b038881166004830152909160209183916024918391165afa908115610cd6578391610c9c575b5060ff8060a084015116911610610c5b576001600160a01b038616825260056020526040822042603b19810111610c475782815491825b610bf7575b50600a91501015610bb95760c068056bc75e2d631000009101511015610b33575b6001600160a01b038516815260056020526040812080549068010000000000000000821015610b1f57906108e791600182018155610618565b815460001960039290921b91821b19164290911b17905580546001600160a01b0316803b156100d057604051633655c3b960e01b81526001600160a01b03871660048201529082908290602490829084905af18015610b1457610ae9575b5060206040518181016bffffffffffffffffffffffff198860601b16815289603483015285876054840137858201914260548401526109a1607c82671054141493d5915160c21b9586607482015203605c810184520182610524565b5190209789848960018060a01b036002541693610a41604051998a97889687956339804f5360e11b875260e06004880152601460e488015273141493d0d554915351539517d054141493d5915160621b61010488015260018060a01b0316602487015260448601526101206064860152600861012486015261014485015261016060848501528461016485015261018060a485015261018484019061066b565b9060c483015203925af1908115610add5750610ab2575b507f72041d86c440111d3ecb1e960bc3879cc0b5234a8ed0ae8ae113f157f0ddd78792610a92604051938493606085526060850191610583565b42602084015260408301959095526001600160a01b0316930390a3600190565b602090813d8311610ad6575b610ac88183610524565b810103126104ee5738610a58565b503d610abe565b604051903d90823e3d90fd5b6001600160401b038111610b005760405238610945565b634e487b7160e01b82526041600452602482fd5b6040513d84823e3d90fd5b634e487b7160e01b83526041600452602483fd5b8681526006602090815260408083206001600160a01b038816845290915281205460ff166108ae5795809193506105f3959492508652600760205260408620600160ff1982541617905560405191610b8a836104f3565b601983527f5345434f4e445f5349474e41545552455f5245515549524544000000000000006020840152611220565b50959092506105f39493915060405191610bd2836104f3565b60138352721490551157d31253525517d15610d151511151606a1b6020840152611220565b9060001980930192610c098484610618565b905442603b190160039290921b1c10610c40578114610c2c576001019082610888565b634e487b7160e01b85526011600452602485fd5b509061088d565b634e487b7160e01b83526011600452602483fd5b50959092506105f39493915060405191610c74836104f3565b6016835275494e53554646494349454e545f434c454152414e434560501b6020840152611220565b90506020813d602011610cce575b81610cb760209383610524565b8101031261017857610cc89061060a565b38610851565b3d9150610caa565b6040513d85823e3d90fd5b50959092506105f39493915060405191610cfa836104f3565b601983527f535550504c595f434841494e5f4741505f4445544543544544000000000000006020840152611220565b5050959092506105f39493915060405191610d43836104f3565b601583527410d3d35413d391539517d0d3d3541493d35254d151605a1b6020840152611220565b5050959092506105f39493915060405191610d84836104f3565b601383527210d3d35413d391539517d393d517d193d55391606a1b6020840152611220565b9150503d908183823e610dbc8282610524565b6060818381010312610178578051916001600160401b0383116102c6576101a083830182840103126102c65760405192836101a08101106001600160401b036101a08601111761105d576101a0840160405282810180518552602001516001600160401b0381116102b157610e389083850190838601016105b1565b6020850152610e4b6040828501016105f6565b6040850152606081840101516060850152610e6a6080828501016105f6565b6080850152610e7d60a08285010161060a565b60a085015282810160c0818101519086015260e0808201519086015261010001516001600160401b0381116102b157610ebd9083850190838601016105b1565b610100850152610120610ed381838601016105a4565b90850152610140610ee781838601016105a4565b90850152610160610efb81838601016105a4565b90850152610f0f61018080928501016105a4565b908401526020820151906001600160401b03821161105957808301601f8385010112156110595781830151906001600160401b038211611045576020604051610f5d828560051b0182610524565b8381520192818501602060a0850283880101011161104157602081860101935b602060a0850283880101018510610fa55750505050506040610f9f91016105a4565b386107fb565b60a085848801031261103d576040518060a08101106001600160401b0360a0830111176110295760a060208094938383809501604052610fe48a6105f6565b8152610ff1838b016105f6565b8382015260408a0151604082015260608a0151606082015261101560808b016105a4565b608082015281520196019591925050610f7d565b634e487b7160e01b89526041600452602489fd5b8780fd5b8680fd5b634e487b7160e01b86526041600452602486fd5b8480fd5b634e487b7160e01b85526041600452602485fd5b959092506105f39493915060405191611089836104f3565b601783527f4f4646494345525f414e4f4d414c595f464c41474745440000000000000000006020840152611220565b90506020813d6020116110ea575b816110d360209383610524565b810103126100d0576110e4906105a4565b386107bb565b3d91506110c6565b959092506105f3949391506040519161110a836104f3565b60128352714f4646494345525f4e4f545f41435449564560701b6020840152611220565b90506020813d602011611160575b8161114960209383610524565b810103126100d05761115a906105a4565b38610779565b3d915061113c565b959092506105f39493915060405191611180836104f3565b601883527f434f4d50524f4d495345445f4445564943455f544f4b454e00000000000000006020840152611220565b959092506105f394939150604051916111c7836104f3565b600d83526c14d654d5115357d4105554d151609a1b6020840152611220565b90506020813d602011611218575b8161120160209383610524565b810103126100d057611212906105a4565b3861071b565b3d91506111f4565b82919493604051946020938491886000848a019660018060a01b03978882169b8c926bffffffffffffffffffffffff199060601b16825284603482015242605482015261129d607a826511115392515160d21b998a607483015261128d8c82519283918686019101610560565b810103605a810184520182610524565b519020976002541693611330604051988997889687956339804f5360e11b875260e06004880152601260e488015271141493d0d554915351539517d1115392515160721b6101048801526024870152604486015261012060648601526006610124860152610144850152610160608485015261131e8d610164860190610646565b8481036003190160a48601529061066b565b9060c483015203925af180156113c057611391575b5091611381917f9fa4ae2c35e8fd1027d0545f3fc77a557573b8585da034b64bbf0527d23368cb93604051938493606085526060850190610646565b91429084015260408301520390a3565b9180939192813d83116113b9575b6113a98183610524565b810103126104ee57919038611345565b503d61139f565b6040513d6000823e3d90fdfea2646970667358221220f42efd4544eab1b438d222d7ad6997c2a9d3ab4afc8dcbeda28c2f4e2a338f3764736f6c63430008140033",
  "linkReferences": {},
  "deployedLinkReferences": {}
}