{"contracts/ComponentRegistry.sol":{"ComponentRegistry":{"abi":[{"anonymous":false,"inputs":[{"indexed":true,"internalType":"bytes32","name":"componentId","type":"bytes32"},{"indexed":false,"internalType":"string","name":"reason","type":"string"}],"name":"ComponentFlagged","type":"event"},{"anonymous":false,"inputs":[{"indexed":true,"internalType":"bytes32","name":"componentId","type":"bytes32"},{"indexed":true,"internalType":"address","name":"manufacturer","type":"address"},{"indexed":false,"internalType":"uint8","name":"categoryLevel","type":"uint8"},{"indexed":false,"internalType":"uint256","name":"value","type":"uint256"}],"name":"ComponentRegistered","type":"event"},{"anonymous":false,"inputs":[{"indexed":true,"internalType":"string","name":"sessionId","type":"string"},{"indexed":true,"internalType":"bytes32","name":"phantomHash","type":"bytes32"},{"indexed":false,"internalType":"address","name":"caller","type":"address"},{"indexed":false,"internalType":"uint256","name":"timestamp","type":"uint256"}],"name":"HoneyTokenAlert","type":"event"},{"anonymous":false,"inputs":[{"indexed":true,"internalType":"bytes32","name":"componentId","type":"bytes32"},{"indexed":true,"internalType":"address","name":"from","type":"address"},{"indexed":true,"internalType":"address","name":"to","type":"address"},{"indexed":false,"internalType":"bytes32","name":"locationHash","type":"bytes32"}],"name":"OwnershipTransferred","type":"event"},{"anonymous":false,"inputs":[{"indexed":true,"internalType":"address","name":"manufacturer","type":"address"},{"indexed":false,"internalType":"uint256","name":"componentCount","type":"uint256"}],"name":"RecursiveRevocationTriggered","type":"event"},{"inputs":[{"internalType":"uint256","name":"","type":"uint256"}],"name":"allComponentIds","outputs":[{"internalType":"bytes32","name":"","type":"bytes32"}],"stateMutability":"view","type":"function"},{"inputs":[{"internalType":"bytes32[]","name":"componentIds","type":"bytes32[]"}],"name":"batchVerify","outputs":[{"internalType":"bool[]","name":"results","type":"bool[]"},{"internalType":"bool[]","name":"gaps","type":"bool[]"}],"stateMutability":"view","type":"function"},{"inputs":[{"internalType":"bytes32","name":"componentId","type":"bytes32"},{"internalType":"string","name":"reason","type":"string"}],"name":"flagSuspicious","outputs":[],"stateMutability":"nonpayable","type":"function"},{"inputs":[{"internalType":"string","name":"sessionId","type":"string"}],"name":"generateHoneyToken","outputs":[{"internalType":"bytes32","name":"","type":"bytes32"}],"stateMutability":"nonpayable","type":"function"},{"inputs":[{"internalType":"bytes32","name":"componentId","type":"bytes32"}],"name":"getComponentBasic","outputs":[{"internalType":"string","name":"componentType","type":"string"},{"internalType":"address","name":"manufacturer","type":"address"},{"internalType":"address","name":"currentOwner","type":"address"},{"internalType":"uint8","name":"categoryLevel","type":"uint8"},{"internalType":"uint256","name":"value","type":"uint256"},{"internalType":"bool","name":"verified","type":"bool"},{"internalType":"bool","name":"compromised","type":"bool"}],"stateMutability":"view","type":"function"},{"inputs":[{"internalType":"bytes32","name":"componentId","type":"bytes32"}],"name":"getFullHistory","outputs":[{"components":[{"internalType":"bytes32","name":"componentId","type":"bytes32"},{"internalType":"string","name":"componentType","type":"string"},{"internalType":"address","name":"manufacturer","type":"address"},{"internalType":"uint256","name":"manufactureDate","type":"uint256"},{"internalType":"address","name":"currentOwner","type":"address"},{"internalType":"uint8","name":"categoryLevel","type":"uint8"},{"internalType":"uint256","name":"value","type":"uint256"},{"internalType":"bytes32","name":"hardwareRootHash","type":"bytes32"},{"internalType":"string","name":"encryptedIpfsCid","type":"string"},{"internalType":"bool","name":"verified","type":"bool"},{"internalType":"bool","name":"compromised","type":"bool"},{"internalType":"bool","name":"exists","type":"bool"},{"internalType":"bool","name":"isHoneyToken","type":"bool"}],"internalType":"struct ComponentRegistry.Component","name":"component","type":"tuple"},{"components":[{"internalType":"address","name":"from","type":"address"},{"internalType":"address","name":"to","type":"address"},{"internalType":"uint256","name":"timestamp","type":"uint256"},{"internalType":"bytes32","name":"locationHash","type":"bytes32"},{"internalType":"bool","name":"verified","type":"bool"}],"internalType":"struct ComponentRegistry.Transfer[]","name":"history","type":"tuple[]"},{"internalType":"bool","name":"hasGap","type":"bool"}],"stateMutability":"view","type":"function"},{"inputs":[{"internalType":"address","name":"manufacturer","type":"address"}],"name":"getManufacturerComponents","outputs":[{"internalType":"bytes32[]","name":"","type":"bytes32[]"}],"stateMutability":"view","type":"function"},{"inputs":[],"name":"getTotalComponents","outputs":[{"internalType":"uint256","name":"","type":"uint256"}],"stateMutability":"view","type":"function"},{"inputs":[{"internalType":"string","name":"sessionId","type":"string"},{"internalType":"bytes32","name":"hash","type":"bytes32"}],"name":"queryHoneyToken","outputs":[{"internalType":"bool","name":"isLegitimate","type":"bool"}],"stateMutability":"nonpayable","type":"function"},{"inputs":[{"internalType":"address","name":"manufacturer","type":"address"}],"name":"recursiveRevocation","outputs":[],"stateMutability":"nonpayable","type":"function"},{"inputs":[{"internalType":"bytes32","name":"componentId","type":"bytes32"},{"internalType":"string","name":"componentType","type":"string"},{"internalType":"uint8","name":"categoryLevel","type":"uint8"},{"internalType":"uint256","name":"value","type":"uint256"},{"internalType":"bytes32","name":"hardwareRootHash","type":"bytes32"},{"internalType":"string","name":"encryptedIpfsCid","type":"string"}],"name":"registerComponent","outputs":[],"stateMutability":"nonpayable","type":"function"},{"inputs":[{"internalType":"bytes32","name":"componentId","type":"bytes32"},{"internalType":"address","name":"to","type":"address"},{"internalType":"bytes32","name":"locationHash","type":"bytes32"},{"internalType":"bool","name":"verified","type":"bool"}],"name":"transferOwnership","outputs":[],"stateMutability":"nonpayable","type":"function"}],"evm":{"bytecode":{"linkReferences":{},"object":"6080806040523461001657611983908161001c8239f35b600080fdfe608080604052600436101561001357600080fd5b60003560e01c908163238bdbf314611416575080632a6f067a146113c5578063418ea659146110465780634c8e73ce14610e9a5780635470635c14610de65780635738bf8214610c7f5780635c4be6ec14610bc057806381229c571461062557806397eb0cf9146104b7578063b05d439b14610364578063c8fa6157146100f05763f7aa51d4146100a357600080fd5b346100eb5760403660031901126100eb576004356001600160401b0381116100eb576100e16100d86020923690600401611487565b60243591611838565b6040519015158152f35b600080fd5b346100eb5760203660031901126100eb576004356001600160401b038082116100eb57366023830112156100eb578160040135116100eb57366024826004013560051b830101116100eb5761014881600401356117f6565b61015582600401356117f6565b60005b836004013581106101915761017f8361018d846040519384936040855260408501906114b4565b9083820360208501526114b4565b0390f35b91926101a583826004013560248401611828565b356000526000602052600860ff816040600020015460101c1615610343576101d584836004013560248501611828565b35600052600060205260ff8160406000200154169081610312575b506101fb84866117e2565b901515905261021283826004013560248401611828565b356000526001602052604060002093845461022c816117a6565b9561023a6040519788611521565b81875260208701906000526020600020906000905b8382106102b9575050505060005b85518110156102ab57608061027282886117e2565b5101511561028857610283906117bd565b61025d565b5092829450600161029d826102a394956117e2565b526117bd565b929092610158565b50926102a3919294506117bd565b600560206001926040516102cc81611506565b848060a01b03808854168252858801541683820152600287015460408201526003870154606082015260ff6004880154161515608082015281520193019101909161024f565b60ff915061032885846004013560248601611828565b3560005260006020528060406000200154901c1615856101f0565b509092918060006103576102a393866117e2565b52600061029d82876117e2565b346100eb5760203660031901126100eb5761049460043580600052600060205260ff9061039d8260086040600020015460101c166116a7565b60005260006020526040600020906040516103b7816114ea565b825481526103c760018401611702565b906020810191825260018060a01b039283600286015416946040830195865260038101546060840152600481015491608084019580841687528160a086019460a01c16845280600860058501549460c08801958652600681015460e089015261043260078201611702565b6101008901520154968388161515968761012082015261018085808b60081c1615159a8b610140850152818160101c16151561016085015260181c1615159101525198511696511692511690519160405197889760e0895260e0890190611431565b95602088015260408701526060860152608085015260a084015260c08301520390f35b346100eb5760803660031901126100eb576024356001600160a01b0381811691600435908390036100eb576044356064359081159182158091036100eb57836000526020926000845261051760ff60086040600020015460101c166116a7565b8460005260008452856004604060002001541633036105d4577f62fb20063525870511d590a85718d4f5824652d140cdd8e33aba11b0667815999392916105ba918660005260008552604060002090600482018a81549a8b169a6001600160601b0360a01b161790556105c3575b506001845260406000206040519161059c83611506565b88835289868401524260408401528460608401526080830152611616565b604051908152a4005b600801805460ff1916905588610585565b60405162461bcd60e51b8152600481018590526024808201527f436f6d706f6e656e7452656769737472793a206e6f742063757272656e74206f6044820152633bb732b960e11b6064820152608490fd5b346100eb5760c03660031901126100eb576024356001600160401b0381116100eb57610655903690600401611487565b906044359060ff821682036100eb5760a4356001600160401b0381116100eb57610683903690600401611487565b600435600052600060205260ff60086040600020015460101c16610b6357600160ff8516101580610b55575b15610b04576106d461070b93604051966106c8886114ea565b60043588523691611542565b602086015233604086015242606086015233608086015260ff841660a086015260643560c086015260843560e08601523691611542565b610100830152600161012083015260006101408301526001610160830152600061018083015260043560005260006020526040600020908251825560208301519283516001600160401b0381116109f6576107768161076d6001870154611588565b600187016115c2565b6020601f8211600114610a95578192939495600092610a8a575b50508160011b916000199060031b1c19161760018401555b6002830160018060a01b0390816040840151166001600160601b0360a01b82541617905560608201516003850155600484019060808301511681549060ff60a01b60a085015160a01b16916affffffffffffffffffffff60a81b161717905560c0810151600584015560e081015160068401556101008101519283516001600160401b0381116109f65761084c816108436007850154611588565b600785016115c2565b6020601f8211600114610a175781906008949596600092610a0c575b50508160011b916000199060031b1c19161760078201555b019061089f6101208201511515839060ff801983541691151516179055565b610140810151151590825461ff0063ff00000061018062ff0000610160860151151560101b16940151151560181b169360081b169063ffffff0019161717179055600435600052600160205261092360406000206040519061090082611506565b600082523360208301524260408301526000606083015260016080830152611616565b33600052600360205260406000208054600160401b91828210156109f657600182018082558210156109e0576000526004359060206000200155600754908110156109f65760018101806007558110156109e0576007600052600435907fa66cc928b5edb82af9bd49922954155ab7b0942694bea4ce44661d9a8736c688015560ff60405191168152606435602082015233907f2bf2ee018e4bf379a7434f161e934196ef1f64d4c3ca080c68cc3ca4383ef2d6604060043592a3005b634e487b7160e01b600052603260045260246000fd5b634e487b7160e01b600052604160045260246000fd5b015190508680610868565b6007830160005260206000209560005b601f1984168110610a7257509582916008959697600194601f19811610610a59575b505050811b016007820155610880565b015160001960f88460031b161c19169055868080610a49565b82820151885560019097019660209283019201610a27565b015190508580610790565b6001850160005260206000209060005b601f1984168110610aec575060019394959683601f19811610610ad3575b505050811b0160018401556107a8565b015160001960f88460031b161c19169055858080610ac3565b9091602060018192858b015181550193019101610aa5565b60405162461bcd60e51b815260206004820152602360248201527f436f6d706f6e656e7452656769737472793a20696e76616c69642063617465676044820152626f727960e81b6064820152608490fd5b50600560ff851611156106af565b60405162461bcd60e51b815260206004820152602f60248201527f436f6d706f6e656e7452656769737472793a20636f6d706f6e656e7420616c7260448201526e1958591e481c9959da5cdd195c9959608a1b6064820152608490fd5b346100eb5760403660031901126100eb576004356024356001600160401b0381116100eb576040610c167fecf9bce881d49b1c255e2ebab5f5c40137240a3b7246ab390cf71190662ab5fd923690600401611487565b9190846000526000602052610c3760ff600884600020015460101c166116a7565b8460005260006020526008826000200161010061ffff1982541617905582825193849260208452816020850152848401376000828201840152601f01601f19168101030190a2005b346100eb576020806003193601126100eb576001600160401b036004358181116100eb57610cb1903690600401611487565b90916040518481019083858337610ce9607482868101428a8201524460408201523360601b6060820152036054810184520182611521565b5190209182604051828682378681848101600481520301902055826000526005855260406000209181116109f657610d2b81610d258454611588565b846115c2565b6000601f8211600114610d815781929394600092610d76575b50508160011b916000199060031b1c19161790555b8060005260068252604060002060ff198154169055604051908152f35b013590508580610d44565b601f1982169483600052866000209160005b88888210610dd057505083600195969710610db6575b505050811b019055610d59565b0135600019600384901b60f8161c19169055858080610da9565b6001839582939486013581550194019101610d93565b346100eb576020806003193601126100eb576001600160a01b03610e08611471565b1660005260038152604060002060405190818382549182815201908192600052846000209060005b86828210610e86578686610e4682880383611521565b604051928392818401908285525180915260408401929160005b828110610e6f57505050500390f35b835185528695509381019392810192600101610e60565b835485529093019260019283019201610e30565b346100eb576020806003193601126100eb576001600160a01b03610ebc611471565b168060005260038252604060002091604051808483829654938481520190600052836000209260005b8582821061103057505050610efc92500384611521565b60005b83518110156110025780610f16610f3992866117e2565b5160005260008352600860ff816040600020015460101c16610f3e575b506117bd565b610eff565b610f4882876117e2565b51600052600084528060406000200161010061ff0019825416179055610f6e82876117e2565b516000526000845260406000200160ff198154169055610f8e81866117e2565b517fecf9bce881d49b1c255e2ebab5f5c40137240a3b7246ab390cf71190662ab5fd6080604051868152602e878201527f526563757273697665207265766f636174696f6e3a206d616e7566616374757260408201526d195c8818dbdb5c1c9bdb5a5cd95960921b6060820152a285610f33565b507fb81e65c78ea359c8eeded85c51fd0e43408e3802718698f821bb9e4f0bc5e0b7919251604051908152a2005b8554845260019586019589955093019201610ee5565b346100eb5760203660031901126100eb576000610180604051611068816114ea565b828152606060208201528260408201528260608201528260808201528260a08201528260c08201528260e08201526060610100820152826101208201528261014082015282610160820152015260043560005260006020526110d760ff60086040600020015460101c166116a7565b6004356000526000602052604060002060ff6008604051926110f8846114ea565b8054845261110860018201611702565b602085015260028101546001600160a01b039081166040860152600382015460608601526004820154908116608086015260a090811c841690850152600581015460c0850152600681015460e085015261116460078201611702565b61010085015201548181161515610120840152818160081c16151561014084015260101c16151561016082015260006101808201526004356000526001602052604060002080546111b4816117a6565b906111c26040519283611521565b80825260208201809360005260206000206000915b838310611367575050505060009160005b825181101561135f5760806111fd82856117e2565b510151156112135761120e906117bd565b6111e8565b5090915060015b60206040519360608552855160608601526101806112b561124b848901516101a060808a0152610200890190611431565b60018060a01b0360408a01511660a0890152606089015160c089015260018060a01b0360808a01511660e089015260ff60a08a01511661010089015260c089015161012089015260e0890151610140890152610100890151605f19898303016101608a0152611431565b9661012081015115158288015261014081015115156101a088015261016081015115156101c0880152015115156101e086015284860382860152519485815201916000945b808610611311575050829350151560408301520390f35b9092602060a0600192608087518580851b0381511683528580851b038582015116858401526040810151604084015260608101516060840152015115156080820152019401950194906112fa565b50909161121a565b6005602060019260405161137a81611506565b848060a01b038654168152848060a01b03858701541683820152600286015460408201526003860154606082015260ff600487015416151560808201528152019201920191906111d7565b346100eb5760203660031901126100eb576004356007548110156100eb5760209060076000527fa66cc928b5edb82af9bd49922954155ab7b0942694bea4ce44661d9a8736c6880154604051908152f35b346100eb5760003660031901126100eb576020906007548152f35b919082519283825260005b84811061145d575050826000602080949584010152601f8019910116010190565b60208183018101518483018201520161143c565b600435906001600160a01b03821682036100eb57565b9181601f840112156100eb578235916001600160401b0383116100eb57602083818601950101116100eb57565b90815180825260208080930193019160005b8281106114d4575050505090565b83511515855293810193928101926001016114c6565b6101a081019081106001600160401b038211176109f657604052565b60a081019081106001600160401b038211176109f657604052565b90601f801991011681019081106001600160401b038211176109f657604052565b9291926001600160401b0382116109f6576040519161156b601f8201601f191660200184611521565b8294818452818301116100eb578281602093846000960137010152565b90600182811c921680156115b8575b60208310146115a257565b634e487b7160e01b600052602260045260246000fd5b91607f1691611597565b90601f81116115d057505050565b600091825260208220906020601f850160051c8301941061160c575b601f0160051c01915b82811061160157505050565b8181556001016115f5565b90925082906115ec565b908154600160401b8110156109f657600181018084558110156109e05760806004916116a594600052600560206000209102019260018060a01b03808251166001600160601b0360a01b908187541617865560018601916020840151169082541617905560408101516002850155606081015160038501550151151591019060ff801983541691151516179055565b565b156116ae57565b60405162461bcd60e51b815260206004820152602660248201527f436f6d706f6e656e7452656769737472793a20636f6d706f6e656e74206e6f7460448201526508199bdd5b9960d21b6064820152608490fd5b906040519182600082549261171684611588565b9081845260019485811690816000146117835750600114611740575b50506116a592500383611521565b9093915060005260209081600020936000915b81831061176b5750506116a593508201013880611732565b85548884018501529485019487945091830191611753565b9150506116a594506020925060ff191682840152151560051b8201013880611732565b6001600160401b0381116109f65760051b60200190565b60001981146117cc5760010190565b634e487b7160e01b600052601160045260246000fd5b80518210156109e05760209160051b010190565b90611800826117a6565b61180d6040519182611521565b828152809261181e601f19916117a6565b0190602036910137565b91908110156109e05760051b0190565b906040928351918084843781838281016004815260209586910301902054036119005760009382855260058452611870868620611702565b848151910120611881368484611542565b858151910120036118b8578285526006845260ff86862054166118b85750509060069183525220600160ff19825416179055600190565b859350817fd9b479ae5348517dc8d8bdbdaacb5e4244aaab3cab0c2bd58095758e83ec118193959651928392833781018681520390209151338152426020820152604090a390565b9093927fd9b479ae5348517dc8d8bdbdaacb5e4244aaab3cab0c2bd58095758e83ec11819250818451928392833760009082019081520390209151338152426020820152604090a360009056fea2646970667358221220066d50a79e00bc3539809642ae94ead7a82ff32164a13f76acaa05c8533bce9364736f6c63430008140033","opcodes":"PUSH1 0x80 DUP1 PUSH1 0x40 MSTORE CALLVALUE PUSH2 0x16 JUMPI PUSH2 0x1983 SWAP1 DUP2 PUSH2 0x1C DUP3 CODECOPY RETURN JUMPDEST PUSH1 0x0 DUP1 REVERT INVALID PUSH1 0x80 DUP1 PUSH1 0x40 MSTORE PUSH1 0x4 CALLDATASIZE LT ISZERO PUSH2 0x13 JUMPI PUSH1 0x0 DUP1 REVERT JUMPDEST PUSH1 0x0 CALLDATALOAD PUSH1 0xE0 SHR SWAP1 DUP2 PUSH4 0x238BDBF3 EQ PUSH2 0x1416 JUMPI POP DUP1 PUSH4 0x2A6F067A EQ PUSH2 0x13C5 JUMPI DUP1 PUSH4 0x418EA659 EQ PUSH2 0x1046 JUMPI DUP1 PUSH4 0x4C8E73CE EQ PUSH2 0xE9A JUMPI DUP1 PUSH4 0x5470635C EQ PUSH2 0xDE6 JUMPI DUP1 PUSH4 0x5738BF82 EQ PUSH2 0xC7F JUMPI DUP1 PUSH4 0x5C4BE6EC EQ PUSH2 0xBC0 JUMPI DUP1 PUSH4 0x81229C57 EQ PUSH2 0x625 JUMPI DUP1 PUSH4 0x97EB0CF9 EQ PUSH2 0x4B7 JUMPI DUP1 PUSH4 0xB05D439B EQ PUSH2 0x364 JUMPI DUP1 PUSH4 0xC8FA6157 EQ PUSH2 0xF0 JUMPI PUSH4 0xF7AA51D4 EQ PUSH2 0xA3 JUMPI PUSH1 0x0 DUP1 REVERT JUMPDEST CALLVALUE PUSH2 0xEB JUMPI PUSH1 0x40 CALLDATASIZE PUSH1 0x3 NOT ADD SLT PUSH2 0xEB JUMPI PUSH1 0x4 CALLDATALOAD PUSH1 0x1 PUSH1 0x1 PUSH1 0x40 SHL SUB DUP2 GT PUSH2 0xEB JUMPI PUSH2 0xE1 PUSH2 0xD8 PUSH1 0x20 SWAP3 CALLDATASIZE SWAP1 PUSH1 0x4 ADD PUSH2 0x1487 JUMP JUMPDEST PUSH1 0x24 CALLDATALOAD SWAP2 PUSH2 0x1838 JUMP JUMPDEST PUSH1 0x40 MLOAD SWAP1 ISZERO ISZERO DUP2 MSTORE RETURN JUMPDEST PUSH1 0x0 DUP1 REVERT JUMPDEST CALLVALUE PUSH2 0xEB JUMPI PUSH1 0x20 CALLDATASIZE PUSH1 0x3 NOT ADD SLT PUSH2 0xEB JUMPI PUSH1 0x4 CALLDATALOAD PUSH1 0x1 PUSH1 0x1 PUSH1 0x40 SHL SUB DUP1 DUP3 GT PUSH2 0xEB JUMPI CALLDATASIZE PUSH1 0x23 DUP4 ADD SLT ISZERO PUSH2 0xEB JUMPI DUP2 PUSH1 0x4 ADD CALLDATALOAD GT PUSH2 0xEB JUMPI CALLDATASIZE PUSH1 0x24 DUP3 PUSH1 0x4 ADD CALLDATALOAD PUSH1 0x5 SHL DUP4 ADD ADD GT PUSH2 0xEB JUMPI PUSH2 0x148 DUP2 PUSH1 0x4 ADD CALLDATALOAD PUSH2 0x17F6 JUMP JUMPDEST PUSH2 0x155 DUP3 PUSH1 0x4 ADD CALLDATALOAD PUSH2 0x17F6 JUMP JUMPDEST PUSH1 0x0 JUMPDEST DUP4 PUSH1 0x4 ADD CALLDATALOAD DUP2 LT PUSH2 0x191 JUMPI PUSH2 0x17F DUP4 PUSH2 0x18D DUP5 PUSH1 0x40 MLOAD SWAP4 DUP5 SWAP4 PUSH1 0x40 DUP6 MSTORE PUSH1 0x40 DUP6 ADD SWAP1 PUSH2 0x14B4 JUMP JUMPDEST SWAP1 DUP4 DUP3 SUB PUSH1 0x20 DUP6 ADD MSTORE PUSH2 0x14B4 JUMP JUMPDEST SUB SWAP1 RETURN JUMPDEST SWAP2 SWAP3 PUSH2 0x1A5 DUP4 DUP3 PUSH1 0x4 ADD CALLDATALOAD PUSH1 0x24 DUP5 ADD PUSH2 0x1828 JUMP JUMPDEST CALLDATALOAD PUSH1 0x0 MSTORE PUSH1 0x0 PUSH1 0x20 MSTORE PUSH1 0x8 PUSH1 0xFF DUP2 PUSH1 0x40 PUSH1 0x0 KECCAK256 ADD SLOAD PUSH1 0x10 SHR AND ISZERO PUSH2 0x343 JUMPI PUSH2 0x1D5 DUP5 DUP4 PUSH1 0x4 ADD CALLDATALOAD PUSH1 0x24 DUP6 ADD PUSH2 0x1828 JUMP JUMPDEST CALLDATALOAD PUSH1 0x0 MSTORE PUSH1 0x0 PUSH1 0x20 MSTORE PUSH1 0xFF DUP2 PUSH1 0x40 PUSH1 0x0 KECCAK256 ADD SLOAD AND SWAP1 DUP2 PUSH2 0x312 JUMPI JUMPDEST POP PUSH2 0x1FB DUP5 DUP7 PUSH2 0x17E2 JUMP JUMPDEST SWAP1 ISZERO ISZERO SWAP1 MSTORE PUSH2 0x212 DUP4 DUP3 PUSH1 0x4 ADD CALLDATALOAD PUSH1 0x24 DUP5 ADD PUSH2 0x1828 JUMP JUMPDEST CALLDATALOAD PUSH1 0x0 MSTORE PUSH1 0x1 PUSH1 0x20 MSTORE PUSH1 0x40 PUSH1 0x0 KECCAK256 SWAP4 DUP5 SLOAD PUSH2 0x22C DUP2 PUSH2 0x17A6 JUMP JUMPDEST SWAP6 PUSH2 0x23A PUSH1 0x40 MLOAD SWAP8 DUP9 PUSH2 0x1521 JUMP JUMPDEST DUP2 DUP8 MSTORE PUSH1 0x20 DUP8 ADD SWAP1 PUSH1 0x0 MSTORE PUSH1 0x20 PUSH1 0x0 KECCAK256 SWAP1 PUSH1 0x0 SWAP1 JUMPDEST DUP4 DUP3 LT PUSH2 0x2B9 JUMPI POP POP POP POP PUSH1 0x0 JUMPDEST DUP6 MLOAD DUP2 LT ISZERO PUSH2 0x2AB JUMPI PUSH1 0x80 PUSH2 0x272 DUP3 DUP9 PUSH2 0x17E2 JUMP JUMPDEST MLOAD ADD MLOAD ISZERO PUSH2 0x288 JUMPI PUSH2 0x283 SWAP1 PUSH2 0x17BD JUMP JUMPDEST PUSH2 0x25D JUMP JUMPDEST POP SWAP3 DUP3 SWAP5 POP PUSH1 0x1 PUSH2 0x29D DUP3 PUSH2 0x2A3 SWAP5 SWAP6 PUSH2 0x17E2 JUMP JUMPDEST MSTORE PUSH2 0x17BD JUMP JUMPDEST SWAP3 SWAP1 SWAP3 PUSH2 0x158 JUMP JUMPDEST POP SWAP3 PUSH2 0x2A3 SWAP2 SWAP3 SWAP5 POP PUSH2 0x17BD JUMP JUMPDEST PUSH1 0x5 PUSH1 0x20 PUSH1 0x1 SWAP3 PUSH1 0x40 MLOAD PUSH2 0x2CC DUP2 PUSH2 0x1506 JUMP JUMPDEST DUP5 DUP1 PUSH1 0xA0 SHL SUB DUP1 DUP9 SLOAD AND DUP3 MSTORE DUP6 DUP9 ADD SLOAD AND DUP4 DUP3 ADD MSTORE PUSH1 0x2 DUP8 ADD SLOAD PUSH1 0x40 DUP3 ADD MSTORE PUSH1 0x3 DUP8 ADD SLOAD PUSH1 0x60 DUP3 ADD MSTORE PUSH1 0xFF PUSH1 0x4 DUP9 ADD SLOAD AND ISZERO ISZERO PUSH1 0x80 DUP3 ADD MSTORE DUP2 MSTORE ADD SWAP4 ADD SWAP2 ADD SWAP1 SWAP2 PUSH2 0x24F JUMP JUMPDEST PUSH1 0xFF SWAP2 POP PUSH2 0x328 DUP6 DUP5 PUSH1 0x4 ADD CALLDATALOAD PUSH1 0x24 DUP7 ADD PUSH2 0x1828 JUMP JUMPDEST CALLDATALOAD PUSH1 0x0 MSTORE PUSH1 0x0 PUSH1 0x20 MSTORE DUP1 PUSH1 0x40 PUSH1 0x0 KECCAK256 ADD SLOAD SWAP1 SHR AND ISZERO DUP6 PUSH2 0x1F0 JUMP JUMPDEST POP SWAP1 SWAP3 SWAP2 DUP1 PUSH1 0x0 PUSH2 0x357 PUSH2 0x2A3 SWAP4 DUP7 PUSH2 0x17E2 JUMP JUMPDEST MSTORE PUSH1 0x0 PUSH2 0x29D DUP3 DUP8 PUSH2 0x17E2 JUMP JUMPDEST CALLVALUE PUSH2 0xEB JUMPI PUSH1 0x20 CALLDATASIZE PUSH1 0x3 NOT ADD SLT PUSH2 0xEB JUMPI PUSH2 0x494 PUSH1 0x4 CALLDATALOAD DUP1 PUSH1 0x0 MSTORE PUSH1 0x0 PUSH1 0x20 MSTORE PUSH1 0xFF SWAP1 PUSH2 0x39D DUP3 PUSH1 0x8 PUSH1 0x40 PUSH1 0x0 KECCAK256 ADD SLOAD PUSH1 0x10 SHR AND PUSH2 0x16A7 JUMP JUMPDEST PUSH1 0x0 MSTORE PUSH1 0x0 PUSH1 0x20 MSTORE PUSH1 0x40 PUSH1 0x0 KECCAK256 SWAP1 PUSH1 0x40 MLOAD PUSH2 0x3B7 DUP2 PUSH2 0x14EA JUMP JUMPDEST DUP3 SLOAD DUP2 MSTORE PUSH2 0x3C7 PUSH1 0x1 DUP5 ADD PUSH2 0x1702 JUMP JUMPDEST SWAP1 PUSH1 0x20 DUP2 ADD SWAP2 DUP3 MSTORE PUSH1 0x1 DUP1 PUSH1 0xA0 SHL SUB SWAP3 DUP4 PUSH1 0x2 DUP7 ADD SLOAD AND SWAP5 PUSH1 0x40 DUP4 ADD SWAP6 DUP7 MSTORE PUSH1 0x3 DUP2 ADD SLOAD PUSH1 0x60 DUP5 ADD MSTORE PUSH1 0x4 DUP2 ADD SLOAD SWAP2 PUSH1 0x80 DUP5 ADD SWAP6 DUP1 DUP5 AND DUP8 MSTORE DUP2 PUSH1 0xA0 DUP7 ADD SWAP5 PUSH1 0xA0 SHR AND DUP5 MSTORE DUP1 PUSH1 0x8 PUSH1 0x5 DUP6 ADD SLOAD SWAP5 PUSH1 0xC0 DUP9 ADD SWAP6 DUP7 MSTORE PUSH1 0x6 DUP2 ADD SLOAD PUSH1 0xE0 DUP10 ADD MSTORE PUSH2 0x432 PUSH1 0x7 DUP3 ADD PUSH2 0x1702 JUMP JUMPDEST PUSH2 0x100 DUP10 ADD MSTORE ADD SLOAD SWAP7 DUP4 DUP9 AND ISZERO ISZERO SWAP7 DUP8 PUSH2 0x120 DUP3 ADD MSTORE PUSH2 0x180 DUP6 DUP1 DUP12 PUSH1 0x8 SHR AND ISZERO ISZERO SWAP11 DUP12 PUSH2 0x140 DUP6 ADD MSTORE DUP2 DUP2 PUSH1 0x10 SHR AND ISZERO ISZERO PUSH2 0x160 DUP6 ADD MSTORE PUSH1 0x18 SHR AND ISZERO ISZERO SWAP2 ADD MSTORE MLOAD SWAP9 MLOAD AND SWAP7 MLOAD AND SWAP3 MLOAD AND SWAP1 MLOAD SWAP2 PUSH1 0x40 MLOAD SWAP8 DUP9 SWAP8 PUSH1 0xE0 DUP10 MSTORE PUSH1 0xE0 DUP10 ADD SWAP1 PUSH2 0x1431 JUMP JUMPDEST SWAP6 PUSH1 0x20 DUP9 ADD MSTORE PUSH1 0x40 DUP8 ADD MSTORE PUSH1 0x60 DUP7 ADD MSTORE PUSH1 0x80 DUP6 ADD MSTORE PUSH1 0xA0 DUP5 ADD MSTORE PUSH1 0xC0 DUP4 ADD MSTORE SUB SWAP1 RETURN JUMPDEST CALLVALUE PUSH2 0xEB JUMPI PUSH1 0x80 CALLDATASIZE PUSH1 0x3 NOT ADD SLT PUSH2 0xEB JUMPI PUSH1 0x24 CALLDATALOAD PUSH1 0x1 PUSH1 0x1 PUSH1 0xA0 SHL SUB DUP2 DUP2 AND SWAP2 PUSH1 0x4 CALLDATALOAD SWAP1 DUP4 SWAP1 SUB PUSH2 0xEB JUMPI PUSH1 0x44 CALLDATALOAD PUSH1 0x64 CALLDATALOAD SWAP1 DUP2 ISZERO SWAP2 DUP3 ISZERO DUP1 SWAP2 SUB PUSH2 0xEB JUMPI DUP4 PUSH1 0x0 MSTORE PUSH1 0x20 SWAP3 PUSH1 0x0 DUP5 MSTORE PUSH2 0x517 PUSH1 0xFF PUSH1 0x8 PUSH1 0x40 PUSH1 0x0 KECCAK256 ADD SLOAD PUSH1 0x10 SHR AND PUSH2 0x16A7 JUMP JUMPDEST DUP5 PUSH1 0x0 MSTORE PUSH1 0x0 DUP5 MSTORE DUP6 PUSH1 0x4 PUSH1 0x40 PUSH1 0x0 KECCAK256 ADD SLOAD AND CALLER SUB PUSH2 0x5D4 JUMPI PUSH32 0x62FB20063525870511D590A85718D4F5824652D140CDD8E33ABA11B066781599 SWAP4 SWAP3 SWAP2 PUSH2 0x5BA SWAP2 DUP7 PUSH1 0x0 MSTORE PUSH1 0x0 DUP6 MSTORE PUSH1 0x40 PUSH1 0x0 KECCAK256 SWAP1 PUSH1 0x4 DUP3 ADD DUP11 DUP2 SLOAD SWAP11 DUP12 AND SWAP11 PUSH1 0x1 PUSH1 0x1 PUSH1 0x60 SHL SUB PUSH1 0xA0 SHL AND OR SWAP1 SSTORE PUSH2 0x5C3 JUMPI JUMPDEST POP PUSH1 0x1 DUP5 MSTORE PUSH1 0x40 PUSH1 0x0 KECCAK256 PUSH1 0x40 MLOAD SWAP2 PUSH2 0x59C DUP4 PUSH2 0x1506 JUMP JUMPDEST DUP9 DUP4 MSTORE DUP10 DUP7 DUP5 ADD MSTORE TIMESTAMP PUSH1 0x40 DUP5 ADD MSTORE DUP5 PUSH1 0x60 DUP5 ADD MSTORE PUSH1 0x80 DUP4 ADD MSTORE PUSH2 0x1616 JUMP JUMPDEST PUSH1 0x40 MLOAD SWAP1 DUP2 MSTORE LOG4 STOP JUMPDEST PUSH1 0x8 ADD DUP1 SLOAD PUSH1 0xFF NOT AND SWAP1 SSTORE DUP9 PUSH2 0x585 JUMP JUMPDEST PUSH1 0x40 MLOAD PUSH3 0x461BCD PUSH1 0xE5 SHL DUP2 MSTORE PUSH1 0x4 DUP2 ADD DUP6 SWAP1 MSTORE PUSH1 0x24 DUP1 DUP3 ADD MSTORE PUSH32 0x436F6D706F6E656E7452656769737472793A206E6F742063757272656E74206F PUSH1 0x44 DUP3 ADD MSTORE PUSH4 0x3BB732B9 PUSH1 0xE1 SHL PUSH1 0x64 DUP3 ADD MSTORE PUSH1 0x84 SWAP1 REVERT JUMPDEST CALLVALUE PUSH2 0xEB JUMPI PUSH1 0xC0 CALLDATASIZE PUSH1 0x3 NOT ADD SLT PUSH2 0xEB JUMPI PUSH1 0x24 CALLDATALOAD PUSH1 0x1 PUSH1 0x1 PUSH1 0x40 SHL SUB DUP2 GT PUSH2 0xEB JUMPI PUSH2 0x655 SWAP1 CALLDATASIZE SWAP1 PUSH1 0x4 ADD PUSH2 0x1487 JUMP JUMPDEST SWAP1 PUSH1 0x44 CALLDATALOAD SWAP1 PUSH1 0xFF DUP3 AND DUP3 SUB PUSH2 0xEB JUMPI PUSH1 0xA4 CALLDATALOAD PUSH1 0x1 PUSH1 0x1 PUSH1 0x40 SHL SUB DUP2 GT PUSH2 0xEB JUMPI PUSH2 0x683 SWAP1 CALLDATASIZE SWAP1 PUSH1 0x4 ADD PUSH2 0x1487 JUMP JUMPDEST PUSH1 0x4 CALLDATALOAD PUSH1 0x0 MSTORE PUSH1 0x0 PUSH1 0x20 MSTORE PUSH1 0xFF PUSH1 0x8 PUSH1 0x40 PUSH1 0x0 KECCAK256 ADD SLOAD PUSH1 0x10 SHR AND PUSH2 0xB63 JUMPI PUSH1 0x1 PUSH1 0xFF DUP6 AND LT ISZERO DUP1 PUSH2 0xB55 JUMPI JUMPDEST ISZERO PUSH2 0xB04 JUMPI PUSH2 0x6D4 PUSH2 0x70B SWAP4 PUSH1 0x40 MLOAD SWAP7 PUSH2 0x6C8 DUP9 PUSH2 0x14EA JUMP JUMPDEST PUSH1 0x4 CALLDATALOAD DUP9 MSTORE CALLDATASIZE SWAP2 PUSH2 0x1542 JUMP JUMPDEST PUSH1 0x20 DUP7 ADD MSTORE CALLER PUSH1 0x40 DUP7 ADD MSTORE TIMESTAMP PUSH1 0x60 DUP7 ADD MSTORE CALLER PUSH1 0x80 DUP7 ADD MSTORE PUSH1 0xFF DUP5 AND PUSH1 0xA0 DUP7 ADD MSTORE PUSH1 0x64 CALLDATALOAD PUSH1 0xC0 DUP7 ADD MSTORE PUSH1 0x84 CALLDATALOAD PUSH1 0xE0 DUP7 ADD MSTORE CALLDATASIZE SWAP2 PUSH2 0x1542 JUMP JUMPDEST PUSH2 0x100 DUP4 ADD MSTORE PUSH1 0x1 PUSH2 0x120 DUP4 ADD MSTORE PUSH1 0x0 PUSH2 0x140 DUP4 ADD MSTORE PUSH1 0x1 PUSH2 0x160 DUP4 ADD MSTORE PUSH1 0x0 PUSH2 0x180 DUP4 ADD MSTORE PUSH1 0x4 CALLDATALOAD PUSH1 0x0 MSTORE PUSH1 0x0 PUSH1 0x20 MSTORE PUSH1 0x40 PUSH1 0x0 KECCAK256 SWAP1 DUP3 MLOAD DUP3 SSTORE PUSH1 0x20 DUP4 ADD MLOAD SWAP3 DUP4 MLOAD PUSH1 0x1 PUSH1 0x1 PUSH1 0x40 SHL SUB DUP2 GT PUSH2 0x9F6 JUMPI PUSH2 0x776 DUP2 PUSH2 0x76D PUSH1 0x1 DUP8 ADD SLOAD PUSH2 0x1588 JUMP JUMPDEST PUSH1 0x1 DUP8 ADD PUSH2 0x15C2 JUMP JUMPDEST PUSH1 0x20 PUSH1 0x1F DUP3 GT PUSH1 0x1 EQ PUSH2 0xA95 JUMPI DUP2 SWAP3 SWAP4 SWAP5 SWAP6 PUSH1 0x0 SWAP3 PUSH2 0xA8A JUMPI JUMPDEST POP POP DUP2 PUSH1 0x1 SHL SWAP2 PUSH1 0x0 NOT SWAP1 PUSH1 0x3 SHL SHR NOT AND OR PUSH1 0x1 DUP5 ADD SSTORE JUMPDEST PUSH1 0x2 DUP4 ADD PUSH1 0x1 DUP1 PUSH1 0xA0 SHL SUB SWAP1 DUP2 PUSH1 0x40 DUP5 ADD MLOAD AND PUSH1 0x1 PUSH1 0x1 PUSH1 0x60 SHL SUB PUSH1 0xA0 SHL DUP3 SLOAD AND OR SWAP1 SSTORE PUSH1 0x60 DUP3 ADD MLOAD PUSH1 0x3 DUP6 ADD SSTORE PUSH1 0x4 DUP5 ADD SWAP1 PUSH1 0x80 DUP4 ADD MLOAD AND DUP2 SLOAD SWAP1 PUSH1 0xFF PUSH1 0xA0 SHL PUSH1 0xA0 DUP6 ADD MLOAD PUSH1 0xA0 SHL AND SWAP2 PUSH11 0xFFFFFFFFFFFFFFFFFFFFFF PUSH1 0xA8 SHL AND OR OR SWAP1 SSTORE PUSH1 0xC0 DUP2 ADD MLOAD PUSH1 0x5 DUP5 ADD SSTORE PUSH1 0xE0 DUP2 ADD MLOAD PUSH1 0x6 DUP5 ADD SSTORE PUSH2 0x100 DUP2 ADD MLOAD SWAP3 DUP4 MLOAD PUSH1 0x1 PUSH1 0x1 PUSH1 0x40 SHL SUB DUP2 GT PUSH2 0x9F6 JUMPI PUSH2 0x84C DUP2 PUSH2 0x843 PUSH1 0x7 DUP6 ADD SLOAD PUSH2 0x1588 JUMP JUMPDEST PUSH1 0x7 DUP6 ADD PUSH2 0x15C2 JUMP JUMPDEST PUSH1 0x20 PUSH1 0x1F DUP3 GT PUSH1 0x1 EQ PUSH2 0xA17 JUMPI DUP2 SWAP1 PUSH1 0x8 SWAP5 SWAP6 SWAP7 PUSH1 0x0 SWAP3 PUSH2 0xA0C JUMPI JUMPDEST POP POP DUP2 PUSH1 0x1 SHL SWAP2 PUSH1 0x0 NOT SWAP1 PUSH1 0x3 SHL SHR NOT AND OR PUSH1 0x7 DUP3 ADD SSTORE JUMPDEST ADD SWAP1 PUSH2 0x89F PUSH2 0x120 DUP3 ADD MLOAD ISZERO ISZERO DUP4 SWAP1 PUSH1 0xFF DUP1 NOT DUP4 SLOAD AND SWAP2 ISZERO ISZERO AND OR SWAP1 SSTORE JUMP JUMPDEST PUSH2 0x140 DUP2 ADD MLOAD ISZERO ISZERO SWAP1 DUP3 SLOAD PUSH2 0xFF00 PUSH4 0xFF000000 PUSH2 0x180 PUSH3 0xFF0000 PUSH2 0x160 DUP7 ADD MLOAD ISZERO ISZERO PUSH1 0x10 SHL AND SWAP5 ADD MLOAD ISZERO ISZERO PUSH1 0x18 SHL AND SWAP4 PUSH1 0x8 SHL AND SWAP1 PUSH4 0xFFFFFF00 NOT AND OR OR OR SWAP1 SSTORE PUSH1 0x4 CALLDATALOAD PUSH1 0x0 MSTORE PUSH1 0x1 PUSH1 0x20 MSTORE PUSH2 0x923 PUSH1 0x40 PUSH1 0x0 KECCAK256 PUSH1 0x40 MLOAD SWAP1 PUSH2 0x900 DUP3 PUSH2 0x1506 JUMP JUMPDEST PUSH1 0x0 DUP3 MSTORE CALLER PUSH1 0x20 DUP4 ADD MSTORE TIMESTAMP PUSH1 0x40 DUP4 ADD MSTORE PUSH1 0x0 PUSH1 0x60 DUP4 ADD MSTORE PUSH1 0x1 PUSH1 0x80 DUP4 ADD MSTORE PUSH2 0x1616 JUMP JUMPDEST CALLER PUSH1 0x0 MSTORE PUSH1 0x3 PUSH1 0x20 MSTORE PUSH1 0x40 PUSH1 0x0 KECCAK256 DUP1 SLOAD PUSH1 0x1 PUSH1 0x40 SHL SWAP2 DUP3 DUP3 LT ISZERO PUSH2 0x9F6 JUMPI PUSH1 0x1 DUP3 ADD DUP1 DUP3 SSTORE DUP3 LT ISZERO PUSH2 0x9E0 JUMPI PUSH1 0x0 MSTORE PUSH1 0x4 CALLDATALOAD SWAP1 PUSH1 0x20 PUSH1 0x0 KECCAK256 ADD SSTORE PUSH1 0x7 SLOAD SWAP1 DUP2 LT ISZERO PUSH2 0x9F6 JUMPI PUSH1 0x1 DUP2 ADD DUP1 PUSH1 0x7 SSTORE DUP2 LT ISZERO PUSH2 0x9E0 JUMPI PUSH1 0x7 PUSH1 0x0 MSTORE PUSH1 0x4 CALLDATALOAD SWAP1 PUSH32 0xA66CC928B5EDB82AF9BD49922954155AB7B0942694BEA4CE44661D9A8736C688 ADD SSTORE PUSH1 0xFF PUSH1 0x40 MLOAD SWAP2 AND DUP2 MSTORE PUSH1 0x64 CALLDATALOAD PUSH1 0x20 DUP3 ADD MSTORE CALLER SWAP1 PUSH32 0x2BF2EE018E4BF379A7434F161E934196EF1F64D4C3CA080C68CC3CA4383EF2D6 PUSH1 0x40 PUSH1 0x4 CALLDATALOAD SWAP3 LOG3 STOP JUMPDEST PUSH4 0x4E487B71 PUSH1 0xE0 SHL PUSH1 0x0 MSTORE PUSH1 0x32 PUSH1 0x4 MSTORE PUSH1 0x24 PUSH1 0x0 REVERT JUMPDEST PUSH4 0x4E487B71 PUSH1 0xE0 SHL PUSH1 0x0 MSTORE PUSH1 0x41 PUSH1 0x4 MSTORE PUSH1 0x24 PUSH1 0x0 REVERT JUMPDEST ADD MLOAD SWAP1 POP DUP7 DUP1 PUSH2 0x868 JUMP JUMPDEST PUSH1 0x7 DUP4 ADD PUSH1 0x0 MSTORE PUSH1 0x20 PUSH1 0x0 KECCAK256 SWAP6 PUSH1 0x0 JUMPDEST PUSH1 0x1F NOT DUP5 AND DUP2 LT PUSH2 0xA72 JUMPI POP SWAP6 DUP3 SWAP2 PUSH1 0x8 SWAP6 SWAP7 SWAP8 PUSH1 0x1 SWAP5 PUSH1 0x1F NOT DUP2 AND LT PUSH2 0xA59 JUMPI JUMPDEST POP POP POP DUP2 SHL ADD PUSH1 0x7 DUP3 ADD SSTORE PUSH2 0x880 JUMP JUMPDEST ADD MLOAD PUSH1 0x0 NOT PUSH1 0xF8 DUP5 PUSH1 0x3 SHL AND SHR NOT AND SWAP1 SSTORE DUP7 DUP1 DUP1 PUSH2 0xA49 JUMP JUMPDEST DUP3 DUP3 ADD MLOAD DUP9 SSTORE PUSH1 0x1 SWAP1 SWAP8 ADD SWAP7 PUSH1 0x20 SWAP3 DUP4 ADD SWAP3 ADD PUSH2 0xA27 JUMP JUMPDEST ADD MLOAD SWAP1 POP DUP6 DUP1 PUSH2 0x790 JUMP JUMPDEST PUSH1 0x1 DUP6 ADD PUSH1 0x0 MSTORE PUSH1 0x20 PUSH1 0x0 KECCAK256 SWAP1 PUSH1 0x0 JUMPDEST PUSH1 0x1F NOT DUP5 AND DUP2 LT PUSH2 0xAEC JUMPI POP PUSH1 0x1 SWAP4 SWAP5 SWAP6 SWAP7 DUP4 PUSH1 0x1F NOT DUP2 AND LT PUSH2 0xAD3 JUMPI JUMPDEST POP POP POP DUP2 SHL ADD PUSH1 0x1 DUP5 ADD SSTORE PUSH2 0x7A8 JUMP JUMPDEST ADD MLOAD PUSH1 0x0 NOT PUSH1 0xF8 DUP5 PUSH1 0x3 SHL AND SHR NOT AND SWAP1 SSTORE DUP6 DUP1 DUP1 PUSH2 0xAC3 JUMP JUMPDEST SWAP1 SWAP2 PUSH1 0x20 PUSH1 0x1 DUP2 SWAP3 DUP6 DUP12 ADD MLOAD DUP2 SSTORE ADD SWAP4 ADD SWAP2 ADD PUSH2 0xAA5 JUMP JUMPDEST PUSH1 0x40 MLOAD PUSH3 0x461BCD PUSH1 0xE5 SHL DUP2 MSTORE PUSH1 0x20 PUSH1 0x4 DUP3 ADD MSTORE PUSH1 0x23 PUSH1 0x24 DUP3 ADD MSTORE PUSH32 0x436F6D706F6E656E7452656769737472793A20696E76616C6964206361746567 PUSH1 0x44 DUP3 ADD MSTORE PUSH3 0x6F7279 PUSH1 0xE8 SHL PUSH1 0x64 DUP3 ADD MSTORE PUSH1 0x84 SWAP1 REVERT JUMPDEST POP PUSH1 0x5 PUSH1 0xFF DUP6 AND GT ISZERO PUSH2 0x6AF JUMP JUMPDEST PUSH1 0x40 MLOAD PUSH3 0x461BCD PUSH1 0xE5 SHL DUP2 MSTORE PUSH1 0x20 PUSH1 0x4 DUP3 ADD MSTORE PUSH1 0x2F PUSH1 0x24 DUP3 ADD MSTORE PUSH32 0x436F6D706F6E656E7452656769737472793A20636F6D706F6E656E7420616C72 PUSH1 0x44 DUP3 ADD MSTORE PUSH15 0x1958591E481C9959DA5CDD195C9959 PUSH1 0x8A SHL PUSH1 0x64 DUP3 ADD MSTORE PUSH1 0x84 SWAP1 REVERT JUMPDEST CALLVALUE PUSH2 0xEB JUMPI PUSH1 0x40 CALLDATASIZE PUSH1 0x3 NOT ADD SLT PUSH2 0xEB JUMPI PUSH1 0x4 CALLDATALOAD PUSH1 0x24 CALLDATALOAD PUSH1 0x1 PUSH1 0x1 PUSH1 0x40 SHL SUB DUP2 GT PUSH2 0xEB JUMPI PUSH1 0x40 PUSH2 0xC16 PUSH32 0xECF9BCE881D49B1C255E2EBAB5F5C40137240A3B7246AB390CF71190662AB5FD SWAP3 CALLDATASIZE SWAP1 PUSH1 0x4 ADD PUSH2 0x1487 JUMP JUMPDEST SWAP2 SWAP1 DUP5 PUSH1 0x0 MSTORE PUSH1 0x0 PUSH1 0x20 MSTORE PUSH2 0xC37 PUSH1 0xFF PUSH1 0x8 DUP5 PUSH1 0x0 KECCAK256 ADD SLOAD PUSH1 0x10 SHR AND PUSH2 0x16A7 JUMP JUMPDEST DUP5 PUSH1 0x0 MSTORE PUSH1 0x0 PUSH1 0x20 MSTORE PUSH1 0x8 DUP3 PUSH1 0x0 KECCAK256 ADD PUSH2 0x100 PUSH2 0xFFFF NOT DUP3 SLOAD AND OR SWAP1 SSTORE DUP3 DUP3 MLOAD SWAP4 DUP5 SWAP3 PUSH1 0x20 DUP5 MSTORE DUP2 PUSH1 0x20 DUP6 ADD MSTORE DUP5 DUP5 ADD CALLDATACOPY PUSH1 0x0 DUP3 DUP3 ADD DUP5 ADD MSTORE PUSH1 0x1F ADD PUSH1 0x1F NOT AND DUP2 ADD SUB ADD SWAP1 LOG2 STOP JUMPDEST CALLVALUE PUSH2 0xEB JUMPI PUSH1 0x20 DUP1 PUSH1 0x3 NOT CALLDATASIZE ADD SLT PUSH2 0xEB JUMPI PUSH1 0x1 PUSH1 0x1 PUSH1 0x40 SHL SUB PUSH1 0x4 CALLDATALOAD DUP2 DUP2 GT PUSH2 0xEB JUMPI PUSH2 0xCB1 SWAP1 CALLDATASIZE SWAP1 PUSH1 0x4 ADD PUSH2 0x1487 JUMP JUMPDEST SWAP1 SWAP2 PUSH1 0x40 MLOAD DUP5 DUP2 ADD SWAP1 DUP4 DUP6 DUP4 CALLDATACOPY PUSH2 0xCE9 PUSH1 0x74 DUP3 DUP7 DUP2 ADD TIMESTAMP DUP11 DUP3 ADD MSTORE PREVRANDAO PUSH1 0x40 DUP3 ADD MSTORE CALLER PUSH1 0x60 SHL PUSH1 0x60 DUP3 ADD MSTORE SUB PUSH1 0x54 DUP2 ADD DUP5 MSTORE ADD DUP3 PUSH2 0x1521 JUMP JUMPDEST MLOAD SWAP1 KECCAK256 SWAP2 DUP3 PUSH1 0x40 MLOAD DUP3 DUP7 DUP3 CALLDATACOPY DUP7 DUP2 DUP5 DUP2 ADD PUSH1 0x4 DUP2 MSTORE SUB ADD SWAP1 KECCAK256 SSTORE DUP3 PUSH1 0x0 MSTORE PUSH1 0x5 DUP6 MSTORE PUSH1 0x40 PUSH1 0x0 KECCAK256 SWAP2 DUP2 GT PUSH2 0x9F6 JUMPI PUSH2 0xD2B DUP2 PUSH2 0xD25 DUP5 SLOAD PUSH2 0x1588 JUMP JUMPDEST DUP5 PUSH2 0x15C2 JUMP JUMPDEST PUSH1 0x0 PUSH1 0x1F DUP3 GT PUSH1 0x1 EQ PUSH2 0xD81 JUMPI DUP2 SWAP3 SWAP4 SWAP5 PUSH1 0x0 SWAP3 PUSH2 0xD76 JUMPI JUMPDEST POP POP DUP2 PUSH1 0x1 SHL SWAP2 PUSH1 0x0 NOT SWAP1 PUSH1 0x3 SHL SHR NOT AND OR SWAP1 SSTORE JUMPDEST DUP1 PUSH1 0x0 MSTORE PUSH1 0x6 DUP3 MSTORE PUSH1 0x40 PUSH1 0x0 KECCAK256 PUSH1 0xFF NOT DUP2 SLOAD AND SWAP1 SSTORE PUSH1 0x40 MLOAD SWAP1 DUP2 MSTORE RETURN JUMPDEST ADD CALLDATALOAD SWAP1 POP DUP6 DUP1 PUSH2 0xD44 JUMP JUMPDEST PUSH1 0x1F NOT DUP3 AND SWAP5 DUP4 PUSH1 0x0 MSTORE DUP7 PUSH1 0x0 KECCAK256 SWAP2 PUSH1 0x0 JUMPDEST DUP9 DUP9 DUP3 LT PUSH2 0xDD0 JUMPI POP POP DUP4 PUSH1 0x1 SWAP6 SWAP7 SWAP8 LT PUSH2 0xDB6 JUMPI JUMPDEST POP POP POP DUP2 SHL ADD SWAP1 SSTORE PUSH2 0xD59 JUMP JUMPDEST ADD CALLDATALOAD PUSH1 0x0 NOT PUSH1 0x3 DUP5 SWAP1 SHL PUSH1 0xF8 AND SHR NOT AND SWAP1 SSTORE DUP6 DUP1 DUP1 PUSH2 0xDA9 JUMP JUMPDEST PUSH1 0x1 DUP4 SWAP6 DUP3 SWAP4 SWAP5 DUP7 ADD CALLDATALOAD DUP2 SSTORE ADD SWAP5 ADD SWAP2 ADD PUSH2 0xD93 JUMP JUMPDEST CALLVALUE PUSH2 0xEB JUMPI PUSH1 0x20 DUP1 PUSH1 0x3 NOT CALLDATASIZE ADD SLT PUSH2 0xEB JUMPI PUSH1 0x1 PUSH1 0x1 PUSH1 0xA0 SHL SUB PUSH2 0xE08 PUSH2 0x1471 JUMP JUMPDEST AND PUSH1 0x0 MSTORE PUSH1 0x3 DUP2 MSTORE PUSH1 0x40 PUSH1 0x0 KECCAK256 PUSH1 0x40 MLOAD SWAP1 DUP2 DUP4 DUP3 SLOAD SWAP2 DUP3 DUP2 MSTORE ADD SWAP1 DUP2 SWAP3 PUSH1 0x0 MSTORE DUP5 PUSH1 0x0 KECCAK256 SWAP1 PUSH1 0x0 JUMPDEST DUP7 DUP3 DUP3 LT PUSH2 0xE86 JUMPI DUP7 DUP7 PUSH2 0xE46 DUP3 DUP9 SUB DUP4 PUSH2 0x1521 JUMP JUMPDEST PUSH1 0x40 MLOAD SWAP3 DUP4 SWAP3 DUP2 DUP5 ADD SWAP1 DUP3 DUP6 MSTORE MLOAD DUP1 SWAP2 MSTORE PUSH1 0x40 DUP5 ADD SWAP3 SWAP2 PUSH1 0x0 JUMPDEST DUP3 DUP2 LT PUSH2 0xE6F JUMPI POP POP POP POP SUB SWAP1 RETURN JUMPDEST DUP4 MLOAD DUP6 MSTORE DUP7 SWAP6 POP SWAP4 DUP2 ADD SWAP4 SWAP3 DUP2 ADD SWAP3 PUSH1 0x1 ADD PUSH2 0xE60 JUMP JUMPDEST DUP4 SLOAD DUP6 MSTORE SWAP1 SWAP4 ADD SWAP3 PUSH1 0x1 SWAP3 DUP4 ADD SWAP3 ADD PUSH2 0xE30 JUMP JUMPDEST CALLVALUE PUSH2 0xEB JUMPI PUSH1 0x20 DUP1 PUSH1 0x3 NOT CALLDATASIZE ADD SLT PUSH2 0xEB JUMPI PUSH1 0x1 PUSH1 0x1 PUSH1 0xA0 SHL SUB PUSH2 0xEBC PUSH2 0x1471 JUMP JUMPDEST AND DUP1 PUSH1 0x0 MSTORE PUSH1 0x3 DUP3 MSTORE PUSH1 0x40 PUSH1 0x0 KECCAK256 SWAP2 PUSH1 0x40 MLOAD DUP1 DUP5 DUP4 DUP3 SWAP7 SLOAD SWAP4 DUP5 DUP2 MSTORE ADD SWAP1 PUSH1 0x0 MSTORE DUP4 PUSH1 0x0 KECCAK256 SWAP3 PUSH1 0x0 JUMPDEST DUP6 DUP3 DUP3 LT PUSH2 0x1030 JUMPI POP POP POP PUSH2 0xEFC SWAP3 POP SUB DUP5 PUSH2 0x1521 JUMP JUMPDEST PUSH1 0x0 JUMPDEST DUP4 MLOAD DUP2 LT ISZERO PUSH2 0x1002 JUMPI DUP1 PUSH2 0xF16 PUSH2 0xF39 SWAP3 DUP7 PUSH2 0x17E2 JUMP JUMPDEST MLOAD PUSH1 0x0 MSTORE PUSH1 0x0 DUP4 MSTORE PUSH1 0x8 PUSH1 0xFF DUP2 PUSH1 0x40 PUSH1 0x0 KECCAK256 ADD SLOAD PUSH1 0x10 SHR AND PUSH2 0xF3E JUMPI JUMPDEST POP PUSH2 0x17BD JUMP JUMPDEST PUSH2 0xEFF JUMP JUMPDEST PUSH2 0xF48 DUP3 DUP8 PUSH2 0x17E2 JUMP JUMPDEST MLOAD PUSH1 0x0 MSTORE PUSH1 0x0 DUP5 MSTORE DUP1 PUSH1 0x40 PUSH1 0x0 KECCAK256 ADD PUSH2 0x100 PUSH2 0xFF00 NOT DUP3 SLOAD AND OR SWAP1 SSTORE PUSH2 0xF6E DUP3 DUP8 PUSH2 0x17E2 JUMP JUMPDEST MLOAD PUSH1 0x0 MSTORE PUSH1 0x0 DUP5 MSTORE PUSH1 0x40 PUSH1 0x0 KECCAK256 ADD PUSH1 0xFF NOT DUP2 SLOAD AND SWAP1 SSTORE PUSH2 0xF8E DUP2 DUP7 PUSH2 0x17E2 JUMP JUMPDEST MLOAD PUSH32 0xECF9BCE881D49B1C255E2EBAB5F5C40137240A3B7246AB390CF71190662AB5FD PUSH1 0x80 PUSH1 0x40 MLOAD DUP7 DUP2 MSTORE PUSH1 0x2E DUP8 DUP3 ADD MSTORE PUSH32 0x526563757273697665207265766F636174696F6E3A206D616E75666163747572 PUSH1 0x40 DUP3 ADD MSTORE PUSH14 0x195C8818DBDB5C1C9BDB5A5CD959 PUSH1 0x92 SHL PUSH1 0x60 DUP3 ADD MSTORE LOG2 DUP6 PUSH2 0xF33 JUMP JUMPDEST POP PUSH32 0xB81E65C78EA359C8EEDED85C51FD0E43408E3802718698F821BB9E4F0BC5E0B7 SWAP2 SWAP3 MLOAD PUSH1 0x40 MLOAD SWAP1 DUP2 MSTORE LOG2 STOP JUMPDEST DUP6 SLOAD DUP5 MSTORE PUSH1 0x1 SWAP6 DUP7 ADD SWAP6 DUP10 SWAP6 POP SWAP4 ADD SWAP3 ADD PUSH2 0xEE5 JUMP JUMPDEST CALLVALUE PUSH2 0xEB JUMPI PUSH1 0x20 CALLDATASIZE PUSH1 0x3 NOT ADD SLT PUSH2 0xEB JUMPI PUSH1 0x0 PUSH2 0x180 PUSH1 0x40 MLOAD PUSH2 0x1068 DUP2 PUSH2 0x14EA JUMP JUMPDEST DUP3 DUP2 MSTORE PUSH1 0x60 PUSH1 0x20 DUP3 ADD MSTORE DUP3 PUSH1 0x40 DUP3 ADD MSTORE DUP3 PUSH1 0x60 DUP3 ADD MSTORE DUP3 PUSH1 0x80 DUP3 ADD MSTORE DUP3 PUSH1 0xA0 DUP3 ADD MSTORE DUP3 PUSH1 0xC0 DUP3 ADD MSTORE DUP3 PUSH1 0xE0 DUP3 ADD MSTORE PUSH1 0x60 PUSH2 0x100 DUP3 ADD MSTORE DUP3 PUSH2 0x120 DUP3 ADD MSTORE DUP3 PUSH2 0x140 DUP3 ADD MSTORE DUP3 PUSH2 0x160 DUP3 ADD MSTORE ADD MSTORE PUSH1 0x4 CALLDATALOAD PUSH1 0x0 MSTORE PUSH1 0x0 PUSH1 0x20 MSTORE PUSH2 0x10D7 PUSH1 0xFF PUSH1 0x8 PUSH1 0x40 PUSH1 0x0 KECCAK256 ADD SLOAD PUSH1 0x10 SHR AND PUSH2 0x16A7 JUMP JUMPDEST PUSH1 0x4 CALLDATALOAD PUSH1 0x0 MSTORE PUSH1 0x0 PUSH1 0x20 MSTORE PUSH1 0x40 PUSH1 0x0 KECCAK256 PUSH1 0xFF PUSH1 0x8 PUSH1 0x40 MLOAD SWAP3 PUSH2 0x10F8 DUP5 PUSH2 0x14EA JUMP JUMPDEST DUP1 SLOAD DUP5 MSTORE PUSH2 0x1108 PUSH1 0x1 DUP3 ADD PUSH2 0x1702 JUMP JUMPDEST PUSH1 0x20 DUP6 ADD MSTORE PUSH1 0x2 DUP2 ADD SLOAD PUSH1 0x1 PUSH1 0x1 PUSH1 0xA0 SHL SUB SWAP1 DUP2 AND PUSH1 0x40 DUP7 ADD MSTORE PUSH1 0x3 DUP3 ADD SLOAD PUSH1 0x60 DUP7 ADD MSTORE PUSH1 0x4 DUP3 ADD SLOAD SWAP1 DUP2 AND PUSH1 0x80 DUP7 ADD MSTORE PUSH1 0xA0 SWAP1 DUP2 SHR DUP5 AND SWAP1 DUP6 ADD MSTORE PUSH1 0x5 DUP2 ADD SLOAD PUSH1 0xC0 DUP6 ADD MSTORE PUSH1 0x6 DUP2 ADD SLOAD PUSH1 0xE0 DUP6 ADD MSTORE PUSH2 0x1164 PUSH1 0x7 DUP3 ADD PUSH2 0x1702 JUMP JUMPDEST PUSH2 0x100 DUP6 ADD MSTORE ADD SLOAD DUP2 DUP2 AND ISZERO ISZERO PUSH2 0x120 DUP5 ADD MSTORE DUP2 DUP2 PUSH1 0x8 SHR AND ISZERO ISZERO PUSH2 0x140 DUP5 ADD MSTORE PUSH1 0x10 SHR AND ISZERO ISZERO PUSH2 0x160 DUP3 ADD MSTORE PUSH1 0x0 PUSH2 0x180 DUP3 ADD MSTORE PUSH1 0x4 CALLDATALOAD PUSH1 0x0 MSTORE PUSH1 0x1 PUSH1 0x20 MSTORE PUSH1 0x40 PUSH1 0x0 KECCAK256 DUP1 SLOAD PUSH2 0x11B4 DUP2 PUSH2 0x17A6 JUMP JUMPDEST SWAP1 PUSH2 0x11C2 PUSH1 0x40 MLOAD SWAP3 DUP4 PUSH2 0x1521 JUMP JUMPDEST DUP1 DUP3 MSTORE PUSH1 0x20 DUP3 ADD DUP1 SWAP4 PUSH1 0x0 MSTORE PUSH1 0x20 PUSH1 0x0 KECCAK256 PUSH1 0x0 SWAP2 JUMPDEST DUP4 DUP4 LT PUSH2 0x1367 JUMPI POP POP POP POP PUSH1 0x0 SWAP2 PUSH1 0x0 JUMPDEST DUP3 MLOAD DUP2 LT ISZERO PUSH2 0x135F JUMPI PUSH1 0x80 PUSH2 0x11FD DUP3 DUP6 PUSH2 0x17E2 JUMP JUMPDEST MLOAD ADD MLOAD ISZERO PUSH2 0x1213 JUMPI PUSH2 0x120E SWAP1 PUSH2 0x17BD JUMP JUMPDEST PUSH2 0x11E8 JUMP JUMPDEST POP SWAP1 SWAP2 POP PUSH1 0x1 JUMPDEST PUSH1 0x20 PUSH1 0x40 MLOAD SWAP4 PUSH1 0x60 DUP6 MSTORE DUP6 MLOAD PUSH1 0x60 DUP7 ADD MSTORE PUSH2 0x180 PUSH2 0x12B5 PUSH2 0x124B DUP5 DUP10 ADD MLOAD PUSH2 0x1A0 PUSH1 0x80 DUP11 ADD MSTORE PUSH2 0x200 DUP10 ADD SWAP1 PUSH2 0x1431 JUMP JUMPDEST PUSH1 0x1 DUP1 PUSH1 0xA0 SHL SUB PUSH1 0x40 DUP11 ADD MLOAD AND PUSH1 0xA0 DUP10 ADD MSTORE PUSH1 0x60 DUP10 ADD MLOAD PUSH1 0xC0 DUP10 ADD MSTORE PUSH1 0x1 DUP1 PUSH1 0xA0 SHL SUB PUSH1 0x80 DUP11 ADD MLOAD AND PUSH1 0xE0 DUP10 ADD MSTORE PUSH1 0xFF PUSH1 0xA0 DUP11 ADD MLOAD AND PUSH2 0x100 DUP10 ADD MSTORE PUSH1 0xC0 DUP10 ADD MLOAD PUSH2 0x120 DUP10 ADD MSTORE PUSH1 0xE0 DUP10 ADD MLOAD PUSH2 0x140 DUP10 ADD MSTORE PUSH2 0x100 DUP10 ADD MLOAD PUSH1 0x5F NOT DUP10 DUP4 SUB ADD PUSH2 0x160 DUP11 ADD MSTORE PUSH2 0x1431 JUMP JUMPDEST SWAP7 PUSH2 0x120 DUP2 ADD MLOAD ISZERO ISZERO DUP3 DUP9 ADD MSTORE PUSH2 0x140 DUP2 ADD MLOAD ISZERO ISZERO PUSH2 0x1A0 DUP9 ADD MSTORE PUSH2 0x160 DUP2 ADD MLOAD ISZERO ISZERO PUSH2 0x1C0 DUP9 ADD MSTORE ADD MLOAD ISZERO ISZERO PUSH2 0x1E0 DUP7 ADD MSTORE DUP5 DUP7 SUB DUP3 DUP7 ADD MSTORE MLOAD SWAP5 DUP6 DUP2 MSTORE ADD SWAP2 PUSH1 0x0 SWAP5 JUMPDEST DUP1 DUP7 LT PUSH2 0x1311 JUMPI POP POP DUP3 SWAP4 POP ISZERO ISZERO PUSH1 0x40 DUP4 ADD MSTORE SUB SWAP1 RETURN JUMPDEST SWAP1 SWAP3 PUSH1 0x20 PUSH1 0xA0 PUSH1 0x1 SWAP3 PUSH1 0x80 DUP8 MLOAD DUP6 DUP1 DUP6 SHL SUB DUP2 MLOAD AND DUP4 MSTORE DUP6 DUP1 DUP6 SHL SUB DUP6 DUP3 ADD MLOAD AND DUP6 DUP5 ADD MSTORE PUSH1 0x40 DUP2 ADD MLOAD PUSH1 0x40 DUP5 ADD MSTORE PUSH1 0x60 DUP2 ADD MLOAD PUSH1 0x60 DUP5 ADD MSTORE ADD MLOAD ISZERO ISZERO PUSH1 0x80 DUP3 ADD MSTORE ADD SWAP5 ADD SWAP6 ADD SWAP5 SWAP1 PUSH2 0x12FA JUMP JUMPDEST POP SWAP1 SWAP2 PUSH2 0x121A JUMP JUMPDEST PUSH1 0x5 PUSH1 0x20 PUSH1 0x1 SWAP3 PUSH1 0x40 MLOAD PUSH2 0x137A DUP2 PUSH2 0x1506 JUMP JUMPDEST DUP5 DUP1 PUSH1 0xA0 SHL SUB DUP7 SLOAD AND DUP2 MSTORE DUP5 DUP1 PUSH1 0xA0 SHL SUB DUP6 DUP8 ADD SLOAD AND DUP4 DUP3 ADD MSTORE PUSH1 0x2 DUP7 ADD SLOAD PUSH1 0x40 DUP3 ADD MSTORE PUSH1 0x3 DUP7 ADD SLOAD PUSH1 0x60 DUP3 ADD MSTORE PUSH1 0xFF PUSH1 0x4 DUP8 ADD SLOAD AND ISZERO ISZERO PUSH1 0x80 DUP3 ADD MSTORE DUP2 MSTORE ADD SWAP3 ADD SWAP3 ADD SWAP2 SWAP1 PUSH2 0x11D7 JUMP JUMPDEST CALLVALUE PUSH2 0xEB JUMPI PUSH1 0x20 CALLDATASIZE PUSH1 0x3 NOT ADD SLT PUSH2 0xEB JUMPI PUSH1 0x4 CALLDATALOAD PUSH1 0x7 SLOAD DUP2 LT ISZERO PUSH2 0xEB JUMPI PUSH1 0x20 SWAP1 PUSH1 0x7 PUSH1 0x0 MSTORE PUSH32 0xA66CC928B5EDB82AF9BD49922954155AB7B0942694BEA4CE44661D9A8736C688 ADD SLOAD PUSH1 0x40 MLOAD SWAP1 DUP2 MSTORE RETURN JUMPDEST CALLVALUE PUSH2 0xEB JUMPI PUSH1 0x0 CALLDATASIZE PUSH1 0x3 NOT ADD SLT PUSH2 0xEB JUMPI PUSH1 0x20 SWAP1 PUSH1 0x7 SLOAD DUP2 MSTORE RETURN JUMPDEST SWAP2 SWAP1 DUP3 MLOAD SWAP3 DUP4 DUP3 MSTORE PUSH1 0x0 JUMPDEST DUP5 DUP2 LT PUSH2 0x145D JUMPI POP POP DUP3 PUSH1 0x0 PUSH1 0x20 DUP1 SWAP5 SWAP6 DUP5 ADD ADD MSTORE PUSH1 0x1F DUP1 NOT SWAP2 ADD AND ADD ADD SWAP1 JUMP JUMPDEST PUSH1 0x20 DUP2 DUP4 ADD DUP2 ADD MLOAD DUP5 DUP4 ADD DUP3 ADD MSTORE ADD PUSH2 0x143C JUMP JUMPDEST PUSH1 0x4 CALLDATALOAD SWAP1 PUSH1 0x1 PUSH1 0x1 PUSH1 0xA0 SHL SUB DUP3 AND DUP3 SUB PUSH2 0xEB JUMPI JUMP JUMPDEST SWAP2 DUP2 PUSH1 0x1F DUP5 ADD SLT ISZERO PUSH2 0xEB JUMPI DUP3 CALLDATALOAD SWAP2 PUSH1 0x1 PUSH1 0x1 PUSH1 0x40 SHL SUB DUP4 GT PUSH2 0xEB JUMPI PUSH1 0x20 DUP4 DUP2 DUP7 ADD SWAP6 ADD ADD GT PUSH2 0xEB JUMPI JUMP JUMPDEST SWAP1 DUP2 MLOAD DUP1 DUP3 MSTORE PUSH1 0x20 DUP1 DUP1 SWAP4 ADD SWAP4 ADD SWAP2 PUSH1 0x0 JUMPDEST DUP3 DUP2 LT PUSH2 0x14D4 JUMPI POP POP POP POP SWAP1 JUMP JUMPDEST DUP4 MLOAD ISZERO ISZERO DUP6 MSTORE SWAP4 DUP2 ADD SWAP4 SWAP3 DUP2 ADD SWAP3 PUSH1 0x1 ADD PUSH2 0x14C6 JUMP JUMPDEST PUSH2 0x1A0 DUP2 ADD SWAP1 DUP2 LT PUSH1 0x1 PUSH1 0x1 PUSH1 0x40 SHL SUB DUP3 GT OR PUSH2 0x9F6 JUMPI PUSH1 0x40 MSTORE JUMP JUMPDEST PUSH1 0xA0 DUP2 ADD SWAP1 DUP2 LT PUSH1 0x1 PUSH1 0x1 PUSH1 0x40 SHL SUB DUP3 GT OR PUSH2 0x9F6 JUMPI PUSH1 0x40 MSTORE JUMP JUMPDEST SWAP1 PUSH1 0x1F DUP1 NOT SWAP2 ADD AND DUP2 ADD SWAP1 DUP2 LT PUSH1 0x1 PUSH1 0x1 PUSH1 0x40 SHL SUB DUP3 GT OR PUSH2 0x9F6 JUMPI PUSH1 0x40 MSTORE JUMP JUMPDEST SWAP3 SWAP2 SWAP3 PUSH1 0x1 PUSH1 0x1 PUSH1 0x40 SHL SUB DUP3 GT PUSH2 0x9F6 JUMPI PUSH1 0x40 MLOAD SWAP2 PUSH2 0x156B PUSH1 0x1F DUP3 ADD PUSH1 0x1F NOT AND PUSH1 0x20 ADD DUP5 PUSH2 0x1521 JUMP JUMPDEST DUP3 SWAP5 DUP2 DUP5 MSTORE DUP2 DUP4 ADD GT PUSH2 0xEB JUMPI DUP3 DUP2 PUSH1 0x20 SWAP4 DUP5 PUSH1 0x0 SWAP7 ADD CALLDATACOPY ADD ADD MSTORE JUMP JUMPDEST SWAP1 PUSH1 0x1 DUP3 DUP2 SHR SWAP3 AND DUP1 ISZERO PUSH2 0x15B8 JUMPI JUMPDEST PUSH1 0x20 DUP4 LT EQ PUSH2 0x15A2 JUMPI JUMP JUMPDEST PUSH4 0x4E487B71 PUSH1 0xE0 SHL PUSH1 0x0 MSTORE PUSH1 0x22 PUSH1 0x4 MSTORE PUSH1 0x24 PUSH1 0x0 REVERT JUMPDEST SWAP2 PUSH1 0x7F AND SWAP2 PUSH2 0x1597 JUMP JUMPDEST SWAP1 PUSH1 0x1F DUP2 GT PUSH2 0x15D0 JUMPI POP POP POP JUMP JUMPDEST PUSH1 0x0 SWAP2 DUP3 MSTORE PUSH1 0x20 DUP3 KECCAK256 SWAP1 PUSH1 0x20 PUSH1 0x1F DUP6 ADD PUSH1 0x5 SHR DUP4 ADD SWAP5 LT PUSH2 0x160C JUMPI JUMPDEST PUSH1 0x1F ADD PUSH1 0x5 SHR ADD SWAP2 JUMPDEST DUP3 DUP2 LT PUSH2 0x1601 JUMPI POP POP POP JUMP JUMPDEST DUP2 DUP2 SSTORE PUSH1 0x1 ADD PUSH2 0x15F5 JUMP JUMPDEST SWAP1 SWAP3 POP DUP3 SWAP1 PUSH2 0x15EC JUMP JUMPDEST SWAP1 DUP2 SLOAD PUSH1 0x1 PUSH1 0x40 SHL DUP2 LT ISZERO PUSH2 0x9F6 JUMPI PUSH1 0x1 DUP2 ADD DUP1 DUP5 SSTORE DUP2 LT ISZERO PUSH2 0x9E0 JUMPI PUSH1 0x80 PUSH1 0x4 SWAP2 PUSH2 0x16A5 SWAP5 PUSH1 0x0 MSTORE PUSH1 0x5 PUSH1 0x20 PUSH1 0x0 KECCAK256 SWAP2 MUL ADD SWAP3 PUSH1 0x1 DUP1 PUSH1 0xA0 SHL SUB DUP1 DUP3 MLOAD AND PUSH1 0x1 PUSH1 0x1 PUSH1 0x60 SHL SUB PUSH1 0xA0 SHL SWAP1 DUP2 DUP8 SLOAD AND OR DUP7 SSTORE PUSH1 0x1 DUP7 ADD SWAP2 PUSH1 0x20 DUP5 ADD MLOAD AND SWAP1 DUP3 SLOAD AND OR SWAP1 SSTORE PUSH1 0x40 DUP2 ADD MLOAD PUSH1 0x2 DUP6 ADD SSTORE PUSH1 0x60 DUP2 ADD MLOAD PUSH1 0x3 DUP6 ADD SSTORE ADD MLOAD ISZERO ISZERO SWAP2 ADD SWAP1 PUSH1 0xFF DUP1 NOT DUP4 SLOAD AND SWAP2 ISZERO ISZERO AND OR SWAP1 SSTORE JUMP JUMPDEST JUMP JUMPDEST ISZERO PUSH2 0x16AE JUMPI JUMP JUMPDEST PUSH1 0x40 MLOAD PUSH3 0x461BCD PUSH1 0xE5 SHL DUP2 MSTORE PUSH1 0x20 PUSH1 0x4 DUP3 ADD MSTORE PUSH1 0x26 PUSH1 0x24 DUP3 ADD MSTORE PUSH32 0x436F6D706F6E656E7452656769737472793A20636F6D706F6E656E74206E6F74 PUSH1 0x44 DUP3 ADD MSTORE PUSH6 0x8199BDD5B99 PUSH1 0xD2 SHL PUSH1 0x64 DUP3 ADD MSTORE PUSH1 0x84 SWAP1 REVERT JUMPDEST SWAP1 PUSH1 0x40 MLOAD SWAP2 DUP3 PUSH1 0x0 DUP3 SLOAD SWAP3 PUSH2 0x1716 DUP5 PUSH2 0x1588 JUMP JUMPDEST SWAP1 DUP2 DUP5 MSTORE PUSH1 0x1 SWAP5 DUP6 DUP2 AND SWAP1 DUP2 PUSH1 0x0 EQ PUSH2 0x1783 JUMPI POP PUSH1 0x1 EQ PUSH2 0x1740 JUMPI JUMPDEST POP POP PUSH2 0x16A5 SWAP3 POP SUB DUP4 PUSH2 0x1521 JUMP JUMPDEST SWAP1 SWAP4 SWAP2 POP PUSH1 0x0 MSTORE PUSH1 0x20 SWAP1 DUP2 PUSH1 0x0 KECCAK256 SWAP4 PUSH1 0x0 SWAP2 JUMPDEST DUP2 DUP4 LT PUSH2 0x176B JUMPI POP POP PUSH2 0x16A5 SWAP4 POP DUP3 ADD ADD CODESIZE DUP1 PUSH2 0x1732 JUMP JUMPDEST DUP6 SLOAD DUP9 DUP5 ADD DUP6 ADD MSTORE SWAP5 DUP6 ADD SWAP5 DUP8 SWAP5 POP SWAP2 DUP4 ADD SWAP2 PUSH2 0x1753 JUMP JUMPDEST SWAP2 POP POP PUSH2 0x16A5 SWAP5 POP PUSH1 0x20 SWAP3 POP PUSH1 0xFF NOT AND DUP3 DUP5 ADD MSTORE ISZERO ISZERO PUSH1 0x5 SHL DUP3 ADD ADD CODESIZE DUP1 PUSH2 0x1732 JUMP JUMPDEST PUSH1 0x1 PUSH1 0x1 PUSH1 0x40 SHL SUB DUP2 GT PUSH2 0x9F6 JUMPI PUSH1 0x5 SHL PUSH1 0x20 ADD SWAP1 JUMP JUMPDEST PUSH1 0x0 NOT DUP2 EQ PUSH2 0x17CC JUMPI PUSH1 0x1 ADD SWAP1 JUMP JUMPDEST PUSH4 0x4E487B71 PUSH1 0xE0 SHL PUSH1 0x0 MSTORE PUSH1 0x11 PUSH1 0x4 MSTORE PUSH1 0x24 PUSH1 0x0 REVERT JUMPDEST DUP1 MLOAD DUP3 LT ISZERO PUSH2 0x9E0 JUMPI PUSH1 0x20 SWAP2 PUSH1 0x5 SHL ADD ADD SWAP1 JUMP JUMPDEST SWAP1 PUSH2 0x1800 DUP3 PUSH2 0x17A6 JUMP JUMPDEST PUSH2 0x180D PUSH1 0x40 MLOAD SWAP2 DUP3 PUSH2 0x1521 JUMP JUMPDEST DUP3 DUP2 MSTORE DUP1 SWAP3 PUSH2 0x181E PUSH1 0x1F NOT SWAP2 PUSH2 0x17A6 JUMP JUMPDEST ADD SWAP1 PUSH1 0x20 CALLDATASIZE SWAP2 ADD CALLDATACOPY JUMP JUMPDEST SWAP2 SWAP1 DUP2 LT ISZERO PUSH2 0x9E0 JUMPI PUSH1 0x5 SHL ADD SWAP1 JUMP JUMPDEST SWAP1 PUSH1 0x40 SWAP3 DUP4 MLOAD SWAP2 DUP1 DUP5 DUP5 CALLDATACOPY DUP2 DUP4 DUP3 DUP2 ADD PUSH1 0x4 DUP2 MSTORE PUSH1 0x20 SWAP6 DUP7 SWAP2 SUB ADD SWAP1 KECCAK256 SLOAD SUB PUSH2 0x1900 JUMPI PUSH1 0x0 SWAP4 DUP3 DUP6 MSTORE PUSH1 0x5 DUP5 MSTORE PUSH2 0x1870 DUP7 DUP7 KECCAK256 PUSH2 0x1702 JUMP JUMPDEST DUP5 DUP2 MLOAD SWAP2 ADD KECCAK256 PUSH2 0x1881 CALLDATASIZE DUP5 DUP5 PUSH2 0x1542 JUMP JUMPDEST DUP6 DUP2 MLOAD SWAP2 ADD KECCAK256 SUB PUSH2 0x18B8 JUMPI DUP3 DUP6 MSTORE PUSH1 0x6 DUP5 MSTORE PUSH1 0xFF DUP7 DUP7 KECCAK256 SLOAD AND PUSH2 0x18B8 JUMPI POP POP SWAP1 PUSH1 0x6 SWAP2 DUP4 MSTORE MSTORE KECCAK256 PUSH1 0x1 PUSH1 0xFF NOT DUP3 SLOAD AND OR SWAP1 SSTORE PUSH1 0x1 SWAP1 JUMP JUMPDEST DUP6 SWAP4 POP DUP2 PUSH32 0xD9B479AE5348517DC8D8BDBDAACB5E4244AAAB3CAB0C2BD58095758E83EC1181 SWAP4 SWAP6 SWAP7 MLOAD SWAP3 DUP4 SWAP3 DUP4 CALLDATACOPY DUP2 ADD DUP7 DUP2 MSTORE SUB SWAP1 KECCAK256 SWAP2 MLOAD CALLER DUP2 MSTORE TIMESTAMP PUSH1 0x20 DUP3 ADD MSTORE PUSH1 0x40 SWAP1 LOG3 SWAP1 JUMP JUMPDEST SWAP1 SWAP4 SWAP3 PUSH32 0xD9B479AE5348517DC8D8BDBDAACB5E4244AAAB3CAB0C2BD58095758E83EC1181 SWAP3 POP DUP2 DUP5 MLOAD SWAP3 DUP4 SWAP3 DUP4 CALLDATACOPY PUSH1 0x0 SWAP1 DUP3 ADD SWAP1 DUP2 MSTORE SUB SWAP1 KECCAK256 SWAP2 MLOAD CALLER DUP2 MSTORE TIMESTAMP PUSH1 0x20 DUP3 ADD MSTORE PUSH1 0x40 SWAP1 LOG3 PUSH1 0x0 SWAP1 JUMP INVALID LOG2 PUSH5 0x6970667358 0x22 SLT KECCAK256 MOD PUSH14 0x50A79E00BC3539809642AE94EAD7 0xA8 0x2F RETURN 0x21 PUSH5 0xA13F76ACAA SDIV 0xC8 MSTORE8 EXTCODESIZE 0xCE SWAP4 PUSH5 0x736F6C6343 STOP ADDMOD EQ STOP CALLER "},"methodIdentifiers":{"allComponentIds(uint256)":"2a6f067a","batchVerify(bytes32[])":"c8fa6157","flagSuspicious(bytes32,string)":"5c4be6ec","generateHoneyToken(string)":"5738bf82","getComponentBasic(bytes32)":"b05d439b","getFullHistory(bytes32)":"418ea659","getManufacturerComponents(address)":"5470635c","getTotalComponents()":"238bdbf3","queryHoneyToken(string,bytes32)":"f7aa51d4","recursiveRevocation(address)":"4c8e73ce","registerComponent(bytes32,string,uint8,uint256,bytes32,string)":"81229c57","transferOwnership(bytes32,address,bytes32,bool)":"97eb0cf9"}}}}}