{"contracts/AuditLog.sol":{"AuditLog":{"abi":[{"inputs":[{"internalType":"address","name":"_procurementGate","type":"address"}],"stateMutability":"nonpayable","type":"constructor"},{"anonymous":false,"inputs":[{"indexed":true,"internalType":"uint256","name":"index","type":"uint256"},{"indexed":false,"internalType":"string","name":"eventType","type":"string"},{"indexed":true,"internalType":"address","name":"actor","type":"address"},{"indexed":true,"internalType":"bytes32","name":"componentId","type":"bytes32"},{"indexed":false,"internalType":"uint256","name":"timestamp","type":"uint256"},{"indexed":false,"internalType":"uint256","name":"blockNumber","type":"uint256"},{"indexed":false,"internalType":"string","name":"outcome","type":"string"},{"indexed":false,"internalType":"string","name":"denialReason","type":"string"},{"indexed":false,"internalType":"string[]","name":"anomalyFlags","type":"string[]"},{"indexed":false,"internalType":"bytes32","name":"locationHash","type":"bytes32"},{"indexed":false,"internalType":"bytes32","name":"rootHash","type":"bytes32"}],"name":"LogEntryAdded","type":"event"},{"anonymous":false,"inputs":[{"indexed":true,"internalType":"address","name":"gate","type":"address"}],"name":"ProcurementGateSet","type":"event"},{"inputs":[{"internalType":"string","name":"eventType","type":"string"},{"internalType":"address","name":"actor","type":"address"},{"internalType":"bytes32","name":"componentId","type":"bytes32"},{"internalType":"string","name":"outcome","type":"string"},{"internalType":"string","name":"denialReason","type":"string"},{"internalType":"string[]","name":"anomalyFlags","type":"string[]"},{"internalType":"bytes32","name":"locationHash","type":"bytes32"}],"name":"addEntry","outputs":[{"internalType":"uint256","name":"","type":"uint256"}],"stateMutability":"nonpayable","type":"function"},{"inputs":[],"name":"entryCount","outputs":[{"internalType":"uint256","name":"","type":"uint256"}],"stateMutability":"view","type":"function"},{"inputs":[{"internalType":"uint256","name":"","type":"uint256"}],"name":"entryRootHashes","outputs":[{"internalType":"bytes32","name":"","type":"bytes32"}],"stateMutability":"view","type":"function"},{"inputs":[{"internalType":"uint256","name":"index","type":"uint256"}],"name":"getRootHash","outputs":[{"internalType":"bytes32","name":"","type":"bytes32"}],"stateMutability":"view","type":"function"},{"inputs":[],"name":"procurementGate","outputs":[{"internalType":"address","name":"","type":"address"}],"stateMutability":"view","type":"function"},{"inputs":[{"internalType":"address","name":"_gate","type":"address"}],"name":"setProcurementGate","outputs":[],"stateMutability":"nonpayable","type":"function"},{"inputs":[{"internalType":"uint256","name":"index","type":"uint256"},{"internalType":"string","name":"eventType","type":"string"},{"internalType":"address","name":"actor","type":"address"},{"internalType":"bytes32","name":"componentId","type":"bytes32"},{"internalType":"uint256","name":"timestamp","type":"uint256"},{"internalType":"uint256","name":"blockNumber","type":"uint256"},{"internalType":"string","name":"outcome","type":"string"},{"internalType":"string","name":"denialReason","type":"string"},{"internalType":"bytes32","name":"locationHash","type":"bytes32"}],"name":"verifyEntry","outputs":[{"internalType":"bool","name":"","type":"bool"}],"stateMutability":"view","type":"function"}],"evm":{"bytecode":{"linkReferences":{},"object":"60803461009857601f6107a238819003918201601f19168301916001600160401b0383118484101761009d5780849260209460405283398101031261009857516001600160a01b0381169081900361009857600080546001600160a01b0319168217815560405191907f171ca12bddcd7d07a200cba9403cc6c69b9138a97e7ee230184949feb4c6fd489080a26106ee90816100b48239f35b600080fd5b634e487b7160e01b600052604160045260246000fdfe6080604052600436101561001257600080fd5b60003560e01c8063093abc86146105575780630cbb0f83146105395780634d665cf91461046857806373009ea61461017f578063d1a8913314610153578063d3bdc7281461012a5763eac870251461006957600080fd5b34610125576020366003190112610125576004356001600160a01b038181169182900361012557600054908116801590811561011b575b50156100dd576001600160a01b031916811760009081557f171ca12bddcd7d07a200cba9403cc6c69b9138a97e7ee230184949feb4c6fd489080a2005b60405162461bcd60e51b8152602060048201526016602482015275105d591a5d131bd9ce881d5b985d5d1a1bdc9a5e995960521b6044820152606490fd5b90503314386100a0565b600080fd5b34610125576000366003190112610125576000546040516001600160a01b039091168152602090f35b346101255760203660031901126101255760043560005260026020526020604060002054604051908152f35b346101255760e03660031901126101255760043567ffffffffffffffff8111610125576101b0903690600401610590565b906001600160a01b0360243580821690036101255760643567ffffffffffffffff8111610125576101e5903690600401610590565b60849391933567ffffffffffffffff811161012557610208903690600401610590565b67ffffffffffffffff60a435116101255736602360a4350112156101255767ffffffffffffffff60a43560040135116101255736602460a4356004013560051b60a435010111610125578460005416330361041357604051610294816102868a8587898d60c435948d43914291604435916024359160208d016105be565b03601f198101835282610613565b602081519101209360015496876000526002602052856040600020556001549460001986146103fd576102e16102fb93600161030998016001556040519b8c6101008091528d019161064b565b914260208c01524360408c01528a830360608c015261064b565b91878303608089015261064b565b9084820360a086015260a4356004013582526020820191602060a4356004013560051b82010192602460a435019160005b60a43560040135811061039357505050507f57ccca1129f94e4d1ca08235b5ae10106fd34e31ed8521d1c417466b4f65d29f602095859260c43560c083015260e0820152806044359560243516940390a4604051908152f35b90919294601f19838203018452853560421960a4353603018112156101255760a4350167ffffffffffffffff602482013511610125576024810135360360448201136101255760206103f1600193836044602485960135910161064b565b9701940192910161033a565b634e487b7160e01b600052601160045260246000fd5b60405162461bcd60e51b815260206004820152602760248201527f41756469744c6f673a2063616c6c6572206973206e6f742050726f637572656d604482015266656e744761746560c81b6064820152608490fd5b34610125576101203660031901126101255767ffffffffffffffff6004356024358281116101255761049e903690600401610590565b60443593906001600160a01b03851685036101255760c435828111610125576104cb903690600401610590565b91909260e4359081116101255760209661051f936104f0610286933690600401610590565b916104fe6001548b1061066c565b6040519788968c88019a8b610104359760a4359360843593606435936105be565b519020906000526002825260406000205414604051908152f35b34610125576000366003190112610125576020600154604051908152f35b3461012557602036600319011261012557600435610578600154821061066c565b60005260026020526020604060002054604051908152f35b9181601f840112156101255782359167ffffffffffffffff8311610125576020838186019501011161012557565b9382899793958c9b9a9660949e9d9a969894823701956bffffffffffffffffffffffff199060601b16865260148601526034850152605484015260748301370191607483016000815237019060748201520190565b90601f8019910116810190811067ffffffffffffffff82111761063557604052565b634e487b7160e01b600052604160045260246000fd5b908060209392818452848401376000828201840152601f01601f1916010190565b1561067357565b60405162461bcd60e51b815260206004820152601d60248201527f41756469744c6f673a20696e646578206f7574206f6620626f756e64730000006044820152606490fdfea26469706673582212207f85bab5cf9edf4f975f725be87b7e6f82383e41472e49f5ce0dc43b2bbafe7064736f6c63430008140033","opcodes":"PUSH1 0x80 CALLVALUE PUSH2 0x98 JUMPI PUSH1 0x1F PUSH2 0x7A2 CODESIZE DUP2 SWAP1 SUB SWAP2 DUP3 ADD PUSH1 0x1F NOT AND DUP4 ADD SWAP2 PUSH1 0x1 PUSH1 0x1 PUSH1 0x40 SHL SUB DUP4 GT DUP5 DUP5 LT OR PUSH2 0x9D JUMPI DUP1 DUP5 SWAP3 PUSH1 0x20 SWAP5 PUSH1 0x40 MSTORE DUP4 CODECOPY DUP2 ADD SUB SLT PUSH2 0x98 JUMPI MLOAD PUSH1 0x1 PUSH1 0x1 PUSH1 0xA0 SHL SUB DUP2 AND SWAP1 DUP2 SWAP1 SUB PUSH2 0x98 JUMPI PUSH1 0x0 DUP1 SLOAD PUSH1 0x1 PUSH1 0x1 PUSH1 0xA0 SHL SUB NOT AND DUP3 OR DUP2 SSTORE PUSH1 0x40 MLOAD SWAP2 SWAP1 PUSH32 0x171CA12BDDCD7D07A200CBA9403CC6C69B9138A97E7EE230184949FEB4C6FD48 SWAP1 DUP1 LOG2 PUSH2 0x6EE SWAP1 DUP2 PUSH2 0xB4 DUP3 CODECOPY RETURN JUMPDEST PUSH1 0x0 DUP1 REVERT JUMPDEST PUSH4 0x4E487B71 PUSH1 0xE0 SHL PUSH1 0x0 MSTORE PUSH1 0x41 PUSH1 0x4 MSTORE PUSH1 0x24 PUSH1 0x0 REVERT INVALID PUSH1 0x80 PUSH1 0x40 MSTORE PUSH1 0x4 CALLDATASIZE LT ISZERO PUSH2 0x12 JUMPI PUSH1 0x0 DUP1 REVERT JUMPDEST PUSH1 0x0 CALLDATALOAD PUSH1 0xE0 SHR DUP1 PUSH4 0x93ABC86 EQ PUSH2 0x557 JUMPI DUP1 PUSH4 0xCBB0F83 EQ PUSH2 0x539 JUMPI DUP1 PUSH4 0x4D665CF9 EQ PUSH2 0x468 JUMPI DUP1 PUSH4 0x73009EA6 EQ PUSH2 0x17F JUMPI DUP1 PUSH4 0xD1A89133 EQ PUSH2 0x153 JUMPI DUP1 PUSH4 0xD3BDC728 EQ PUSH2 0x12A JUMPI PUSH4 0xEAC87025 EQ PUSH2 0x69 JUMPI PUSH1 0x0 DUP1 REVERT JUMPDEST CALLVALUE PUSH2 0x125 JUMPI PUSH1 0x20 CALLDATASIZE PUSH1 0x3 NOT ADD SLT PUSH2 0x125 JUMPI PUSH1 0x4 CALLDATALOAD PUSH1 0x1 PUSH1 0x1 PUSH1 0xA0 SHL SUB DUP2 DUP2 AND SWAP2 DUP3 SWAP1 SUB PUSH2 0x125 JUMPI PUSH1 0x0 SLOAD SWAP1 DUP2 AND DUP1 ISZERO SWAP1 DUP2 ISZERO PUSH2 0x11B JUMPI JUMPDEST POP ISZERO PUSH2 0xDD JUMPI PUSH1 0x1 PUSH1 0x1 PUSH1 0xA0 SHL SUB NOT AND DUP2 OR PUSH1 0x0 SWAP1 DUP2 SSTORE PUSH32 0x171CA12BDDCD7D07A200CBA9403CC6C69B9138A97E7EE230184949FEB4C6FD48 SWAP1 DUP1 LOG2 STOP JUMPDEST PUSH1 0x40 MLOAD PUSH3 0x461BCD PUSH1 0xE5 SHL DUP2 MSTORE PUSH1 0x20 PUSH1 0x4 DUP3 ADD MSTORE PUSH1 0x16 PUSH1 0x24 DUP3 ADD MSTORE PUSH22 0x105D591A5D131BD9CE881D5B985D5D1A1BDC9A5E9959 PUSH1 0x52 SHL PUSH1 0x44 DUP3 ADD MSTORE PUSH1 0x64 SWAP1 REVERT JUMPDEST SWAP1 POP CALLER EQ CODESIZE PUSH2 0xA0 JUMP JUMPDEST PUSH1 0x0 DUP1 REVERT JUMPDEST CALLVALUE PUSH2 0x125 JUMPI PUSH1 0x0 CALLDATASIZE PUSH1 0x3 NOT ADD SLT PUSH2 0x125 JUMPI PUSH1 0x0 SLOAD PUSH1 0x40 MLOAD PUSH1 0x1 PUSH1 0x1 PUSH1 0xA0 SHL SUB SWAP1 SWAP2 AND DUP2 MSTORE PUSH1 0x20 SWAP1 RETURN JUMPDEST CALLVALUE PUSH2 0x125 JUMPI PUSH1 0x20 CALLDATASIZE PUSH1 0x3 NOT ADD SLT PUSH2 0x125 JUMPI PUSH1 0x4 CALLDATALOAD PUSH1 0x0 MSTORE PUSH1 0x2 PUSH1 0x20 MSTORE PUSH1 0x20 PUSH1 0x40 PUSH1 0x0 KECCAK256 SLOAD PUSH1 0x40 MLOAD SWAP1 DUP2 MSTORE RETURN JUMPDEST CALLVALUE PUSH2 0x125 JUMPI PUSH1 0xE0 CALLDATASIZE PUSH1 0x3 NOT ADD SLT PUSH2 0x125 JUMPI PUSH1 0x4 CALLDATALOAD PUSH8 0xFFFFFFFFFFFFFFFF DUP2 GT PUSH2 0x125 JUMPI PUSH2 0x1B0 SWAP1 CALLDATASIZE SWAP1 PUSH1 0x4 ADD PUSH2 0x590 JUMP JUMPDEST SWAP1 PUSH1 0x1 PUSH1 0x1 PUSH1 0xA0 SHL SUB PUSH1 0x24 CALLDATALOAD DUP1 DUP3 AND SWAP1 SUB PUSH2 0x125 JUMPI PUSH1 0x64 CALLDATALOAD PUSH8 0xFFFFFFFFFFFFFFFF DUP2 GT PUSH2 0x125 JUMPI PUSH2 0x1E5 SWAP1 CALLDATASIZE SWAP1 PUSH1 0x4 ADD PUSH2 0x590 JUMP JUMPDEST PUSH1 0x84 SWAP4 SWAP2 SWAP4 CALLDATALOAD PUSH8 0xFFFFFFFFFFFFFFFF DUP2 GT PUSH2 0x125 JUMPI PUSH2 0x208 SWAP1 CALLDATASIZE SWAP1 PUSH1 0x4 ADD PUSH2 0x590 JUMP JUMPDEST PUSH8 0xFFFFFFFFFFFFFFFF PUSH1 0xA4 CALLDATALOAD GT PUSH2 0x125 JUMPI CALLDATASIZE PUSH1 0x23 PUSH1 0xA4 CALLDATALOAD ADD SLT ISZERO PUSH2 0x125 JUMPI PUSH8 0xFFFFFFFFFFFFFFFF PUSH1 0xA4 CALLDATALOAD PUSH1 0x4 ADD CALLDATALOAD GT PUSH2 0x125 JUMPI CALLDATASIZE PUSH1 0x24 PUSH1 0xA4 CALLDATALOAD PUSH1 0x4 ADD CALLDATALOAD PUSH1 0x5 SHL PUSH1 0xA4 CALLDATALOAD ADD ADD GT PUSH2 0x125 JUMPI DUP5 PUSH1 0x0 SLOAD AND CALLER SUB PUSH2 0x413 JUMPI PUSH1 0x40 MLOAD PUSH2 0x294 DUP2 PUSH2 0x286 DUP11 DUP6 DUP8 DUP10 DUP14 PUSH1 0xC4 CALLDATALOAD SWAP5 DUP14 NUMBER SWAP2 TIMESTAMP SWAP2 PUSH1 0x44 CALLDATALOAD SWAP2 PUSH1 0x24 CALLDATALOAD SWAP2 PUSH1 0x20 DUP14 ADD PUSH2 0x5BE JUMP JUMPDEST SUB PUSH1 0x1F NOT DUP2 ADD DUP4 MSTORE DUP3 PUSH2 0x613 JUMP JUMPDEST PUSH1 0x20 DUP2 MLOAD SWAP2 ADD KECCAK256 SWAP4 PUSH1 0x1 SLOAD SWAP7 DUP8 PUSH1 0x0 MSTORE PUSH1 0x2 PUSH1 0x20 MSTORE DUP6 PUSH1 0x40 PUSH1 0x0 KECCAK256 SSTORE PUSH1 0x1 SLOAD SWAP5 PUSH1 0x0 NOT DUP7 EQ PUSH2 0x3FD JUMPI PUSH2 0x2E1 PUSH2 0x2FB SWAP4 PUSH1 0x1 PUSH2 0x309 SWAP9 ADD PUSH1 0x1 SSTORE PUSH1 0x40 MLOAD SWAP12 DUP13 PUSH2 0x100 DUP1 SWAP2 MSTORE DUP14 ADD SWAP2 PUSH2 0x64B JUMP JUMPDEST SWAP2 TIMESTAMP PUSH1 0x20 DUP13 ADD MSTORE NUMBER PUSH1 0x40 DUP13 ADD MSTORE DUP11 DUP4 SUB PUSH1 0x60 DUP13 ADD MSTORE PUSH2 0x64B JUMP JUMPDEST SWAP2 DUP8 DUP4 SUB PUSH1 0x80 DUP10 ADD MSTORE PUSH2 0x64B JUMP JUMPDEST SWAP1 DUP5 DUP3 SUB PUSH1 0xA0 DUP7 ADD MSTORE PUSH1 0xA4 CALLDATALOAD PUSH1 0x4 ADD CALLDATALOAD DUP3 MSTORE PUSH1 0x20 DUP3 ADD SWAP2 PUSH1 0x20 PUSH1 0xA4 CALLDATALOAD PUSH1 0x4 ADD CALLDATALOAD PUSH1 0x5 SHL DUP3 ADD ADD SWAP3 PUSH1 0x24 PUSH1 0xA4 CALLDATALOAD ADD SWAP2 PUSH1 0x0 JUMPDEST PUSH1 0xA4 CALLDATALOAD PUSH1 0x4 ADD CALLDATALOAD DUP2 LT PUSH2 0x393 JUMPI POP POP POP POP PUSH32 0x57CCCA1129F94E4D1CA08235B5AE10106FD34E31ED8521D1C417466B4F65D29F PUSH1 0x20 SWAP6 DUP6 SWAP3 PUSH1 0xC4 CALLDATALOAD PUSH1 0xC0 DUP4 ADD MSTORE PUSH1 0xE0 DUP3 ADD MSTORE DUP1 PUSH1 0x44 CALLDATALOAD SWAP6 PUSH1 0x24 CALLDATALOAD AND SWAP5 SUB SWAP1 LOG4 PUSH1 0x40 MLOAD SWAP1 DUP2 MSTORE RETURN JUMPDEST SWAP1 SWAP2 SWAP3 SWAP5 PUSH1 0x1F NOT DUP4 DUP3 SUB ADD DUP5 MSTORE DUP6 CALLDATALOAD PUSH1 0x42 NOT PUSH1 0xA4 CALLDATALOAD CALLDATASIZE SUB ADD DUP2 SLT ISZERO PUSH2 0x125 JUMPI PUSH1 0xA4 CALLDATALOAD ADD PUSH8 0xFFFFFFFFFFFFFFFF PUSH1 0x24 DUP3 ADD CALLDATALOAD GT PUSH2 0x125 JUMPI PUSH1 0x24 DUP2 ADD CALLDATALOAD CALLDATASIZE SUB PUSH1 0x44 DUP3 ADD SGT PUSH2 0x125 JUMPI PUSH1 0x20 PUSH2 0x3F1 PUSH1 0x1 SWAP4 DUP4 PUSH1 0x44 PUSH1 0x24 DUP6 SWAP7 ADD CALLDATALOAD SWAP2 ADD PUSH2 0x64B JUMP JUMPDEST SWAP8 ADD SWAP5 ADD SWAP3 SWAP2 ADD PUSH2 0x33A JUMP JUMPDEST PUSH4 0x4E487B71 PUSH1 0xE0 SHL PUSH1 0x0 MSTORE PUSH1 0x11 PUSH1 0x4 MSTORE PUSH1 0x24 PUSH1 0x0 REVERT JUMPDEST PUSH1 0x40 MLOAD PUSH3 0x461BCD PUSH1 0xE5 SHL DUP2 MSTORE PUSH1 0x20 PUSH1 0x4 DUP3 ADD MSTORE PUSH1 0x27 PUSH1 0x24 DUP3 ADD MSTORE PUSH32 0x41756469744C6F673A2063616C6C6572206973206E6F742050726F637572656D PUSH1 0x44 DUP3 ADD MSTORE PUSH7 0x656E7447617465 PUSH1 0xC8 SHL PUSH1 0x64 DUP3 ADD MSTORE PUSH1 0x84 SWAP1 REVERT JUMPDEST CALLVALUE PUSH2 0x125 JUMPI PUSH2 0x120 CALLDATASIZE PUSH1 0x3 NOT ADD SLT PUSH2 0x125 JUMPI PUSH8 0xFFFFFFFFFFFFFFFF PUSH1 0x4 CALLDATALOAD PUSH1 0x24 CALLDATALOAD DUP3 DUP2 GT PUSH2 0x125 JUMPI PUSH2 0x49E SWAP1 CALLDATASIZE SWAP1 PUSH1 0x4 ADD PUSH2 0x590 JUMP JUMPDEST PUSH1 0x44 CALLDATALOAD SWAP4 SWAP1 PUSH1 0x1 PUSH1 0x1 PUSH1 0xA0 SHL SUB DUP6 AND DUP6 SUB PUSH2 0x125 JUMPI PUSH1 0xC4 CALLDATALOAD DUP3 DUP2 GT PUSH2 0x125 JUMPI PUSH2 0x4CB SWAP1 CALLDATASIZE SWAP1 PUSH1 0x4 ADD PUSH2 0x590 JUMP JUMPDEST SWAP2 SWAP1 SWAP3 PUSH1 0xE4 CALLDATALOAD SWAP1 DUP2 GT PUSH2 0x125 JUMPI PUSH1 0x20 SWAP7 PUSH2 0x51F SWAP4 PUSH2 0x4F0 PUSH2 0x286 SWAP4 CALLDATASIZE SWAP1 PUSH1 0x4 ADD PUSH2 0x590 JUMP JUMPDEST SWAP2 PUSH2 0x4FE PUSH1 0x1 SLOAD DUP12 LT PUSH2 0x66C JUMP JUMPDEST PUSH1 0x40 MLOAD SWAP8 DUP9 SWAP7 DUP13 DUP9 ADD SWAP11 DUP12 PUSH2 0x104 CALLDATALOAD SWAP8 PUSH1 0xA4 CALLDATALOAD SWAP4 PUSH1 0x84 CALLDATALOAD SWAP4 PUSH1 0x64 CALLDATALOAD SWAP4 PUSH2 0x5BE JUMP JUMPDEST MLOAD SWAP1 KECCAK256 SWAP1 PUSH1 0x0 MSTORE PUSH1 0x2 DUP3 MSTORE PUSH1 0x40 PUSH1 0x0 KECCAK256 SLOAD EQ PUSH1 0x40 MLOAD SWAP1 DUP2 MSTORE RETURN JUMPDEST CALLVALUE PUSH2 0x125 JUMPI PUSH1 0x0 CALLDATASIZE PUSH1 0x3 NOT ADD SLT PUSH2 0x125 JUMPI PUSH1 0x20 PUSH1 0x1 SLOAD PUSH1 0x40 MLOAD SWAP1 DUP2 MSTORE RETURN JUMPDEST CALLVALUE PUSH2 0x125 JUMPI PUSH1 0x20 CALLDATASIZE PUSH1 0x3 NOT ADD SLT PUSH2 0x125 JUMPI PUSH1 0x4 CALLDATALOAD PUSH2 0x578 PUSH1 0x1 SLOAD DUP3 LT PUSH2 0x66C JUMP JUMPDEST PUSH1 0x0 MSTORE PUSH1 0x2 PUSH1 0x20 MSTORE PUSH1 0x20 PUSH1 0x40 PUSH1 0x0 KECCAK256 SLOAD PUSH1 0x40 MLOAD SWAP1 DUP2 MSTORE RETURN JUMPDEST SWAP2 DUP2 PUSH1 0x1F DUP5 ADD SLT ISZERO PUSH2 0x125 JUMPI DUP3 CALLDATALOAD SWAP2 PUSH8 0xFFFFFFFFFFFFFFFF DUP4 GT PUSH2 0x125 JUMPI PUSH1 0x20 DUP4 DUP2 DUP7 ADD SWAP6 ADD ADD GT PUSH2 0x125 JUMPI JUMP JUMPDEST SWAP4 DUP3 DUP10 SWAP8 SWAP4 SWAP6 DUP13 SWAP12 SWAP11 SWAP7 PUSH1 0x94 SWAP15 SWAP14 SWAP11 SWAP7 SWAP9 SWAP5 DUP3 CALLDATACOPY ADD SWAP6 PUSH12 0xFFFFFFFFFFFFFFFFFFFFFFFF NOT SWAP1 PUSH1 0x60 SHL AND DUP7 MSTORE PUSH1 0x14 DUP7 ADD MSTORE PUSH1 0x34 DUP6 ADD MSTORE PUSH1 0x54 DUP5 ADD MSTORE PUSH1 0x74 DUP4 ADD CALLDATACOPY ADD SWAP2 PUSH1 0x74 DUP4 ADD PUSH1 0x0 DUP2 MSTORE CALLDATACOPY ADD SWAP1 PUSH1 0x74 DUP3 ADD MSTORE ADD SWAP1 JUMP JUMPDEST SWAP1 PUSH1 0x1F DUP1 NOT SWAP2 ADD AND DUP2 ADD SWAP1 DUP2 LT PUSH8 0xFFFFFFFFFFFFFFFF DUP3 GT OR PUSH2 0x635 JUMPI PUSH1 0x40 MSTORE JUMP JUMPDEST PUSH4 0x4E487B71 PUSH1 0xE0 SHL PUSH1 0x0 MSTORE PUSH1 0x41 PUSH1 0x4 MSTORE PUSH1 0x24 PUSH1 0x0 REVERT JUMPDEST SWAP1 DUP1 PUSH1 0x20 SWAP4 SWAP3 DUP2 DUP5 MSTORE DUP5 DUP5 ADD CALLDATACOPY PUSH1 0x0 DUP3 DUP3 ADD DUP5 ADD MSTORE PUSH1 0x1F ADD PUSH1 0x1F NOT AND ADD ADD SWAP1 JUMP JUMPDEST ISZERO PUSH2 0x673 JUMPI JUMP JUMPDEST PUSH1 0x40 MLOAD PUSH3 0x461BCD PUSH1 0xE5 SHL DUP2 MSTORE PUSH1 0x20 PUSH1 0x4 DUP3 ADD MSTORE PUSH1 0x1D PUSH1 0x24 DUP3 ADD MSTORE PUSH32 0x41756469744C6F673A20696E646578206F7574206F6620626F756E6473000000 PUSH1 0x44 DUP3 ADD MSTORE PUSH1 0x64 SWAP1 REVERT INVALID LOG2 PUSH5 0x6970667358 0x22 SLT KECCAK256 PUSH32 0x85BAB5CF9EDF4F975F725BE87B7E6F82383E41472E49F5CE0DC43B2BBAFE7064 PUSH20 0x6F6C634300081400330000000000000000000000 "},"methodIdentifiers":{"addEntry(string,address,bytes32,string,string,string[],bytes32)":"73009ea6","entryCount()":"0cbb0f83","entryRootHashes(uint256)":"d1a89133","getRootHash(uint256)":"093abc86","procurementGate()":"d3bdc728","setProcurementGate(address)":"eac87025","verifyEntry(uint256,string,address,bytes32,uint256,uint256,string,string,bytes32)":"4d665cf9"}}}}}