{"contracts/GovernanceMultiSig.sol":{"GovernanceMultiSig":{"abi":[{"inputs":[{"internalType":"address","name":"commander","type":"address"},{"internalType":"address","name":"auditor","type":"address"},{"internalType":"address","name":"procurementCommand","type":"address"}],"stateMutability":"nonpayable","type":"constructor"},{"anonymous":false,"inputs":[{"indexed":true,"internalType":"address","name":"member","type":"address"},{"indexed":false,"internalType":"enum GovernanceMultiSig.Role","name":"role","type":"uint8"}],"name":"MemberAdded","type":"event"},{"anonymous":false,"inputs":[{"indexed":true,"internalType":"uint256","name":"id","type":"uint256"},{"indexed":false,"internalType":"enum GovernanceMultiSig.ActionType","name":"actionType","type":"uint8"},{"indexed":true,"internalType":"address","name":"proposer","type":"address"},{"indexed":false,"internalType":"address","name":"targetAddress","type":"address"}],"name":"ProposalCreated","type":"event"},{"anonymous":false,"inputs":[{"indexed":true,"internalType":"uint256","name":"id","type":"uint256"},{"indexed":false,"internalType":"enum GovernanceMultiSig.ActionType","name":"actionType","type":"uint8"},{"indexed":true,"internalType":"address","name":"targetAddress","type":"address"}],"name":"ProposalExecuted","type":"event"},{"anonymous":false,"inputs":[{"indexed":true,"internalType":"uint256","name":"id","type":"uint256"},{"indexed":true,"internalType":"address","name":"revoker","type":"address"}],"name":"ProposalRevoked","type":"event"},{"anonymous":false,"inputs":[{"indexed":true,"internalType":"uint256","name":"id","type":"uint256"},{"indexed":true,"internalType":"address","name":"voter","type":"address"},{"indexed":false,"internalType":"uint256","name":"voteCount","type":"uint256"}],"name":"VoteCast","type":"event"},{"inputs":[],"name":"PROPOSAL_EXPIRY","outputs":[{"internalType":"uint256","name":"","type":"uint256"}],"stateMutability":"view","type":"function"},{"inputs":[],"name":"REQUIRED_VOTES","outputs":[{"internalType":"uint256","name":"","type":"uint256"}],"stateMutability":"view","type":"function"},{"inputs":[],"name":"circuitBreaker","outputs":[{"internalType":"address","name":"","type":"address"}],"stateMutability":"view","type":"function"},{"inputs":[],"name":"getMemberCount","outputs":[{"internalType":"uint256","name":"","type":"uint256"}],"stateMutability":"view","type":"function"},{"inputs":[{"internalType":"uint256","name":"id","type":"uint256"}],"name":"getProposalStatus","outputs":[{"internalType":"enum GovernanceMultiSig.ProposalStatus","name":"","type":"uint8"}],"stateMutability":"view","type":"function"},{"inputs":[{"internalType":"uint256","name":"id","type":"uint256"}],"name":"getProposalVoteCount","outputs":[{"internalType":"uint256","name":"","type":"uint256"}],"stateMutability":"view","type":"function"},{"inputs":[],"name":"identityRegistry","outputs":[{"internalType":"address","name":"","type":"address"}],"stateMutability":"view","type":"function"},{"inputs":[{"internalType":"bytes32","name":"","type":"bytes32"}],"name":"isApprovedAction","outputs":[{"internalType":"bool","name":"","type":"bool"}],"stateMutability":"pure","type":"function"},{"inputs":[{"internalType":"address","name":"account","type":"address"}],"name":"isCommander","outputs":[{"internalType":"bool","name":"","type":"bool"}],"stateMutability":"view","type":"function"},{"inputs":[{"internalType":"address","name":"","type":"address"}],"name":"isGovernanceMember","outputs":[{"internalType":"bool","name":"","type":"bool"}],"stateMutability":"view","type":"function"},{"inputs":[{"internalType":"uint256","name":"","type":"uint256"}],"name":"members","outputs":[{"internalType":"address","name":"","type":"address"}],"stateMutability":"view","type":"function"},{"inputs":[],"name":"proposalCount","outputs":[{"internalType":"uint256","name":"","type":"uint256"}],"stateMutability":"view","type":"function"},{"inputs":[{"internalType":"uint256","name":"","type":"uint256"}],"name":"proposals","outputs":[{"internalType":"uint256","name":"id","type":"uint256"},{"internalType":"enum GovernanceMultiSig.ActionType","name":"actionType","type":"uint8"},{"internalType":"address","name":"proposer","type":"address"},{"internalType":"address","name":"targetAddress","type":"address"},{"internalType":"uint8","name":"clearanceLevel","type":"uint8"},{"internalType":"uint8","name":"rank","type":"uint8"},{"internalType":"string","name":"didReference","type":"string"},{"internalType":"string","name":"reason","type":"string"},{"internalType":"uint256","name":"voteCount","type":"uint256"},{"internalType":"uint256","name":"createdAt","type":"uint256"},{"internalType":"enum GovernanceMultiSig.ProposalStatus","name":"status","type":"uint8"}],"stateMutability":"view","type":"function"},{"inputs":[{"internalType":"enum GovernanceMultiSig.ActionType","name":"actionType","type":"uint8"},{"internalType":"address","name":"targetAddress","type":"address"},{"internalType":"uint8","name":"clearanceLevel","type":"uint8"},{"internalType":"uint8","name":"rank","type":"uint8"},{"internalType":"string","name":"didReference","type":"string"},{"internalType":"string","name":"reason","type":"string"}],"name":"proposeAction","outputs":[{"internalType":"uint256","name":"","type":"uint256"}],"stateMutability":"nonpayable","type":"function"},{"inputs":[{"internalType":"uint256","name":"id","type":"uint256"}],"name":"revokeProposal","outputs":[],"stateMutability":"nonpayable","type":"function"},{"inputs":[{"internalType":"address","name":"","type":"address"}],"name":"roles","outputs":[{"internalType":"enum GovernanceMultiSig.Role","name":"","type":"uint8"}],"stateMutability":"view","type":"function"},{"inputs":[{"internalType":"address","name":"_identityRegistry","type":"address"},{"internalType":"address","name":"_circuitBreaker","type":"address"}],"name":"setContracts","outputs":[],"stateMutability":"nonpayable","type":"function"},{"inputs":[{"internalType":"uint256","name":"id","type":"uint256"}],"name":"vote","outputs":[],"stateMutability":"nonpayable","type":"function"}],"evm":{"bytecode":{"linkReferences":{},"object":"6080346200023857601f620014ca38819003918201601f1916830191906001600160401b038311848410176200023d5781606092859260409586528339810103126200023857620000508262000253565b60206200006c836200006483870162000253565b950162000253565b6001600160a01b039283166000818152808452858120805460ff1990811690915560018086528783208054831682179055600380549297949568010000000000000000959193868110156200022457838101808655811015620002105788999a9b83918688528a8820019860018060a01b031999818b8254161790558d518881527ff833c29297cb62e4d5e38257097ec5d6575967915f151215dd8fc03f8f548ce89c8d91a2168086528589528b8620848c8254161790558389528b8620848c825416179055845487811015620001fc57848101808755811015620001e85785875289872001818982541617905589898d51868152a21697888452838752898420600282825416179055818752818a852091825416179055815493841015620001d4578301808255831015620001c057815283902001805490911684179055835160028152a2516112619081620002698239f35b634e487b7160e01b82526032600452602482fd5b634e487b7160e01b83526041600452602483fd5b634e487b7160e01b87526032600452602487fd5b634e487b7160e01b87526041600452602487fd5b634e487b7160e01b86526032600452602486fd5b634e487b7160e01b86526041600452602486fd5b600080fd5b634e487b7160e01b600052604160045260246000fd5b51906001600160a01b0382168203620002385756fe6080604052600436101561001257600080fd5b60003560e01c80630121b93f14610a38578063013cf08b14610954578063022d3ba1146108f05780630645b8db146108c1578063134e18f41461089857806316efd9411461086f578063401853b7146108365780635daf08ca146107db578063822248691461079c57806385a6a091146106b257806387106a6e1461026c5780638a14e3d01461024e57806399374642146101f2578063997072f7146101d4578063c93b63a3146101b8578063d8952a4914610121578063da35c664146101035763fdd7e7f9146100e257600080fd5b346100fe5760003660031901126100fe57602060405160028152f35b600080fd5b346100fe5760003660031901126100fe576020600454604051908152f35b346100fe5760403660031901126100fe5761013a610d3d565b610142610d53565b9033600052600160205261015d60ff60406000205416610d97565b6005546001600160a01b0391829081831615610199575b505050600654918183161561018557005b6001600160a01b0319909216911617600655005b16906bffffffffffffffffffffffff60a01b1617600555828181610174565b346100fe5760203660031901126100fe57602060405160018152f35b346100fe5760003660031901126100fe576020600354604051908152f35b346100fe5760203660031901126100fe576001600160a01b03610213610d3d565b16600052600060205260ff604060002054166040516003821015610238576020918152f35b634e487b7160e01b600052602160045260246000fd5b346100fe5760003660031901126100fe57602060405162093a808152f35b346100fe5760c03660031901126100fe57600560043510156100fe57610290610d53565b60443560ff811681036100fe5760643560ff811681036100fe5760843567ffffffffffffffff81116100fe576102ca903690600401610d69565b92909360a43567ffffffffffffffff81116100fe576102ed903690600401610d69565b94909533600052600160205261030a60ff60406000205416610d97565b6004549461031786610de2565b600490815560008781526002602081905260409091208881556001810180546001600160a81b031916933560ff16939093173360081b610100600160a81b031617909255810180546001600160b01b0319166001600160a01b0387161760a09790971b60ff60a01b169690961760a89290921b60ff60a81b169190911790945567ffffffffffffffff82116105cd5781906103b56003860154610be0565b601f811161065f575b50600090601f83116001146105ee576000926105e3575b50508160011b916000199060031b1c19161760038301555b6004820167ffffffffffffffff85116105cd5761040a8154610be0565b95601f8711610585575b60209650600090601f871160011461051c5795809160029697600092610511575b50508160011b916000199060031b1c19161790555b6005820191600183554260068201556008600782019160ff19928381541690553360005201865260016040600020918254161790556040519061048f82600435610ce3565b6001600160a01b031681860152339084907f27ea2cad5e4584ad97131983569ea163d6939d2154ceb6288fc4ee1bb8a2c63b90604090a360405160018152837f2acce567deca3aabf56327adbb4524bd5318936eaefa69e3a5208ffda0cfec09863393a3541015610503575b604051908152f35b61050c81610ee4565b6104fb565b013590508880610435565b601f1987169183600052886000209260005b81811061056e57509160019391896002999a9410610554575b505050811b01905561044a565b0135600019600384901b60f8161c19169055888080610547565b91938a60018192878701358155019501920161052e565b816000526020600020601f870160051c810197602088106105c3575b601f0160051c01965b8781106105b75750610414565b600081556001016105aa565b90975087906105a1565b634e487b7160e01b600052604160045260246000fd5b0135905087806103d5565b909250600385016000526020600020906000935b601f1984168510610647576001945083601f1981161061062d575b505050811b0160038301556103ed565b0135600019600384901b60f8161c1916905587808061061d565b81810135835560209485019460019093019201610602565b909150600385016000526020600020601f840160051c8101602085106106ab575b90849392915b601f830160051c8201811061069c5750506103be565b60008155859450600101610686565b5080610680565b346100fe5760203660031901126100fe576004353360005260016020526106e060ff60406000205416610d97565b8060005260026020526040600020600781019081549060ff821660048110156102385761070d9015610df1565b600101543360089190911c6001600160a01b0316036107585760ff1916600217905533907f6a3eb8ca820be079fbd3fa6f657d5eb9882f642d01bf0ff5589af458d3331af7600080a3005b606460405162461bcd60e51b815260206004820152602060248201527f476f7665726e616e63654d756c74695369673a206e6f742070726f706f7365726044820152fd5b346100fe5760203660031901126100fe576001600160a01b036107bd610d3d565b166000526001602052602060ff604060002054166040519015158152f35b346100fe5760203660031901126100fe576004356003548110156100fe5760036000527fc2575a0e9e593c00f959f8c92f12db2869c3395a3b0502d05e2516446f71f85b01546040516001600160a01b039091168152602090f35b346100fe5760203660031901126100fe576004356000526002602052602060ff6007604060002001541661086d6040518092610d30565bf35b346100fe5760003660031901126100fe576006546040516001600160a01b039091168152602090f35b346100fe5760003660031901126100fe576005546040516001600160a01b039091168152602090f35b346100fe5760203660031901126100fe5760043560005260026020526020600560406000200154604051908152f35b346100fe5760203660031901126100fe576001600160a01b03610911610d3d565b16600052600160205260ff6040600020541680610936575b6020906040519015158152f35b50600060205260ff6040600020541660038110156102385715610929565b346100fe5760203660031901126100fe57600435600052600260205260406000208054600182015491610a34600282015461099160038401610c2e565b92610a1c6109a160048301610c2e565b610a0e60058401549660ff806007600688015497015416966040519b8c9b8c526109d060208d01848316610ce3565b60018060a01b03809160081c1660408d0152811660608c0152818160a01c1660808c015260a81c1660a08a01526101608060c08b0152890190610cf0565b9087820360e0890152610cf0565b93610100860152610120850152610140840190610d30565b0390f35b346100fe576020806003193601126100fe57600435903360005260018152610a6760ff60406000205416610d97565b8160005260028152604060002060ff600782015416600481101561023857610a8f9015610df1565b600881013360005280835260ff60406000205416610b9157600682015462093a808101809111610b7b574211610b2a57600292916005913360005283526040600020600160ff198254161790550190610ae88254610de2565b809255837f2acce567deca3aabf56327adbb4524bd5318936eaefa69e3a5208ffda0cfec09604051928484523393a31015610b1f57005b610b2890610ee4565b005b60405162461bcd60e51b8152600481018490526024808201527f476f7665726e616e63654d756c74695369673a2070726f706f73616c206578706044820152631a5c995960e21b6064820152608490fd5b634e487b7160e01b600052601160045260246000fd5b60405162461bcd60e51b815260048101849052602160248201527f476f7665726e616e63654d756c74695369673a20616c726561647920766f74656044820152601960fa1b6064820152608490fd5b90600182811c92168015610c10575b6020831014610bfa57565b634e487b7160e01b600052602260045260246000fd5b91607f1691610bef565b67ffffffffffffffff81116105cd57604052565b9060405191600090805490610c4282610be0565b908186526001928381169081600014610cc25750600114610c85575b505050829003601f01601f1916820167ffffffffffffffff8111838210176105cd57604052565b9092506000526020918260002091836000935b838510610cae5750505050830101388080610c5e565b805488860183015293019284908201610c98565b92935050506020925060ff191682850152151560051b830101388080610c5e565b9060058210156102385752565b919082519283825260005b848110610d1c575050826000602080949584010152601f8019910116010190565b602081830181015184830182015201610cfb565b9060048210156102385752565b600435906001600160a01b03821682036100fe57565b602435906001600160a01b03821682036100fe57565b9181601f840112156100fe5782359167ffffffffffffffff83116100fe57602083818601950101116100fe57565b15610d9e57565b606460405162461bcd60e51b815260206004820152602060248201527f476f7665726e616e63654d756c74695369673a206e6f742061206d656d6265726044820152fd5b6000198114610b7b5760010190565b15610df857565b60405162461bcd60e51b815260206004820152602860248201527f476f7665726e616e63654d756c74695369673a2070726f706f73616c206e6f746044820152672070656e64696e6760c01b6064820152608490fd5b9060009291805491610e5f83610be0565b918282526001938481169081600014610ec15750600114610e81575b50505050565b90919394506000526020928360002092846000945b838610610ead575050505001019038808080610e7b565b805485870183015294019385908201610e96565b9294505050602093945060ff191683830152151560051b01019038808080610e7b565b6000908082526002806020526040928381209060078201600160ff19825416179055600182019060ff82541660058110156111f75780610fe957506005548385015491906001600160a01b03908116803b15610fe55790829160ff8a5195869363e1b66fdd60e01b855281166004850152818160a81c16602485015260a01c16604483015260806064830152818381610f836084820160038c01610e4e565b03925af1908115610fda57509260ff60008051602061120c8339815191529593610fc893602096610fcb575b505b54169260018060a01b039101541695518092610ce3565ba3565b610fd490610c1a565b38610faf565b8751903d90823e3d90fd5b8280fd5b600181036110825750600554838501546001600160a01b03918216929116823b1561107e57819088519384916305f11cd760e41b8352600483015289602483015281838161103d6044820160048c01610e4e565b03925af1908115610fda57509260ff60008051602061120c8339815191529593610fc89360209661106f575b50610fb1565b61107890610c1a565b38611069565b5080fd5b808503611103575060055483850154906001600160a01b03908116803b156110ff579160448493928460ff96948c51978895869463606a437360e01b86528116600486015260a01c1660248401525af1908115610fda57509260ff60008051602061120c8339815191529593610fc89360209661106f5750610fb1565b8380fd5b6003810361116357506006546001600160a01b0316803b1561107e578180916004895180958193638456cb5960e01b83525af1908115610fda57509260ff60008051602061120c8339815191529593610fc89360209661106f5750610fb1565b60041461118a575b5091610fc860209260ff60008051602061120c83398151915295610fb1565b6006546001600160a01b0316803b1561107e578180916004895180958193631fa5d41d60e11b83525af1908115610fda57509260ff60008051602061120c8339815191529593610fc8936020966111e8575b5093955050925061116b565b6111f190610c1a565b386111dc565b634e487b7160e01b82526021600452602482fdfefca604f7c65f1962e4db27dbf7b2473457d3d7e34127ff2002bfb14e5c7467f8a264697066735822122018201a51b64385e05aa94dd1e60110882f8779891b282b749cce24236f1b91a564736f6c63430008140033","opcodes":"PUSH1 0x80 CALLVALUE PUSH3 0x238 JUMPI PUSH1 0x1F PUSH3 0x14CA CODESIZE DUP2 SWAP1 SUB SWAP2 DUP3 ADD PUSH1 0x1F NOT AND DUP4 ADD SWAP2 SWAP1 PUSH1 0x1 PUSH1 0x1 PUSH1 0x40 SHL SUB DUP4 GT DUP5 DUP5 LT OR PUSH3 0x23D JUMPI DUP2 PUSH1 0x60 SWAP3 DUP6 SWAP3 PUSH1 0x40 SWAP6 DUP7 MSTORE DUP4 CODECOPY DUP2 ADD SUB SLT PUSH3 0x238 JUMPI PUSH3 0x50 DUP3 PUSH3 0x253 JUMP JUMPDEST PUSH1 0x20 PUSH3 0x6C DUP4 PUSH3 0x64 DUP4 DUP8 ADD PUSH3 0x253 JUMP JUMPDEST SWAP6 ADD PUSH3 0x253 JUMP JUMPDEST PUSH1 0x1 PUSH1 0x1 PUSH1 0xA0 SHL SUB SWAP3 DUP4 AND PUSH1 0x0 DUP2 DUP2 MSTORE DUP1 DUP5 MSTORE DUP6 DUP2 KECCAK256 DUP1 SLOAD PUSH1 0xFF NOT SWAP1 DUP2 AND SWAP1 SWAP2 SSTORE PUSH1 0x1 DUP1 DUP7 MSTORE DUP8 DUP4 KECCAK256 DUP1 SLOAD DUP4 AND DUP3 OR SWAP1 SSTORE PUSH1 0x3 DUP1 SLOAD SWAP3 SWAP8 SWAP5 SWAP6 PUSH9 0x10000000000000000 SWAP6 SWAP2 SWAP4 DUP7 DUP2 LT ISZERO PUSH3 0x224 JUMPI DUP4 DUP2 ADD DUP1 DUP7 SSTORE DUP2 LT ISZERO PUSH3 0x210 JUMPI DUP9 SWAP10 SWAP11 SWAP12 DUP4 SWAP2 DUP7 DUP9 MSTORE DUP11 DUP9 KECCAK256 ADD SWAP9 PUSH1 0x1 DUP1 PUSH1 0xA0 SHL SUB NOT SWAP10 DUP2 DUP12 DUP3 SLOAD AND OR SWAP1 SSTORE DUP14 MLOAD DUP9 DUP2 MSTORE PUSH32 0xF833C29297CB62E4D5E38257097EC5D6575967915F151215DD8FC03F8F548CE8 SWAP13 DUP14 SWAP2 LOG2 AND DUP1 DUP7 MSTORE DUP6 DUP10 MSTORE DUP12 DUP7 KECCAK256 DUP5 DUP13 DUP3 SLOAD AND OR SWAP1 SSTORE DUP4 DUP10 MSTORE DUP12 DUP7 KECCAK256 DUP5 DUP13 DUP3 SLOAD AND OR SWAP1 SSTORE DUP5 SLOAD DUP8 DUP2 LT ISZERO PUSH3 0x1FC JUMPI DUP5 DUP2 ADD DUP1 DUP8 SSTORE DUP2 LT ISZERO PUSH3 0x1E8 JUMPI DUP6 DUP8 MSTORE DUP10 DUP8 KECCAK256 ADD DUP2 DUP10 DUP3 SLOAD AND OR SWAP1 SSTORE DUP10 DUP10 DUP14 MLOAD DUP7 DUP2 MSTORE LOG2 AND SWAP8 DUP9 DUP5 MSTORE DUP4 DUP8 MSTORE DUP10 DUP5 KECCAK256 PUSH1 0x2 DUP3 DUP3 SLOAD AND OR SWAP1 SSTORE DUP2 DUP8 MSTORE DUP2 DUP11 DUP6 KECCAK256 SWAP2 DUP3 SLOAD AND OR SWAP1 SSTORE DUP2 SLOAD SWAP4 DUP5 LT ISZERO PUSH3 0x1D4 JUMPI DUP4 ADD DUP1 DUP3 SSTORE DUP4 LT ISZERO PUSH3 0x1C0 JUMPI DUP2 MSTORE DUP4 SWAP1 KECCAK256 ADD DUP1 SLOAD SWAP1 SWAP2 AND DUP5 OR SWAP1 SSTORE DUP4 MLOAD PUSH1 0x2 DUP2 MSTORE LOG2 MLOAD PUSH2 0x1261 SWAP1 DUP2 PUSH3 0x269 DUP3 CODECOPY RETURN JUMPDEST PUSH4 0x4E487B71 PUSH1 0xE0 SHL DUP3 MSTORE PUSH1 0x32 PUSH1 0x4 MSTORE PUSH1 0x24 DUP3 REVERT JUMPDEST PUSH4 0x4E487B71 PUSH1 0xE0 SHL DUP4 MSTORE PUSH1 0x41 PUSH1 0x4 MSTORE PUSH1 0x24 DUP4 REVERT JUMPDEST PUSH4 0x4E487B71 PUSH1 0xE0 SHL DUP8 MSTORE PUSH1 0x32 PUSH1 0x4 MSTORE PUSH1 0x24 DUP8 REVERT JUMPDEST PUSH4 0x4E487B71 PUSH1 0xE0 SHL DUP8 MSTORE PUSH1 0x41 PUSH1 0x4 MSTORE PUSH1 0x24 DUP8 REVERT JUMPDEST PUSH4 0x4E487B71 PUSH1 0xE0 SHL DUP7 MSTORE PUSH1 0x32 PUSH1 0x4 MSTORE PUSH1 0x24 DUP7 REVERT JUMPDEST PUSH4 0x4E487B71 PUSH1 0xE0 SHL DUP7 MSTORE PUSH1 0x41 PUSH1 0x4 MSTORE PUSH1 0x24 DUP7 REVERT JUMPDEST PUSH1 0x0 DUP1 REVERT JUMPDEST PUSH4 0x4E487B71 PUSH1 0xE0 SHL PUSH1 0x0 MSTORE PUSH1 0x41 PUSH1 0x4 MSTORE PUSH1 0x24 PUSH1 0x0 REVERT JUMPDEST MLOAD SWAP1 PUSH1 0x1 PUSH1 0x1 PUSH1 0xA0 SHL SUB DUP3 AND DUP3 SUB PUSH3 0x238 JUMPI JUMP INVALID PUSH1 0x80 PUSH1 0x40 MSTORE PUSH1 0x4 CALLDATASIZE LT ISZERO PUSH2 0x12 JUMPI PUSH1 0x0 DUP1 REVERT JUMPDEST PUSH1 0x0 CALLDATALOAD PUSH1 0xE0 SHR DUP1 PUSH4 0x121B93F EQ PUSH2 0xA38 JUMPI DUP1 PUSH4 0x13CF08B EQ PUSH2 0x954 JUMPI DUP1 PUSH4 0x22D3BA1 EQ PUSH2 0x8F0 JUMPI DUP1 PUSH4 0x645B8DB EQ PUSH2 0x8C1 JUMPI DUP1 PUSH4 0x134E18F4 EQ PUSH2 0x898 JUMPI DUP1 PUSH4 0x16EFD941 EQ PUSH2 0x86F JUMPI DUP1 PUSH4 0x401853B7 EQ PUSH2 0x836 JUMPI DUP1 PUSH4 0x5DAF08CA EQ PUSH2 0x7DB JUMPI DUP1 PUSH4 0x82224869 EQ PUSH2 0x79C JUMPI DUP1 PUSH4 0x85A6A091 EQ PUSH2 0x6B2 JUMPI DUP1 PUSH4 0x87106A6E EQ PUSH2 0x26C JUMPI DUP1 PUSH4 0x8A14E3D0 EQ PUSH2 0x24E JUMPI DUP1 PUSH4 0x99374642 EQ PUSH2 0x1F2 JUMPI DUP1 PUSH4 0x997072F7 EQ PUSH2 0x1D4 JUMPI DUP1 PUSH4 0xC93B63A3 EQ PUSH2 0x1B8 JUMPI DUP1 PUSH4 0xD8952A49 EQ PUSH2 0x121 JUMPI DUP1 PUSH4 0xDA35C664 EQ PUSH2 0x103 JUMPI PUSH4 0xFDD7E7F9 EQ PUSH2 0xE2 JUMPI PUSH1 0x0 DUP1 REVERT JUMPDEST CALLVALUE PUSH2 0xFE JUMPI PUSH1 0x0 CALLDATASIZE PUSH1 0x3 NOT ADD SLT PUSH2 0xFE JUMPI PUSH1 0x20 PUSH1 0x40 MLOAD PUSH1 0x2 DUP2 MSTORE RETURN JUMPDEST PUSH1 0x0 DUP1 REVERT JUMPDEST CALLVALUE PUSH2 0xFE JUMPI PUSH1 0x0 CALLDATASIZE PUSH1 0x3 NOT ADD SLT PUSH2 0xFE JUMPI PUSH1 0x20 PUSH1 0x4 SLOAD PUSH1 0x40 MLOAD SWAP1 DUP2 MSTORE RETURN JUMPDEST CALLVALUE PUSH2 0xFE JUMPI PUSH1 0x40 CALLDATASIZE PUSH1 0x3 NOT ADD SLT PUSH2 0xFE JUMPI PUSH2 0x13A PUSH2 0xD3D JUMP JUMPDEST PUSH2 0x142 PUSH2 0xD53 JUMP JUMPDEST SWAP1 CALLER PUSH1 0x0 MSTORE PUSH1 0x1 PUSH1 0x20 MSTORE PUSH2 0x15D PUSH1 0xFF PUSH1 0x40 PUSH1 0x0 KECCAK256 SLOAD AND PUSH2 0xD97 JUMP JUMPDEST PUSH1 0x5 SLOAD PUSH1 0x1 PUSH1 0x1 PUSH1 0xA0 SHL SUB SWAP2 DUP3 SWAP1 DUP2 DUP4 AND ISZERO PUSH2 0x199 JUMPI JUMPDEST POP POP POP PUSH1 0x6 SLOAD SWAP2 DUP2 DUP4 AND ISZERO PUSH2 0x185 JUMPI STOP JUMPDEST PUSH1 0x1 PUSH1 0x1 PUSH1 0xA0 SHL SUB NOT SWAP1 SWAP3 AND SWAP2 AND OR PUSH1 0x6 SSTORE STOP JUMPDEST AND SWAP1 PUSH12 0xFFFFFFFFFFFFFFFFFFFFFFFF PUSH1 0xA0 SHL AND OR PUSH1 0x5 SSTORE DUP3 DUP2 DUP2 PUSH2 0x174 JUMP JUMPDEST CALLVALUE PUSH2 0xFE JUMPI PUSH1 0x20 CALLDATASIZE PUSH1 0x3 NOT ADD SLT PUSH2 0xFE JUMPI PUSH1 0x20 PUSH1 0x40 MLOAD PUSH1 0x1 DUP2 MSTORE RETURN JUMPDEST CALLVALUE PUSH2 0xFE JUMPI PUSH1 0x0 CALLDATASIZE PUSH1 0x3 NOT ADD SLT PUSH2 0xFE JUMPI PUSH1 0x20 PUSH1 0x3 SLOAD PUSH1 0x40 MLOAD SWAP1 DUP2 MSTORE RETURN JUMPDEST CALLVALUE PUSH2 0xFE JUMPI PUSH1 0x20 CALLDATASIZE PUSH1 0x3 NOT ADD SLT PUSH2 0xFE JUMPI PUSH1 0x1 PUSH1 0x1 PUSH1 0xA0 SHL SUB PUSH2 0x213 PUSH2 0xD3D JUMP JUMPDEST AND PUSH1 0x0 MSTORE PUSH1 0x0 PUSH1 0x20 MSTORE PUSH1 0xFF PUSH1 0x40 PUSH1 0x0 KECCAK256 SLOAD AND PUSH1 0x40 MLOAD PUSH1 0x3 DUP3 LT ISZERO PUSH2 0x238 JUMPI PUSH1 0x20 SWAP2 DUP2 MSTORE RETURN JUMPDEST PUSH4 0x4E487B71 PUSH1 0xE0 SHL PUSH1 0x0 MSTORE PUSH1 0x21 PUSH1 0x4 MSTORE PUSH1 0x24 PUSH1 0x0 REVERT JUMPDEST CALLVALUE PUSH2 0xFE JUMPI PUSH1 0x0 CALLDATASIZE PUSH1 0x3 NOT ADD SLT PUSH2 0xFE JUMPI PUSH1 0x20 PUSH1 0x40 MLOAD PUSH3 0x93A80 DUP2 MSTORE RETURN JUMPDEST CALLVALUE PUSH2 0xFE JUMPI PUSH1 0xC0 CALLDATASIZE PUSH1 0x3 NOT ADD SLT PUSH2 0xFE JUMPI PUSH1 0x5 PUSH1 0x4 CALLDATALOAD LT ISZERO PUSH2 0xFE JUMPI PUSH2 0x290 PUSH2 0xD53 JUMP JUMPDEST PUSH1 0x44 CALLDATALOAD PUSH1 0xFF DUP2 AND DUP2 SUB PUSH2 0xFE JUMPI PUSH1 0x64 CALLDATALOAD PUSH1 0xFF DUP2 AND DUP2 SUB PUSH2 0xFE JUMPI PUSH1 0x84 CALLDATALOAD PUSH8 0xFFFFFFFFFFFFFFFF DUP2 GT PUSH2 0xFE JUMPI PUSH2 0x2CA SWAP1 CALLDATASIZE SWAP1 PUSH1 0x4 ADD PUSH2 0xD69 JUMP JUMPDEST SWAP3 SWAP1 SWAP4 PUSH1 0xA4 CALLDATALOAD PUSH8 0xFFFFFFFFFFFFFFFF DUP2 GT PUSH2 0xFE JUMPI PUSH2 0x2ED SWAP1 CALLDATASIZE SWAP1 PUSH1 0x4 ADD PUSH2 0xD69 JUMP JUMPDEST SWAP5 SWAP1 SWAP6 CALLER PUSH1 0x0 MSTORE PUSH1 0x1 PUSH1 0x20 MSTORE PUSH2 0x30A PUSH1 0xFF PUSH1 0x40 PUSH1 0x0 KECCAK256 SLOAD AND PUSH2 0xD97 JUMP JUMPDEST PUSH1 0x4 SLOAD SWAP5 PUSH2 0x317 DUP7 PUSH2 0xDE2 JUMP JUMPDEST PUSH1 0x4 SWAP1 DUP2 SSTORE PUSH1 0x0 DUP8 DUP2 MSTORE PUSH1 0x2 PUSH1 0x20 DUP2 SWAP1 MSTORE PUSH1 0x40 SWAP1 SWAP2 KECCAK256 DUP9 DUP2 SSTORE PUSH1 0x1 DUP2 ADD DUP1 SLOAD PUSH1 0x1 PUSH1 0x1 PUSH1 0xA8 SHL SUB NOT AND SWAP4 CALLDATALOAD PUSH1 0xFF AND SWAP4 SWAP1 SWAP4 OR CALLER PUSH1 0x8 SHL PUSH2 0x100 PUSH1 0x1 PUSH1 0xA8 SHL SUB AND OR SWAP1 SWAP3 SSTORE DUP2 ADD DUP1 SLOAD PUSH1 0x1 PUSH1 0x1 PUSH1 0xB0 SHL SUB NOT AND PUSH1 0x1 PUSH1 0x1 PUSH1 0xA0 SHL SUB DUP8 AND OR PUSH1 0xA0 SWAP8 SWAP1 SWAP8 SHL PUSH1 0xFF PUSH1 0xA0 SHL AND SWAP7 SWAP1 SWAP7 OR PUSH1 0xA8 SWAP3 SWAP1 SWAP3 SHL PUSH1 0xFF PUSH1 0xA8 SHL AND SWAP2 SWAP1 SWAP2 OR SWAP1 SWAP5 SSTORE PUSH8 0xFFFFFFFFFFFFFFFF DUP3 GT PUSH2 0x5CD JUMPI DUP2 SWAP1 PUSH2 0x3B5 PUSH1 0x3 DUP7 ADD SLOAD PUSH2 0xBE0 JUMP JUMPDEST PUSH1 0x1F DUP2 GT PUSH2 0x65F JUMPI JUMPDEST POP PUSH1 0x0 SWAP1 PUSH1 0x1F DUP4 GT PUSH1 0x1 EQ PUSH2 0x5EE JUMPI PUSH1 0x0 SWAP3 PUSH2 0x5E3 JUMPI JUMPDEST POP POP DUP2 PUSH1 0x1 SHL SWAP2 PUSH1 0x0 NOT SWAP1 PUSH1 0x3 SHL SHR NOT AND OR PUSH1 0x3 DUP4 ADD SSTORE JUMPDEST PUSH1 0x4 DUP3 ADD PUSH8 0xFFFFFFFFFFFFFFFF DUP6 GT PUSH2 0x5CD JUMPI PUSH2 0x40A DUP2 SLOAD PUSH2 0xBE0 JUMP JUMPDEST SWAP6 PUSH1 0x1F DUP8 GT PUSH2 0x585 JUMPI JUMPDEST PUSH1 0x20 SWAP7 POP PUSH1 0x0 SWAP1 PUSH1 0x1F DUP8 GT PUSH1 0x1 EQ PUSH2 0x51C JUMPI SWAP6 DUP1 SWAP2 PUSH1 0x2 SWAP7 SWAP8 PUSH1 0x0 SWAP3 PUSH2 0x511 JUMPI JUMPDEST POP POP DUP2 PUSH1 0x1 SHL SWAP2 PUSH1 0x0 NOT SWAP1 PUSH1 0x3 SHL SHR NOT AND OR SWAP1 SSTORE JUMPDEST PUSH1 0x5 DUP3 ADD SWAP2 PUSH1 0x1 DUP4 SSTORE TIMESTAMP PUSH1 0x6 DUP3 ADD SSTORE PUSH1 0x8 PUSH1 0x7 DUP3 ADD SWAP2 PUSH1 0xFF NOT SWAP3 DUP4 DUP2 SLOAD AND SWAP1 SSTORE CALLER PUSH1 0x0 MSTORE ADD DUP7 MSTORE PUSH1 0x1 PUSH1 0x40 PUSH1 0x0 KECCAK256 SWAP2 DUP3 SLOAD AND OR SWAP1 SSTORE PUSH1 0x40 MLOAD SWAP1 PUSH2 0x48F DUP3 PUSH1 0x4 CALLDATALOAD PUSH2 0xCE3 JUMP JUMPDEST PUSH1 0x1 PUSH1 0x1 PUSH1 0xA0 SHL SUB AND DUP2 DUP7 ADD MSTORE CALLER SWAP1 DUP5 SWAP1 PUSH32 0x27EA2CAD5E4584AD97131983569EA163D6939D2154CEB6288FC4EE1BB8A2C63B SWAP1 PUSH1 0x40 SWAP1 LOG3 PUSH1 0x40 MLOAD PUSH1 0x1 DUP2 MSTORE DUP4 PUSH32 0x2ACCE567DECA3AABF56327ADBB4524BD5318936EAEFA69E3A5208FFDA0CFEC09 DUP7 CALLER SWAP4 LOG3 SLOAD LT ISZERO PUSH2 0x503 JUMPI JUMPDEST PUSH1 0x40 MLOAD SWAP1 DUP2 MSTORE RETURN JUMPDEST PUSH2 0x50C DUP2 PUSH2 0xEE4 JUMP JUMPDEST PUSH2 0x4FB JUMP JUMPDEST ADD CALLDATALOAD SWAP1 POP DUP9 DUP1 PUSH2 0x435 JUMP JUMPDEST PUSH1 0x1F NOT DUP8 AND SWAP2 DUP4 PUSH1 0x0 MSTORE DUP9 PUSH1 0x0 KECCAK256 SWAP3 PUSH1 0x0 JUMPDEST DUP2 DUP2 LT PUSH2 0x56E JUMPI POP SWAP2 PUSH1 0x1 SWAP4 SWAP2 DUP10 PUSH1 0x2 SWAP10 SWAP11 SWAP5 LT PUSH2 0x554 JUMPI JUMPDEST POP POP POP DUP2 SHL ADD SWAP1 SSTORE PUSH2 0x44A JUMP JUMPDEST ADD CALLDATALOAD PUSH1 0x0 NOT PUSH1 0x3 DUP5 SWAP1 SHL PUSH1 0xF8 AND SHR NOT AND SWAP1 SSTORE DUP9 DUP1 DUP1 PUSH2 0x547 JUMP JUMPDEST SWAP2 SWAP4 DUP11 PUSH1 0x1 DUP2 SWAP3 DUP8 DUP8 ADD CALLDATALOAD DUP2 SSTORE ADD SWAP6 ADD SWAP3 ADD PUSH2 0x52E JUMP JUMPDEST DUP2 PUSH1 0x0 MSTORE PUSH1 0x20 PUSH1 0x0 KECCAK256 PUSH1 0x1F DUP8 ADD PUSH1 0x5 SHR DUP2 ADD SWAP8 PUSH1 0x20 DUP9 LT PUSH2 0x5C3 JUMPI JUMPDEST PUSH1 0x1F ADD PUSH1 0x5 SHR ADD SWAP7 JUMPDEST DUP8 DUP2 LT PUSH2 0x5B7 JUMPI POP PUSH2 0x414 JUMP JUMPDEST PUSH1 0x0 DUP2 SSTORE PUSH1 0x1 ADD PUSH2 0x5AA JUMP JUMPDEST SWAP1 SWAP8 POP DUP8 SWAP1 PUSH2 0x5A1 JUMP JUMPDEST PUSH4 0x4E487B71 PUSH1 0xE0 SHL PUSH1 0x0 MSTORE PUSH1 0x41 PUSH1 0x4 MSTORE PUSH1 0x24 PUSH1 0x0 REVERT JUMPDEST ADD CALLDATALOAD SWAP1 POP DUP8 DUP1 PUSH2 0x3D5 JUMP JUMPDEST SWAP1 SWAP3 POP PUSH1 0x3 DUP6 ADD PUSH1 0x0 MSTORE PUSH1 0x20 PUSH1 0x0 KECCAK256 SWAP1 PUSH1 0x0 SWAP4 JUMPDEST PUSH1 0x1F NOT DUP5 AND DUP6 LT PUSH2 0x647 JUMPI PUSH1 0x1 SWAP5 POP DUP4 PUSH1 0x1F NOT DUP2 AND LT PUSH2 0x62D JUMPI JUMPDEST POP POP POP DUP2 SHL ADD PUSH1 0x3 DUP4 ADD SSTORE PUSH2 0x3ED JUMP JUMPDEST ADD CALLDATALOAD PUSH1 0x0 NOT PUSH1 0x3 DUP5 SWAP1 SHL PUSH1 0xF8 AND SHR NOT AND SWAP1 SSTORE DUP8 DUP1 DUP1 PUSH2 0x61D JUMP JUMPDEST DUP2 DUP2 ADD CALLDATALOAD DUP4 SSTORE PUSH1 0x20 SWAP5 DUP6 ADD SWAP5 PUSH1 0x1 SWAP1 SWAP4 ADD SWAP3 ADD PUSH2 0x602 JUMP JUMPDEST SWAP1 SWAP2 POP PUSH1 0x3 DUP6 ADD PUSH1 0x0 MSTORE PUSH1 0x20 PUSH1 0x0 KECCAK256 PUSH1 0x1F DUP5 ADD PUSH1 0x5 SHR DUP2 ADD PUSH1 0x20 DUP6 LT PUSH2 0x6AB JUMPI JUMPDEST SWAP1 DUP5 SWAP4 SWAP3 SWAP2 JUMPDEST PUSH1 0x1F DUP4 ADD PUSH1 0x5 SHR DUP3 ADD DUP2 LT PUSH2 0x69C JUMPI POP POP PUSH2 0x3BE JUMP JUMPDEST PUSH1 0x0 DUP2 SSTORE DUP6 SWAP5 POP PUSH1 0x1 ADD PUSH2 0x686 JUMP JUMPDEST POP DUP1 PUSH2 0x680 JUMP JUMPDEST CALLVALUE PUSH2 0xFE JUMPI PUSH1 0x20 CALLDATASIZE PUSH1 0x3 NOT ADD SLT PUSH2 0xFE JUMPI PUSH1 0x4 CALLDATALOAD CALLER PUSH1 0x0 MSTORE PUSH1 0x1 PUSH1 0x20 MSTORE PUSH2 0x6E0 PUSH1 0xFF PUSH1 0x40 PUSH1 0x0 KECCAK256 SLOAD AND PUSH2 0xD97 JUMP JUMPDEST DUP1 PUSH1 0x0 MSTORE PUSH1 0x2 PUSH1 0x20 MSTORE PUSH1 0x40 PUSH1 0x0 KECCAK256 PUSH1 0x7 DUP2 ADD SWAP1 DUP2 SLOAD SWAP1 PUSH1 0xFF DUP3 AND PUSH1 0x4 DUP2 LT ISZERO PUSH2 0x238 JUMPI PUSH2 0x70D SWAP1 ISZERO PUSH2 0xDF1 JUMP JUMPDEST PUSH1 0x1 ADD SLOAD CALLER PUSH1 0x8 SWAP2 SWAP1 SWAP2 SHR PUSH1 0x1 PUSH1 0x1 PUSH1 0xA0 SHL SUB AND SUB PUSH2 0x758 JUMPI PUSH1 0xFF NOT AND PUSH1 0x2 OR SWAP1 SSTORE CALLER SWAP1 PUSH32 0x6A3EB8CA820BE079FBD3FA6F657D5EB9882F642D01BF0FF5589AF458D3331AF7 PUSH1 0x0 DUP1 LOG3 STOP JUMPDEST PUSH1 0x64 PUSH1 0x40 MLOAD PUSH3 0x461BCD PUSH1 0xE5 SHL DUP2 MSTORE PUSH1 0x20 PUSH1 0x4 DUP3 ADD MSTORE PUSH1 0x20 PUSH1 0x24 DUP3 ADD MSTORE PUSH32 0x476F7665726E616E63654D756C74695369673A206E6F742070726F706F736572 PUSH1 0x44 DUP3 ADD MSTORE REVERT JUMPDEST CALLVALUE PUSH2 0xFE JUMPI PUSH1 0x20 CALLDATASIZE PUSH1 0x3 NOT ADD SLT PUSH2 0xFE JUMPI PUSH1 0x1 PUSH1 0x1 PUSH1 0xA0 SHL SUB PUSH2 0x7BD PUSH2 0xD3D JUMP JUMPDEST AND PUSH1 0x0 MSTORE PUSH1 0x1 PUSH1 0x20 MSTORE PUSH1 0x20 PUSH1 0xFF PUSH1 0x40 PUSH1 0x0 KECCAK256 SLOAD AND PUSH1 0x40 MLOAD SWAP1 ISZERO ISZERO DUP2 MSTORE RETURN JUMPDEST CALLVALUE PUSH2 0xFE JUMPI PUSH1 0x20 CALLDATASIZE PUSH1 0x3 NOT ADD SLT PUSH2 0xFE JUMPI PUSH1 0x4 CALLDATALOAD PUSH1 0x3 SLOAD DUP2 LT ISZERO PUSH2 0xFE JUMPI PUSH1 0x3 PUSH1 0x0 MSTORE PUSH32 0xC2575A0E9E593C00F959F8C92F12DB2869C3395A3B0502D05E2516446F71F85B ADD SLOAD PUSH1 0x40 MLOAD PUSH1 0x1 PUSH1 0x1 PUSH1 0xA0 SHL SUB SWAP1 SWAP2 AND DUP2 MSTORE PUSH1 0x20 SWAP1 RETURN JUMPDEST CALLVALUE PUSH2 0xFE JUMPI PUSH1 0x20 CALLDATASIZE PUSH1 0x3 NOT ADD SLT PUSH2 0xFE JUMPI PUSH1 0x4 CALLDATALOAD PUSH1 0x0 MSTORE PUSH1 0x2 PUSH1 0x20 MSTORE PUSH1 0x20 PUSH1 0xFF PUSH1 0x7 PUSH1 0x40 PUSH1 0x0 KECCAK256 ADD SLOAD AND PUSH2 0x86D PUSH1 0x40 MLOAD DUP1 SWAP3 PUSH2 0xD30 JUMP JUMPDEST RETURN JUMPDEST CALLVALUE PUSH2 0xFE JUMPI PUSH1 0x0 CALLDATASIZE PUSH1 0x3 NOT ADD SLT PUSH2 0xFE JUMPI PUSH1 0x6 SLOAD PUSH1 0x40 MLOAD PUSH1 0x1 PUSH1 0x1 PUSH1 0xA0 SHL SUB SWAP1 SWAP2 AND DUP2 MSTORE PUSH1 0x20 SWAP1 RETURN JUMPDEST CALLVALUE PUSH2 0xFE JUMPI PUSH1 0x0 CALLDATASIZE PUSH1 0x3 NOT ADD SLT PUSH2 0xFE JUMPI PUSH1 0x5 SLOAD PUSH1 0x40 MLOAD PUSH1 0x1 PUSH1 0x1 PUSH1 0xA0 SHL SUB SWAP1 SWAP2 AND DUP2 MSTORE PUSH1 0x20 SWAP1 RETURN JUMPDEST CALLVALUE PUSH2 0xFE JUMPI PUSH1 0x20 CALLDATASIZE PUSH1 0x3 NOT ADD SLT PUSH2 0xFE JUMPI PUSH1 0x4 CALLDATALOAD PUSH1 0x0 MSTORE PUSH1 0x2 PUSH1 0x20 MSTORE PUSH1 0x20 PUSH1 0x5 PUSH1 0x40 PUSH1 0x0 KECCAK256 ADD SLOAD PUSH1 0x40 MLOAD SWAP1 DUP2 MSTORE RETURN JUMPDEST CALLVALUE PUSH2 0xFE JUMPI PUSH1 0x20 CALLDATASIZE PUSH1 0x3 NOT ADD SLT PUSH2 0xFE JUMPI PUSH1 0x1 PUSH1 0x1 PUSH1 0xA0 SHL SUB PUSH2 0x911 PUSH2 0xD3D JUMP JUMPDEST AND PUSH1 0x0 MSTORE PUSH1 0x1 PUSH1 0x20 MSTORE PUSH1 0xFF PUSH1 0x40 PUSH1 0x0 KECCAK256 SLOAD AND DUP1 PUSH2 0x936 JUMPI JUMPDEST PUSH1 0x20 SWAP1 PUSH1 0x40 MLOAD SWAP1 ISZERO ISZERO DUP2 MSTORE RETURN JUMPDEST POP PUSH1 0x0 PUSH1 0x20 MSTORE PUSH1 0xFF PUSH1 0x40 PUSH1 0x0 KECCAK256 SLOAD AND PUSH1 0x3 DUP2 LT ISZERO PUSH2 0x238 JUMPI ISZERO PUSH2 0x929 JUMP JUMPDEST CALLVALUE PUSH2 0xFE JUMPI PUSH1 0x20 CALLDATASIZE PUSH1 0x3 NOT ADD SLT PUSH2 0xFE JUMPI PUSH1 0x4 CALLDATALOAD PUSH1 0x0 MSTORE PUSH1 0x2 PUSH1 0x20 MSTORE PUSH1 0x40 PUSH1 0x0 KECCAK256 DUP1 SLOAD PUSH1 0x1 DUP3 ADD SLOAD SWAP2 PUSH2 0xA34 PUSH1 0x2 DUP3 ADD SLOAD PUSH2 0x991 PUSH1 0x3 DUP5 ADD PUSH2 0xC2E JUMP JUMPDEST SWAP3 PUSH2 0xA1C PUSH2 0x9A1 PUSH1 0x4 DUP4 ADD PUSH2 0xC2E JUMP JUMPDEST PUSH2 0xA0E PUSH1 0x5 DUP5 ADD SLOAD SWAP7 PUSH1 0xFF DUP1 PUSH1 0x7 PUSH1 0x6 DUP9 ADD SLOAD SWAP8 ADD SLOAD AND SWAP7 PUSH1 0x40 MLOAD SWAP12 DUP13 SWAP12 DUP13 MSTORE PUSH2 0x9D0 PUSH1 0x20 DUP14 ADD DUP5 DUP4 AND PUSH2 0xCE3 JUMP JUMPDEST PUSH1 0x1 DUP1 PUSH1 0xA0 SHL SUB DUP1 SWAP2 PUSH1 0x8 SHR AND PUSH1 0x40 DUP14 ADD MSTORE DUP2 AND PUSH1 0x60 DUP13 ADD MSTORE DUP2 DUP2 PUSH1 0xA0 SHR AND PUSH1 0x80 DUP13 ADD MSTORE PUSH1 0xA8 SHR AND PUSH1 0xA0 DUP11 ADD MSTORE PUSH2 0x160 DUP1 PUSH1 0xC0 DUP12 ADD MSTORE DUP10 ADD SWAP1 PUSH2 0xCF0 JUMP JUMPDEST SWAP1 DUP8 DUP3 SUB PUSH1 0xE0 DUP10 ADD MSTORE PUSH2 0xCF0 JUMP JUMPDEST SWAP4 PUSH2 0x100 DUP7 ADD MSTORE PUSH2 0x120 DUP6 ADD MSTORE PUSH2 0x140 DUP5 ADD SWAP1 PUSH2 0xD30 JUMP JUMPDEST SUB SWAP1 RETURN JUMPDEST CALLVALUE PUSH2 0xFE JUMPI PUSH1 0x20 DUP1 PUSH1 0x3 NOT CALLDATASIZE ADD SLT PUSH2 0xFE JUMPI PUSH1 0x4 CALLDATALOAD SWAP1 CALLER PUSH1 0x0 MSTORE PUSH1 0x1 DUP2 MSTORE PUSH2 0xA67 PUSH1 0xFF PUSH1 0x40 PUSH1 0x0 KECCAK256 SLOAD AND PUSH2 0xD97 JUMP JUMPDEST DUP2 PUSH1 0x0 MSTORE PUSH1 0x2 DUP2 MSTORE PUSH1 0x40 PUSH1 0x0 KECCAK256 PUSH1 0xFF PUSH1 0x7 DUP3 ADD SLOAD AND PUSH1 0x4 DUP2 LT ISZERO PUSH2 0x238 JUMPI PUSH2 0xA8F SWAP1 ISZERO PUSH2 0xDF1 JUMP JUMPDEST PUSH1 0x8 DUP2 ADD CALLER PUSH1 0x0 MSTORE DUP1 DUP4 MSTORE PUSH1 0xFF PUSH1 0x40 PUSH1 0x0 KECCAK256 SLOAD AND PUSH2 0xB91 JUMPI PUSH1 0x6 DUP3 ADD SLOAD PUSH3 0x93A80 DUP2 ADD DUP1 SWAP2 GT PUSH2 0xB7B JUMPI TIMESTAMP GT PUSH2 0xB2A JUMPI PUSH1 0x2 SWAP3 SWAP2 PUSH1 0x5 SWAP2 CALLER PUSH1 0x0 MSTORE DUP4 MSTORE PUSH1 0x40 PUSH1 0x0 KECCAK256 PUSH1 0x1 PUSH1 0xFF NOT DUP3 SLOAD AND OR SWAP1 SSTORE ADD SWAP1 PUSH2 0xAE8 DUP3 SLOAD PUSH2 0xDE2 JUMP JUMPDEST DUP1 SWAP3 SSTORE DUP4 PUSH32 0x2ACCE567DECA3AABF56327ADBB4524BD5318936EAEFA69E3A5208FFDA0CFEC09 PUSH1 0x40 MLOAD SWAP3 DUP5 DUP5 MSTORE CALLER SWAP4 LOG3 LT ISZERO PUSH2 0xB1F JUMPI STOP JUMPDEST PUSH2 0xB28 SWAP1 PUSH2 0xEE4 JUMP JUMPDEST STOP JUMPDEST PUSH1 0x40 MLOAD PUSH3 0x461BCD PUSH1 0xE5 SHL DUP2 MSTORE PUSH1 0x4 DUP2 ADD DUP5 SWAP1 MSTORE PUSH1 0x24 DUP1 DUP3 ADD MSTORE PUSH32 0x476F7665726E616E63654D756C74695369673A2070726F706F73616C20657870 PUSH1 0x44 DUP3 ADD MSTORE PUSH4 0x1A5C9959 PUSH1 0xE2 SHL PUSH1 0x64 DUP3 ADD MSTORE PUSH1 0x84 SWAP1 REVERT JUMPDEST PUSH4 0x4E487B71 PUSH1 0xE0 SHL PUSH1 0x0 MSTORE PUSH1 0x11 PUSH1 0x4 MSTORE PUSH1 0x24 PUSH1 0x0 REVERT JUMPDEST PUSH1 0x40 MLOAD PUSH3 0x461BCD PUSH1 0xE5 SHL DUP2 MSTORE PUSH1 0x4 DUP2 ADD DUP5 SWAP1 MSTORE PUSH1 0x21 PUSH1 0x24 DUP3 ADD MSTORE PUSH32 0x476F7665726E616E63654D756C74695369673A20616C726561647920766F7465 PUSH1 0x44 DUP3 ADD MSTORE PUSH1 0x19 PUSH1 0xFA SHL PUSH1 0x64 DUP3 ADD MSTORE PUSH1 0x84 SWAP1 REVERT JUMPDEST SWAP1 PUSH1 0x1 DUP3 DUP2 SHR SWAP3 AND DUP1 ISZERO PUSH2 0xC10 JUMPI JUMPDEST PUSH1 0x20 DUP4 LT EQ PUSH2 0xBFA JUMPI JUMP JUMPDEST PUSH4 0x4E487B71 PUSH1 0xE0 SHL PUSH1 0x0 MSTORE PUSH1 0x22 PUSH1 0x4 MSTORE PUSH1 0x24 PUSH1 0x0 REVERT JUMPDEST SWAP2 PUSH1 0x7F AND SWAP2 PUSH2 0xBEF JUMP JUMPDEST PUSH8 0xFFFFFFFFFFFFFFFF DUP2 GT PUSH2 0x5CD JUMPI PUSH1 0x40 MSTORE JUMP JUMPDEST SWAP1 PUSH1 0x40 MLOAD SWAP2 PUSH1 0x0 SWAP1 DUP1 SLOAD SWAP1 PUSH2 0xC42 DUP3 PUSH2 0xBE0 JUMP JUMPDEST SWAP1 DUP2 DUP7 MSTORE PUSH1 0x1 SWAP3 DUP4 DUP2 AND SWAP1 DUP2 PUSH1 0x0 EQ PUSH2 0xCC2 JUMPI POP PUSH1 0x1 EQ PUSH2 0xC85 JUMPI JUMPDEST POP POP POP DUP3 SWAP1 SUB PUSH1 0x1F ADD PUSH1 0x1F NOT AND DUP3 ADD PUSH8 0xFFFFFFFFFFFFFFFF DUP2 GT DUP4 DUP3 LT OR PUSH2 0x5CD JUMPI PUSH1 0x40 MSTORE JUMP JUMPDEST SWAP1 SWAP3 POP PUSH1 0x0 MSTORE PUSH1 0x20 SWAP2 DUP3 PUSH1 0x0 KECCAK256 SWAP2 DUP4 PUSH1 0x0 SWAP4 JUMPDEST DUP4 DUP6 LT PUSH2 0xCAE JUMPI POP POP POP POP DUP4 ADD ADD CODESIZE DUP1 DUP1 PUSH2 0xC5E JUMP JUMPDEST DUP1 SLOAD DUP9 DUP7 ADD DUP4 ADD MSTORE SWAP4 ADD SWAP3 DUP5 SWAP1 DUP3 ADD PUSH2 0xC98 JUMP JUMPDEST SWAP3 SWAP4 POP POP POP PUSH1 0x20 SWAP3 POP PUSH1 0xFF NOT AND DUP3 DUP6 ADD MSTORE ISZERO ISZERO PUSH1 0x5 SHL DUP4 ADD ADD CODESIZE DUP1 DUP1 PUSH2 0xC5E JUMP JUMPDEST SWAP1 PUSH1 0x5 DUP3 LT ISZERO PUSH2 0x238 JUMPI MSTORE JUMP JUMPDEST SWAP2 SWAP1 DUP3 MLOAD SWAP3 DUP4 DUP3 MSTORE PUSH1 0x0 JUMPDEST DUP5 DUP2 LT PUSH2 0xD1C JUMPI POP POP DUP3 PUSH1 0x0 PUSH1 0x20 DUP1 SWAP5 SWAP6 DUP5 ADD ADD MSTORE PUSH1 0x1F DUP1 NOT SWAP2 ADD AND ADD ADD SWAP1 JUMP JUMPDEST PUSH1 0x20 DUP2 DUP4 ADD DUP2 ADD MLOAD DUP5 DUP4 ADD DUP3 ADD MSTORE ADD PUSH2 0xCFB JUMP JUMPDEST SWAP1 PUSH1 0x4 DUP3 LT ISZERO PUSH2 0x238 JUMPI MSTORE JUMP JUMPDEST PUSH1 0x4 CALLDATALOAD SWAP1 PUSH1 0x1 PUSH1 0x1 PUSH1 0xA0 SHL SUB DUP3 AND DUP3 SUB PUSH2 0xFE JUMPI JUMP JUMPDEST PUSH1 0x24 CALLDATALOAD SWAP1 PUSH1 0x1 PUSH1 0x1 PUSH1 0xA0 SHL SUB DUP3 AND DUP3 SUB PUSH2 0xFE JUMPI JUMP JUMPDEST SWAP2 DUP2 PUSH1 0x1F DUP5 ADD SLT ISZERO PUSH2 0xFE JUMPI DUP3 CALLDATALOAD SWAP2 PUSH8 0xFFFFFFFFFFFFFFFF DUP4 GT PUSH2 0xFE JUMPI PUSH1 0x20 DUP4 DUP2 DUP7 ADD SWAP6 ADD ADD GT PUSH2 0xFE JUMPI JUMP JUMPDEST ISZERO PUSH2 0xD9E JUMPI JUMP JUMPDEST PUSH1 0x64 PUSH1 0x40 MLOAD PUSH3 0x461BCD PUSH1 0xE5 SHL DUP2 MSTORE PUSH1 0x20 PUSH1 0x4 DUP3 ADD MSTORE PUSH1 0x20 PUSH1 0x24 DUP3 ADD MSTORE PUSH32 0x476F7665726E616E63654D756C74695369673A206E6F742061206D656D626572 PUSH1 0x44 DUP3 ADD MSTORE REVERT JUMPDEST PUSH1 0x0 NOT DUP2 EQ PUSH2 0xB7B JUMPI PUSH1 0x1 ADD SWAP1 JUMP JUMPDEST ISZERO PUSH2 0xDF8 JUMPI JUMP JUMPDEST PUSH1 0x40 MLOAD PUSH3 0x461BCD PUSH1 0xE5 SHL DUP2 MSTORE PUSH1 0x20 PUSH1 0x4 DUP3 ADD MSTORE PUSH1 0x28 PUSH1 0x24 DUP3 ADD MSTORE PUSH32 0x476F7665726E616E63654D756C74695369673A2070726F706F73616C206E6F74 PUSH1 0x44 DUP3 ADD MSTORE PUSH8 0x2070656E64696E67 PUSH1 0xC0 SHL PUSH1 0x64 DUP3 ADD MSTORE PUSH1 0x84 SWAP1 REVERT JUMPDEST SWAP1 PUSH1 0x0 SWAP3 SWAP2 DUP1 SLOAD SWAP2 PUSH2 0xE5F DUP4 PUSH2 0xBE0 JUMP JUMPDEST SWAP2 DUP3 DUP3 MSTORE PUSH1 0x1 SWAP4 DUP5 DUP2 AND SWAP1 DUP2 PUSH1 0x0 EQ PUSH2 0xEC1 JUMPI POP PUSH1 0x1 EQ PUSH2 0xE81 JUMPI JUMPDEST POP POP POP POP JUMP JUMPDEST SWAP1 SWAP2 SWAP4 SWAP5 POP PUSH1 0x0 MSTORE PUSH1 0x20 SWAP3 DUP4 PUSH1 0x0 KECCAK256 SWAP3 DUP5 PUSH1 0x0 SWAP5 JUMPDEST DUP4 DUP7 LT PUSH2 0xEAD JUMPI POP POP POP POP ADD ADD SWAP1 CODESIZE DUP1 DUP1 DUP1 PUSH2 0xE7B JUMP JUMPDEST DUP1 SLOAD DUP6 DUP8 ADD DUP4 ADD MSTORE SWAP5 ADD SWAP4 DUP6 SWAP1 DUP3 ADD PUSH2 0xE96 JUMP JUMPDEST SWAP3 SWAP5 POP POP POP PUSH1 0x20 SWAP4 SWAP5 POP PUSH1 0xFF NOT AND DUP4 DUP4 ADD MSTORE ISZERO ISZERO PUSH1 0x5 SHL ADD ADD SWAP1 CODESIZE DUP1 DUP1 DUP1 PUSH2 0xE7B JUMP JUMPDEST PUSH1 0x0 SWAP1 DUP1 DUP3 MSTORE PUSH1 0x2 DUP1 PUSH1 0x20 MSTORE PUSH1 0x40 SWAP3 DUP4 DUP2 KECCAK256 SWAP1 PUSH1 0x7 DUP3 ADD PUSH1 0x1 PUSH1 0xFF NOT DUP3 SLOAD AND OR SWAP1 SSTORE PUSH1 0x1 DUP3 ADD SWAP1 PUSH1 0xFF DUP3 SLOAD AND PUSH1 0x5 DUP2 LT ISZERO PUSH2 0x11F7 JUMPI DUP1 PUSH2 0xFE9 JUMPI POP PUSH1 0x5 SLOAD DUP4 DUP6 ADD SLOAD SWAP2 SWAP1 PUSH1 0x1 PUSH1 0x1 PUSH1 0xA0 SHL SUB SWAP1 DUP2 AND DUP1 EXTCODESIZE ISZERO PUSH2 0xFE5 JUMPI SWAP1 DUP3 SWAP2 PUSH1 0xFF DUP11 MLOAD SWAP6 DUP7 SWAP4 PUSH4 0xE1B66FDD PUSH1 0xE0 SHL DUP6 MSTORE DUP2 AND PUSH1 0x4 DUP6 ADD MSTORE DUP2 DUP2 PUSH1 0xA8 SHR AND PUSH1 0x24 DUP6 ADD MSTORE PUSH1 0xA0 SHR AND PUSH1 0x44 DUP4 ADD MSTORE PUSH1 0x80 PUSH1 0x64 DUP4 ADD MSTORE DUP2 DUP4 DUP2 PUSH2 0xF83 PUSH1 0x84 DUP3 ADD PUSH1 0x3 DUP13 ADD PUSH2 0xE4E JUMP JUMPDEST SUB SWAP3 GAS CALL SWAP1 DUP2 ISZERO PUSH2 0xFDA JUMPI POP SWAP3 PUSH1 0xFF PUSH1 0x0 DUP1 MLOAD PUSH1 0x20 PUSH2 0x120C DUP4 CODECOPY DUP2 MLOAD SWAP2 MSTORE SWAP6 SWAP4 PUSH2 0xFC8 SWAP4 PUSH1 0x20 SWAP7 PUSH2 0xFCB JUMPI JUMPDEST POP JUMPDEST SLOAD AND SWAP3 PUSH1 0x1 DUP1 PUSH1 0xA0 SHL SUB SWAP2 ADD SLOAD AND SWAP6 MLOAD DUP1 SWAP3 PUSH2 0xCE3 JUMP JUMPDEST LOG3 JUMP JUMPDEST PUSH2 0xFD4 SWAP1 PUSH2 0xC1A JUMP JUMPDEST CODESIZE PUSH2 0xFAF JUMP JUMPDEST DUP8 MLOAD SWAP1 RETURNDATASIZE SWAP1 DUP3 RETURNDATACOPY RETURNDATASIZE SWAP1 REVERT JUMPDEST DUP3 DUP1 REVERT JUMPDEST PUSH1 0x1 DUP2 SUB PUSH2 0x1082 JUMPI POP PUSH1 0x5 SLOAD DUP4 DUP6 ADD SLOAD PUSH1 0x1 PUSH1 0x1 PUSH1 0xA0 SHL SUB SWAP2 DUP3 AND SWAP3 SWAP2 AND DUP3 EXTCODESIZE ISZERO PUSH2 0x107E JUMPI DUP2 SWAP1 DUP9 MLOAD SWAP4 DUP5 SWAP2 PUSH4 0x5F11CD7 PUSH1 0xE4 SHL DUP4 MSTORE PUSH1 0x4 DUP4 ADD MSTORE DUP10 PUSH1 0x24 DUP4 ADD MSTORE DUP2 DUP4 DUP2 PUSH2 0x103D PUSH1 0x44 DUP3 ADD PUSH1 0x4 DUP13 ADD PUSH2 0xE4E JUMP JUMPDEST SUB SWAP3 GAS CALL SWAP1 DUP2 ISZERO PUSH2 0xFDA JUMPI POP SWAP3 PUSH1 0xFF PUSH1 0x0 DUP1 MLOAD PUSH1 0x20 PUSH2 0x120C DUP4 CODECOPY DUP2 MLOAD SWAP2 MSTORE SWAP6 SWAP4 PUSH2 0xFC8 SWAP4 PUSH1 0x20 SWAP7 PUSH2 0x106F JUMPI JUMPDEST POP PUSH2 0xFB1 JUMP JUMPDEST PUSH2 0x1078 SWAP1 PUSH2 0xC1A JUMP JUMPDEST CODESIZE PUSH2 0x1069 JUMP JUMPDEST POP DUP1 REVERT JUMPDEST DUP1 DUP6 SUB PUSH2 0x1103 JUMPI POP PUSH1 0x5 SLOAD DUP4 DUP6 ADD SLOAD SWAP1 PUSH1 0x1 PUSH1 0x1 PUSH1 0xA0 SHL SUB SWAP1 DUP2 AND DUP1 EXTCODESIZE ISZERO PUSH2 0x10FF JUMPI SWAP2 PUSH1 0x44 DUP5 SWAP4 SWAP3 DUP5 PUSH1 0xFF SWAP7 SWAP5 DUP13 MLOAD SWAP8 DUP9 SWAP6 DUP7 SWAP5 PUSH4 0x606A4373 PUSH1 0xE0 SHL DUP7 MSTORE DUP2 AND PUSH1 0x4 DUP7 ADD MSTORE PUSH1 0xA0 SHR AND PUSH1 0x24 DUP5 ADD MSTORE GAS CALL SWAP1 DUP2 ISZERO PUSH2 0xFDA JUMPI POP SWAP3 PUSH1 0xFF PUSH1 0x0 DUP1 MLOAD PUSH1 0x20 PUSH2 0x120C DUP4 CODECOPY DUP2 MLOAD SWAP2 MSTORE SWAP6 SWAP4 PUSH2 0xFC8 SWAP4 PUSH1 0x20 SWAP7 PUSH2 0x106F JUMPI POP PUSH2 0xFB1 JUMP JUMPDEST DUP4 DUP1 REVERT JUMPDEST PUSH1 0x3 DUP2 SUB PUSH2 0x1163 JUMPI POP PUSH1 0x6 SLOAD PUSH1 0x1 PUSH1 0x1 PUSH1 0xA0 SHL SUB AND DUP1 EXTCODESIZE ISZERO PUSH2 0x107E JUMPI DUP2 DUP1 SWAP2 PUSH1 0x4 DUP10 MLOAD DUP1 SWAP6 DUP2 SWAP4 PUSH4 0x8456CB59 PUSH1 0xE0 SHL DUP4 MSTORE GAS CALL SWAP1 DUP2 ISZERO PUSH2 0xFDA JUMPI POP SWAP3 PUSH1 0xFF PUSH1 0x0 DUP1 MLOAD PUSH1 0x20 PUSH2 0x120C DUP4 CODECOPY DUP2 MLOAD SWAP2 MSTORE SWAP6 SWAP4 PUSH2 0xFC8 SWAP4 PUSH1 0x20 SWAP7 PUSH2 0x106F JUMPI POP PUSH2 0xFB1 JUMP JUMPDEST PUSH1 0x4 EQ PUSH2 0x118A JUMPI JUMPDEST POP SWAP2 PUSH2 0xFC8 PUSH1 0x20 SWAP3 PUSH1 0xFF PUSH1 0x0 DUP1 MLOAD PUSH1 0x20 PUSH2 0x120C DUP4 CODECOPY DUP2 MLOAD SWAP2 MSTORE SWAP6 PUSH2 0xFB1 JUMP JUMPDEST PUSH1 0x6 SLOAD PUSH1 0x1 PUSH1 0x1 PUSH1 0xA0 SHL SUB AND DUP1 EXTCODESIZE ISZERO PUSH2 0x107E JUMPI DUP2 DUP1 SWAP2 PUSH1 0x4 DUP10 MLOAD DUP1 SWAP6 DUP2 SWAP4 PUSH4 0x1FA5D41D PUSH1 0xE1 SHL DUP4 MSTORE GAS CALL SWAP1 DUP2 ISZERO PUSH2 0xFDA JUMPI POP SWAP3 PUSH1 0xFF PUSH1 0x0 DUP1 MLOAD PUSH1 0x20 PUSH2 0x120C DUP4 CODECOPY DUP2 MLOAD SWAP2 MSTORE SWAP6 SWAP4 PUSH2 0xFC8 SWAP4 PUSH1 0x20 SWAP7 PUSH2 0x11E8 JUMPI JUMPDEST POP SWAP4 SWAP6 POP POP SWAP3 POP PUSH2 0x116B JUMP JUMPDEST PUSH2 0x11F1 SWAP1 PUSH2 0xC1A JUMP JUMPDEST CODESIZE PUSH2 0x11DC JUMP JUMPDEST PUSH4 0x4E487B71 PUSH1 0xE0 SHL DUP3 MSTORE PUSH1 0x21 PUSH1 0x4 MSTORE PUSH1 0x24 DUP3 REVERT INVALID 0xFC 0xA6 DIV 0xF7 0xC6 PUSH0 NOT PUSH3 0xE4DB27 0xDB 0xF7 0xB2 SELFBALANCE CALLVALUE JUMPI 0xD3 0xD7 0xE3 COINBASE 0x27 SELFDESTRUCT KECCAK256 MUL 0xBF 0xB1 0x4E 0x5C PUSH21 0x67F8A264697066735822122018201A51B64385E05A 0xA9 0x4D 0xD1 0xE6 ADD LT DUP9 0x2F DUP8 PUSH26 0x891B282B749CCE24236F1B91A564736F6C634300081400330000 "},"methodIdentifiers":{"PROPOSAL_EXPIRY()":"8a14e3d0","REQUIRED_VOTES()":"fdd7e7f9","circuitBreaker()":"16efd941","getMemberCount()":"997072f7","getProposalStatus(uint256)":"401853b7","getProposalVoteCount(uint256)":"0645b8db","identityRegistry()":"134e18f4","isApprovedAction(bytes32)":"c93b63a3","isCommander(address)":"022d3ba1","isGovernanceMember(address)":"82224869","members(uint256)":"5daf08ca","proposalCount()":"da35c664","proposals(uint256)":"013cf08b","proposeAction(uint8,address,uint8,uint8,string,string)":"87106a6e","revokeProposal(uint256)":"85a6a091","roles(address)":"99374642","setContracts(address,address)":"d8952a49","vote(uint256)":"0121b93f"}}}}}