{"contracts/ProcurementGate.sol":{"ProcurementGate":{"abi":[{"inputs":[{"internalType":"address","name":"_identityRegistry","type":"address"},{"internalType":"address","name":"_componentRegistry","type":"address"},{"internalType":"address","name":"_auditLog","type":"address"},{"internalType":"address","name":"_circuitBreaker","type":"address"}],"stateMutability":"nonpayable","type":"constructor"},{"anonymous":false,"inputs":[{"indexed":true,"internalType":"address","name":"officer","type":"address"},{"indexed":true,"internalType":"bytes32","name":"componentId","type":"bytes32"},{"indexed":false,"internalType":"string","name":"reason","type":"string"},{"indexed":false,"internalType":"uint256","name":"timestamp","type":"uint256"},{"indexed":false,"internalType":"bytes32","name":"rootHash","type":"bytes32"}],"name":"ApprovalDenied","type":"event"},{"anonymous":false,"inputs":[{"indexed":true,"internalType":"address","name":"officer","type":"address"},{"indexed":true,"internalType":"bytes32","name":"componentId","type":"bytes32"},{"indexed":false,"internalType":"string","name":"deviceToken","type":"string"},{"indexed":false,"internalType":"uint256","name":"timestamp","type":"uint256"},{"indexed":false,"internalType":"bytes32","name":"rootHash","type":"bytes32"}],"name":"ApprovalGranted","type":"event"},{"anonymous":false,"inputs":[{"indexed":false,"internalType":"string","name":"token","type":"string"},{"indexed":false,"internalType":"uint256","name":"timestamp","type":"uint256"}],"name":"DeviceTokenFlagged","type":"event"},{"anonymous":false,"inputs":[{"indexed":true,"internalType":"bytes32","name":"componentId","type":"bytes32"},{"indexed":true,"internalType":"address","name":"officer","type":"address"},{"indexed":false,"internalType":"uint256","name":"timestamp","type":"uint256"}],"name":"SecondSignatureSubmitted","type":"event"},{"inputs":[],"name":"HIGH_VALUE_THRESHOLD","outputs":[{"internalType":"uint256","name":"","type":"uint256"}],"stateMutability":"view","type":"function"},{"inputs":[],"name":"RATE_LIMIT_COUNT","outputs":[{"internalType":"uint256","name":"","type":"uint256"}],"stateMutability":"view","type":"function"},{"inputs":[],"name":"RATE_LIMIT_WINDOW","outputs":[{"internalType":"uint256","name":"","type":"uint256"}],"stateMutability":"view","type":"function"},{"inputs":[{"internalType":"address","name":"officer","type":"address"},{"internalType":"bytes32","name":"componentId","type":"bytes32"},{"internalType":"string","name":"deviceToken","type":"string"},{"internalType":"bytes32","name":"locationHash","type":"bytes32"}],"name":"approveProcurement","outputs":[{"internalType":"bool","name":"","type":"bool"}],"stateMutability":"nonpayable","type":"function"},{"inputs":[],"name":"auditLog","outputs":[{"internalType":"contract IAuditLog","name":"","type":"address"}],"stateMutability":"view","type":"function"},{"inputs":[],"name":"circuitBreaker","outputs":[{"internalType":"contract ICircuitBreaker","name":"","type":"address"}],"stateMutability":"view","type":"function"},{"inputs":[],"name":"componentRegistry","outputs":[{"internalType":"contract IComponentRegistry","name":"","type":"address"}],"stateMutability":"view","type":"function"},{"inputs":[{"internalType":"string","name":"","type":"string"}],"name":"compromisedDeviceTokens","outputs":[{"internalType":"bool","name":"","type":"bool"}],"stateMutability":"view","type":"function"},{"inputs":[{"internalType":"string","name":"token","type":"string"}],"name":"flagDeviceToken","outputs":[],"stateMutability":"nonpayable","type":"function"},{"inputs":[],"name":"identityRegistry","outputs":[{"internalType":"contract IIdentityRegistry","name":"","type":"address"}],"stateMutability":"view","type":"function"},{"inputs":[{"internalType":"string","name":"token","type":"string"}],"name":"isDeviceTokenCompromised","outputs":[{"internalType":"bool","name":"","type":"bool"}],"stateMutability":"view","type":"function"},{"inputs":[{"internalType":"bytes32","name":"componentId","type":"bytes32"}],"name":"submitSecondSignature","outputs":[],"stateMutability":"nonpayable","type":"function"}],"evm":{"bytecode":{"linkReferences":{},"object":"608034620000c657601f620014f938819003918201601f19168301916001600160401b03831184841017620000cb57808492608094604052833981010312620000c6576200004d81620000e1565b906200005c60208201620000e1565b6200007860606200007060408501620000e1565b9301620000e1565b9060018060a01b03928380928160018060a01b031997168760005416176000551685600154161760015516836002541617600255169060035416176003556040516114029081620000f78239f35b600080fd5b634e487b7160e01b600052604160045260246000fd5b51906001600160a01b0382168203620000c65756fe608060408181526004918236101561001657600080fd5b600092833560e01c918263134e18f41461049d5750816316efd941146104745781631d0da64e146103e35781634cb303201461034857816359c49248146102f35781635a2d6ebd146102ca5781636903604e146101985781637130dfc91461017c5781638b1c767c1461011257508063ca7b64bb146100ef578063f85e3394146100d45763ff0039cb146100a957600080fd5b346100d057816003193601126100d05760015490516001600160a01b039091168152602090f35b5080fd5b50346100d057816003193601126100d05760209051600a8152f35b50346100d057816003193601126100d0576020905168056bc75e2d631000008152f35b905034610178576080366003190112610178578035926001600160a01b038416840361017557604435906001600160401b03821161017557509261015e61016c926020953691016104c1565b9060643592602435906106c0565b90519015158152f35b80fd5b8280fd5b5050346100d057816003193601126100d05760209051603c8152f35b90503461017857602091826003193601126102c65783548151639f8a13d760e01b81523381850152833593918590829060249082906001600160a01b03165afa9081156102bc578691610283575b501561023757507f9129dfdcc806e6ee697728224842f3911d7f611f73e1b1731874673906a0259f90828552600684528085203386528452808520600160ff1982541617905551924284523393a380f35b83608492519162461bcd60e51b8352820152602260248201527f50726f637572656d656e74476174653a207369676e6572206e6f742061637469604482015261766560f01b6064820152fd5b90508481813d83116102b5575b61029a8183610524565b810103126102b1576102ab906105a4565b386101e6565b8580fd5b503d610290565b83513d88823e3d90fd5b8380fd5b5050346100d057816003193601126100d05760025490516001600160a01b039091168152602090f35b828434610175576020366003190112610175578235906001600160401b03821161017557506020928361032b60ff93369084016104c1565b928386519485938437820190815203019020541690519015158152f35b905034610178576020366003190112610178578035906001600160401b0382116102c657366023830112156102c657818101359361038585610545565b9461039285519687610524565b8086526020860193366024838301011161017857926020968793848460ff989560246103cf99018737830101528651948593849251928391610560565b820190815203019020541690519015158152f35b905034610178576020366003190112610178578035916001600160401b0383116102c6576104686104387f41acb1d22867b64e26aed37033a194ce67d9f5a5c7796b56d42fa5c38ef340ca94369085016104c1565b936020845180928785833781880190815203019020805460ff191660011790558251838152938493840191610583565b4260208301520390a180f35b5050346100d057816003193601126100d05760035490516001600160a01b039091168152602090f35b8490346100d057816003193601126100d05790546001600160a01b03168152602090f35b9181601f840112156104ee578235916001600160401b0383116104ee57602083818601950101116104ee57565b600080fd5b604081019081106001600160401b0382111761050e57604052565b634e487b7160e01b600052604160045260246000fd5b90601f801991011681019081106001600160401b0382111761050e57604052565b6001600160401b03811161050e57601f01601f191660200190565b60005b8381106105735750506000910152565b8181015183820152602001610563565b908060209392818452848401376000828201840152601f01601f1916010190565b519081151582036104ee57565b81601f820112156104ee5780516105c781610545565b926105d56040519485610524565b818452602082840101116104ee576105f39160208085019101610560565b90565b51906001600160a01b03821682036104ee57565b519060ff821682036104ee57565b80548210156106305760005260206000200190600090565b634e487b7160e01b600052603260045260246000fd5b9060209161065f81518092818552858086019101610560565b601f01601f1916010190565b90815180825260208092019182818360051b85019501936000915b8483106106965750505050505090565b90919293949584806106b083856001950387528a51610646565b9801930193019194939290610686565b91909392600060405190602082018281106001600160401b03821117610b0057604090815281835260035490516358c3de9360e11b815290602090829060049082906001600160a01b03165afa908115610b145782916111e6575b506111af5760ff6040518486823760208186810160048152030190205416611168578054604051639f8a13d760e01b81526001600160a01b038781166004830152909160209183916024918391165afa908115610b1457829161112e575b50156110f2578054604051635b962d2d60e01b81526001600160a01b038781166004830152909160209183916024918391165afa908115610b145782916110b8575b506110715760015460405163418ea65960e01b815260048101899052908290829060249082906001600160a01b03165afa8015610b145782918391610da9575b5061016082015115610d6a57610140820151610d2957610ce15781546040516313cf548360e21b81526001600160a01b038881166004830152909160209183916024918391165afa908115610cd6578391610c9c575b5060ff8060a084015116911610610c5b576001600160a01b038616825260056020526040822042603b19810111610c475782815491825b610bf7575b50600a91501015610bb95760c068056bc75e2d631000009101511015610b33575b6001600160a01b038516815260056020526040812080549068010000000000000000821015610b1f57906108e791600182018155610618565b815460001960039290921b91821b19164290911b17905580546001600160a01b0316803b156100d057604051633655c3b960e01b81526001600160a01b03871660048201529082908290602490829084905af18015610b1457610ae9575b5060206040518181016bffffffffffffffffffffffff198860601b16815289603483015285876054840137858201914260548401526109a1607c82671054141493d5915160c21b9586607482015203605c810184520182610524565b5190209789848960018060a01b036002541693610a41604051998a97889687956339804f5360e11b875260e06004880152601460e488015273141493d0d554915351539517d054141493d5915160621b61010488015260018060a01b0316602487015260448601526101206064860152600861012486015261014485015261016060848501528461016485015261018060a485015261018484019061066b565b9060c483015203925af1908115610add5750610ab2575b507f72041d86c440111d3ecb1e960bc3879cc0b5234a8ed0ae8ae113f157f0ddd78792610a92604051938493606085526060850191610583565b42602084015260408301959095526001600160a01b0316930390a3600190565b602090813d8311610ad6575b610ac88183610524565b810103126104ee5738610a58565b503d610abe565b604051903d90823e3d90fd5b6001600160401b038111610b005760405238610945565b634e487b7160e01b82526041600452602482fd5b6040513d84823e3d90fd5b634e487b7160e01b83526041600452602483fd5b8681526006602090815260408083206001600160a01b038816845290915281205460ff166108ae5795809193506105f3959492508652600760205260408620600160ff1982541617905560405191610b8a836104f3565b601983527f5345434f4e445f5349474e41545552455f5245515549524544000000000000006020840152611220565b50959092506105f39493915060405191610bd2836104f3565b60138352721490551157d31253525517d15610d151511151606a1b6020840152611220565b9060001980930192610c098484610618565b905442603b190160039290921b1c10610c40578114610c2c576001019082610888565b634e487b7160e01b85526011600452602485fd5b509061088d565b634e487b7160e01b83526011600452602483fd5b50959092506105f39493915060405191610c74836104f3565b6016835275494e53554646494349454e545f434c454152414e434560501b6020840152611220565b90506020813d602011610cce575b81610cb760209383610524565b8101031261017857610cc89061060a565b38610851565b3d9150610caa565b6040513d85823e3d90fd5b50959092506105f39493915060405191610cfa836104f3565b601983527f535550504c595f434841494e5f4741505f4445544543544544000000000000006020840152611220565b5050959092506105f39493915060405191610d43836104f3565b601583527410d3d35413d391539517d0d3d3541493d35254d151605a1b6020840152611220565b5050959092506105f39493915060405191610d84836104f3565b601383527210d3d35413d391539517d393d517d193d55391606a1b6020840152611220565b9150503d908183823e610dbc8282610524565b6060818381010312610178578051916001600160401b0383116102c6576101a083830182840103126102c65760405192836101a08101106001600160401b036101a08601111761105d576101a0840160405282810180518552602001516001600160401b0381116102b157610e389083850190838601016105b1565b6020850152610e4b6040828501016105f6565b6040850152606081840101516060850152610e6a6080828501016105f6565b6080850152610e7d60a08285010161060a565b60a085015282810160c0818101519086015260e0808201519086015261010001516001600160401b0381116102b157610ebd9083850190838601016105b1565b610100850152610120610ed381838601016105a4565b90850152610140610ee781838601016105a4565b90850152610160610efb81838601016105a4565b90850152610f0f61018080928501016105a4565b908401526020820151906001600160401b03821161105957808301601f8385010112156110595781830151906001600160401b038211611045576020604051610f5d828560051b0182610524565b8381520192818501602060a0850283880101011161104157602081860101935b602060a0850283880101018510610fa55750505050506040610f9f91016105a4565b386107fb565b60a085848801031261103d576040518060a08101106001600160401b0360a0830111176110295760a060208094938383809501604052610fe48a6105f6565b8152610ff1838b016105f6565b8382015260408a0151604082015260608a0151606082015261101560808b016105a4565b608082015281520196019591925050610f7d565b634e487b7160e01b89526041600452602489fd5b8780fd5b8680fd5b634e487b7160e01b86526041600452602486fd5b8480fd5b634e487b7160e01b85526041600452602485fd5b959092506105f39493915060405191611089836104f3565b601783527f4f4646494345525f414e4f4d414c595f464c41474745440000000000000000006020840152611220565b90506020813d6020116110ea575b816110d360209383610524565b810103126100d0576110e4906105a4565b386107bb565b3d91506110c6565b959092506105f3949391506040519161110a836104f3565b60128352714f4646494345525f4e4f545f41435449564560701b6020840152611220565b90506020813d602011611160575b8161114960209383610524565b810103126100d05761115a906105a4565b38610779565b3d915061113c565b959092506105f39493915060405191611180836104f3565b601883527f434f4d50524f4d495345445f4445564943455f544f4b454e00000000000000006020840152611220565b959092506105f394939150604051916111c7836104f3565b600d83526c14d654d5115357d4105554d151609a1b6020840152611220565b90506020813d602011611218575b8161120160209383610524565b810103126100d057611212906105a4565b3861071b565b3d91506111f4565b82919493604051946020938491886000848a019660018060a01b03978882169b8c926bffffffffffffffffffffffff199060601b16825284603482015242605482015261129d607a826511115392515160d21b998a607483015261128d8c82519283918686019101610560565b810103605a810184520182610524565b519020976002541693611330604051988997889687956339804f5360e11b875260e06004880152601260e488015271141493d0d554915351539517d1115392515160721b6101048801526024870152604486015261012060648601526006610124860152610144850152610160608485015261131e8d610164860190610646565b8481036003190160a48601529061066b565b9060c483015203925af180156113c057611391575b5091611381917f9fa4ae2c35e8fd1027d0545f3fc77a557573b8585da034b64bbf0527d23368cb93604051938493606085526060850190610646565b91429084015260408301520390a3565b9180939192813d83116113b9575b6113a98183610524565b810103126104ee57919038611345565b503d61139f565b6040513d6000823e3d90fdfea2646970667358221220f42efd4544eab1b438d222d7ad6997c2a9d3ab4afc8dcbeda28c2f4e2a338f3764736f6c63430008140033","opcodes":"PUSH1 0x80 CALLVALUE PUSH3 0xC6 JUMPI PUSH1 0x1F PUSH3 0x14F9 CODESIZE DUP2 SWAP1 SUB SWAP2 DUP3 ADD PUSH1 0x1F NOT AND DUP4 ADD SWAP2 PUSH1 0x1 PUSH1 0x1 PUSH1 0x40 SHL SUB DUP4 GT DUP5 DUP5 LT OR PUSH3 0xCB JUMPI DUP1 DUP5 SWAP3 PUSH1 0x80 SWAP5 PUSH1 0x40 MSTORE DUP4 CODECOPY DUP2 ADD SUB SLT PUSH3 0xC6 JUMPI PUSH3 0x4D DUP2 PUSH3 0xE1 JUMP JUMPDEST SWAP1 PUSH3 0x5C PUSH1 0x20 DUP3 ADD PUSH3 0xE1 JUMP JUMPDEST PUSH3 0x78 PUSH1 0x60 PUSH3 0x70 PUSH1 0x40 DUP6 ADD PUSH3 0xE1 JUMP JUMPDEST SWAP4 ADD PUSH3 0xE1 JUMP JUMPDEST SWAP1 PUSH1 0x1 DUP1 PUSH1 0xA0 SHL SUB SWAP3 DUP4 DUP1 SWAP3 DUP2 PUSH1 0x1 DUP1 PUSH1 0xA0 SHL SUB NOT SWAP8 AND DUP8 PUSH1 0x0 SLOAD AND OR PUSH1 0x0 SSTORE AND DUP6 PUSH1 0x1 SLOAD AND OR PUSH1 0x1 SSTORE AND DUP4 PUSH1 0x2 SLOAD AND OR PUSH1 0x2 SSTORE AND SWAP1 PUSH1 0x3 SLOAD AND OR PUSH1 0x3 SSTORE PUSH1 0x40 MLOAD PUSH2 0x1402 SWAP1 DUP2 PUSH3 0xF7 DUP3 CODECOPY RETURN JUMPDEST PUSH1 0x0 DUP1 REVERT JUMPDEST PUSH4 0x4E487B71 PUSH1 0xE0 SHL PUSH1 0x0 MSTORE PUSH1 0x41 PUSH1 0x4 MSTORE PUSH1 0x24 PUSH1 0x0 REVERT JUMPDEST MLOAD SWAP1 PUSH1 0x1 PUSH1 0x1 PUSH1 0xA0 SHL SUB DUP3 AND DUP3 SUB PUSH3 0xC6 JUMPI JUMP INVALID PUSH1 0x80 PUSH1 0x40 DUP2 DUP2 MSTORE PUSH1 0x4 SWAP2 DUP3 CALLDATASIZE LT ISZERO PUSH2 0x16 JUMPI PUSH1 0x0 DUP1 REVERT JUMPDEST PUSH1 0x0 SWAP3 DUP4 CALLDATALOAD PUSH1 0xE0 SHR SWAP2 DUP3 PUSH4 0x134E18F4 EQ PUSH2 0x49D JUMPI POP DUP2 PUSH4 0x16EFD941 EQ PUSH2 0x474 JUMPI DUP2 PUSH4 0x1D0DA64E EQ PUSH2 0x3E3 JUMPI DUP2 PUSH4 0x4CB30320 EQ PUSH2 0x348 JUMPI DUP2 PUSH4 0x59C49248 EQ PUSH2 0x2F3 JUMPI DUP2 PUSH4 0x5A2D6EBD EQ PUSH2 0x2CA JUMPI DUP2 PUSH4 0x6903604E EQ PUSH2 0x198 JUMPI DUP2 PUSH4 0x7130DFC9 EQ PUSH2 0x17C JUMPI DUP2 PUSH4 0x8B1C767C EQ PUSH2 0x112 JUMPI POP DUP1 PUSH4 0xCA7B64BB EQ PUSH2 0xEF JUMPI DUP1 PUSH4 0xF85E3394 EQ PUSH2 0xD4 JUMPI PUSH4 0xFF0039CB EQ PUSH2 0xA9 JUMPI PUSH1 0x0 DUP1 REVERT JUMPDEST CALLVALUE PUSH2 0xD0 JUMPI DUP2 PUSH1 0x3 NOT CALLDATASIZE ADD SLT PUSH2 0xD0 JUMPI PUSH1 0x1 SLOAD SWAP1 MLOAD PUSH1 0x1 PUSH1 0x1 PUSH1 0xA0 SHL SUB SWAP1 SWAP2 AND DUP2 MSTORE PUSH1 0x20 SWAP1 RETURN JUMPDEST POP DUP1 REVERT JUMPDEST POP CALLVALUE PUSH2 0xD0 JUMPI DUP2 PUSH1 0x3 NOT CALLDATASIZE ADD SLT PUSH2 0xD0 JUMPI PUSH1 0x20 SWAP1 MLOAD PUSH1 0xA DUP2 MSTORE RETURN JUMPDEST POP CALLVALUE PUSH2 0xD0 JUMPI DUP2 PUSH1 0x3 NOT CALLDATASIZE ADD SLT PUSH2 0xD0 JUMPI PUSH1 0x20 SWAP1 MLOAD PUSH9 0x56BC75E2D63100000 DUP2 MSTORE RETURN JUMPDEST SWAP1 POP CALLVALUE PUSH2 0x178 JUMPI PUSH1 0x80 CALLDATASIZE PUSH1 0x3 NOT ADD SLT PUSH2 0x178 JUMPI DUP1 CALLDATALOAD SWAP3 PUSH1 0x1 PUSH1 0x1 PUSH1 0xA0 SHL SUB DUP5 AND DUP5 SUB PUSH2 0x175 JUMPI PUSH1 0x44 CALLDATALOAD SWAP1 PUSH1 0x1 PUSH1 0x1 PUSH1 0x40 SHL SUB DUP3 GT PUSH2 0x175 JUMPI POP SWAP3 PUSH2 0x15E PUSH2 0x16C SWAP3 PUSH1 0x20 SWAP6 CALLDATASIZE SWAP2 ADD PUSH2 0x4C1 JUMP JUMPDEST SWAP1 PUSH1 0x64 CALLDATALOAD SWAP3 PUSH1 0x24 CALLDATALOAD SWAP1 PUSH2 0x6C0 JUMP JUMPDEST SWAP1 MLOAD SWAP1 ISZERO ISZERO DUP2 MSTORE RETURN JUMPDEST DUP1 REVERT JUMPDEST DUP3 DUP1 REVERT JUMPDEST POP POP CALLVALUE PUSH2 0xD0 JUMPI DUP2 PUSH1 0x3 NOT CALLDATASIZE ADD SLT PUSH2 0xD0 JUMPI PUSH1 0x20 SWAP1 MLOAD PUSH1 0x3C DUP2 MSTORE RETURN JUMPDEST SWAP1 POP CALLVALUE PUSH2 0x178 JUMPI PUSH1 0x20 SWAP2 DUP3 PUSH1 0x3 NOT CALLDATASIZE ADD SLT PUSH2 0x2C6 JUMPI DUP4 SLOAD DUP2 MLOAD PUSH4 0x9F8A13D7 PUSH1 0xE0 SHL DUP2 MSTORE CALLER DUP2 DUP6 ADD MSTORE DUP4 CALLDATALOAD SWAP4 SWAP2 DUP6 SWAP1 DUP3 SWAP1 PUSH1 0x24 SWAP1 DUP3 SWAP1 PUSH1 0x1 PUSH1 0x1 PUSH1 0xA0 SHL SUB AND GAS STATICCALL SWAP1 DUP2 ISZERO PUSH2 0x2BC JUMPI DUP7 SWAP2 PUSH2 0x283 JUMPI JUMPDEST POP ISZERO PUSH2 0x237 JUMPI POP PUSH32 0x9129DFDCC806E6EE697728224842F3911D7F611F73E1B1731874673906A0259F SWAP1 DUP3 DUP6 MSTORE PUSH1 0x6 DUP5 MSTORE DUP1 DUP6 KECCAK256 CALLER DUP7 MSTORE DUP5 MSTORE DUP1 DUP6 KECCAK256 PUSH1 0x1 PUSH1 0xFF NOT DUP3 SLOAD AND OR SWAP1 SSTORE MLOAD SWAP3 TIMESTAMP DUP5 MSTORE CALLER SWAP4 LOG3 DUP1 RETURN JUMPDEST DUP4 PUSH1 0x84 SWAP3 MLOAD SWAP2 PUSH3 0x461BCD PUSH1 0xE5 SHL DUP4 MSTORE DUP3 ADD MSTORE PUSH1 0x22 PUSH1 0x24 DUP3 ADD MSTORE PUSH32 0x50726F637572656D656E74476174653A207369676E6572206E6F742061637469 PUSH1 0x44 DUP3 ADD MSTORE PUSH2 0x7665 PUSH1 0xF0 SHL PUSH1 0x64 DUP3 ADD MSTORE REVERT JUMPDEST SWAP1 POP DUP5 DUP2 DUP2 RETURNDATASIZE DUP4 GT PUSH2 0x2B5 JUMPI JUMPDEST PUSH2 0x29A DUP2 DUP4 PUSH2 0x524 JUMP JUMPDEST DUP2 ADD SUB SLT PUSH2 0x2B1 JUMPI PUSH2 0x2AB SWAP1 PUSH2 0x5A4 JUMP JUMPDEST CODESIZE PUSH2 0x1E6 JUMP JUMPDEST DUP6 DUP1 REVERT JUMPDEST POP RETURNDATASIZE PUSH2 0x290 JUMP JUMPDEST DUP4 MLOAD RETURNDATASIZE DUP9 DUP3 RETURNDATACOPY RETURNDATASIZE SWAP1 REVERT JUMPDEST DUP4 DUP1 REVERT JUMPDEST POP POP CALLVALUE PUSH2 0xD0 JUMPI DUP2 PUSH1 0x3 NOT CALLDATASIZE ADD SLT PUSH2 0xD0 JUMPI PUSH1 0x2 SLOAD SWAP1 MLOAD PUSH1 0x1 PUSH1 0x1 PUSH1 0xA0 SHL SUB SWAP1 SWAP2 AND DUP2 MSTORE PUSH1 0x20 SWAP1 RETURN JUMPDEST DUP3 DUP5 CALLVALUE PUSH2 0x175 JUMPI PUSH1 0x20 CALLDATASIZE PUSH1 0x3 NOT ADD SLT PUSH2 0x175 JUMPI DUP3 CALLDATALOAD SWAP1 PUSH1 0x1 PUSH1 0x1 PUSH1 0x40 SHL SUB DUP3 GT PUSH2 0x175 JUMPI POP PUSH1 0x20 SWAP3 DUP4 PUSH2 0x32B PUSH1 0xFF SWAP4 CALLDATASIZE SWAP1 DUP5 ADD PUSH2 0x4C1 JUMP JUMPDEST SWAP3 DUP4 DUP7 MLOAD SWAP5 DUP6 SWAP4 DUP5 CALLDATACOPY DUP3 ADD SWAP1 DUP2 MSTORE SUB ADD SWAP1 KECCAK256 SLOAD AND SWAP1 MLOAD SWAP1 ISZERO ISZERO DUP2 MSTORE RETURN JUMPDEST SWAP1 POP CALLVALUE PUSH2 0x178 JUMPI PUSH1 0x20 CALLDATASIZE PUSH1 0x3 NOT ADD SLT PUSH2 0x178 JUMPI DUP1 CALLDATALOAD SWAP1 PUSH1 0x1 PUSH1 0x1 PUSH1 0x40 SHL SUB DUP3 GT PUSH2 0x2C6 JUMPI CALLDATASIZE PUSH1 0x23 DUP4 ADD SLT ISZERO PUSH2 0x2C6 JUMPI DUP2 DUP2 ADD CALLDATALOAD SWAP4 PUSH2 0x385 DUP6 PUSH2 0x545 JUMP JUMPDEST SWAP5 PUSH2 0x392 DUP6 MLOAD SWAP7 DUP8 PUSH2 0x524 JUMP JUMPDEST DUP1 DUP7 MSTORE PUSH1 0x20 DUP7 ADD SWAP4 CALLDATASIZE PUSH1 0x24 DUP4 DUP4 ADD ADD GT PUSH2 0x178 JUMPI SWAP3 PUSH1 0x20 SWAP7 DUP8 SWAP4 DUP5 DUP5 PUSH1 0xFF SWAP9 SWAP6 PUSH1 0x24 PUSH2 0x3CF SWAP10 ADD DUP8 CALLDATACOPY DUP4 ADD ADD MSTORE DUP7 MLOAD SWAP5 DUP6 SWAP4 DUP5 SWAP3 MLOAD SWAP3 DUP4 SWAP2 PUSH2 0x560 JUMP JUMPDEST DUP3 ADD SWAP1 DUP2 MSTORE SUB ADD SWAP1 KECCAK256 SLOAD AND SWAP1 MLOAD SWAP1 ISZERO ISZERO DUP2 MSTORE RETURN JUMPDEST SWAP1 POP CALLVALUE PUSH2 0x178 JUMPI PUSH1 0x20 CALLDATASIZE PUSH1 0x3 NOT ADD SLT PUSH2 0x178 JUMPI DUP1 CALLDATALOAD SWAP2 PUSH1 0x1 PUSH1 0x1 PUSH1 0x40 SHL SUB DUP4 GT PUSH2 0x2C6 JUMPI PUSH2 0x468 PUSH2 0x438 PUSH32 0x41ACB1D22867B64E26AED37033A194CE67D9F5A5C7796B56D42FA5C38EF340CA SWAP5 CALLDATASIZE SWAP1 DUP6 ADD PUSH2 0x4C1 JUMP JUMPDEST SWAP4 PUSH1 0x20 DUP5 MLOAD DUP1 SWAP3 DUP8 DUP6 DUP4 CALLDATACOPY DUP2 DUP9 ADD SWAP1 DUP2 MSTORE SUB ADD SWAP1 KECCAK256 DUP1 SLOAD PUSH1 0xFF NOT AND PUSH1 0x1 OR SWAP1 SSTORE DUP3 MLOAD DUP4 DUP2 MSTORE SWAP4 DUP5 SWAP4 DUP5 ADD SWAP2 PUSH2 0x583 JUMP JUMPDEST TIMESTAMP PUSH1 0x20 DUP4 ADD MSTORE SUB SWAP1 LOG1 DUP1 RETURN JUMPDEST POP POP CALLVALUE PUSH2 0xD0 JUMPI DUP2 PUSH1 0x3 NOT CALLDATASIZE ADD SLT PUSH2 0xD0 JUMPI PUSH1 0x3 SLOAD SWAP1 MLOAD PUSH1 0x1 PUSH1 0x1 PUSH1 0xA0 SHL SUB SWAP1 SWAP2 AND DUP2 MSTORE PUSH1 0x20 SWAP1 RETURN JUMPDEST DUP5 SWAP1 CALLVALUE PUSH2 0xD0 JUMPI DUP2 PUSH1 0x3 NOT CALLDATASIZE ADD SLT PUSH2 0xD0 JUMPI SWAP1 SLOAD PUSH1 0x1 PUSH1 0x1 PUSH1 0xA0 SHL SUB AND DUP2 MSTORE PUSH1 0x20 SWAP1 RETURN JUMPDEST SWAP2 DUP2 PUSH1 0x1F DUP5 ADD SLT ISZERO PUSH2 0x4EE JUMPI DUP3 CALLDATALOAD SWAP2 PUSH1 0x1 PUSH1 0x1 PUSH1 0x40 SHL SUB DUP4 GT PUSH2 0x4EE JUMPI PUSH1 0x20 DUP4 DUP2 DUP7 ADD SWAP6 ADD ADD GT PUSH2 0x4EE JUMPI JUMP JUMPDEST PUSH1 0x0 DUP1 REVERT JUMPDEST PUSH1 0x40 DUP2 ADD SWAP1 DUP2 LT PUSH1 0x1 PUSH1 0x1 PUSH1 0x40 SHL SUB DUP3 GT OR PUSH2 0x50E JUMPI PUSH1 0x40 MSTORE JUMP JUMPDEST PUSH4 0x4E487B71 PUSH1 0xE0 SHL PUSH1 0x0 MSTORE PUSH1 0x41 PUSH1 0x4 MSTORE PUSH1 0x24 PUSH1 0x0 REVERT JUMPDEST SWAP1 PUSH1 0x1F DUP1 NOT SWAP2 ADD AND DUP2 ADD SWAP1 DUP2 LT PUSH1 0x1 PUSH1 0x1 PUSH1 0x40 SHL SUB DUP3 GT OR PUSH2 0x50E JUMPI PUSH1 0x40 MSTORE JUMP JUMPDEST PUSH1 0x1 PUSH1 0x1 PUSH1 0x40 SHL SUB DUP2 GT PUSH2 0x50E JUMPI PUSH1 0x1F ADD PUSH1 0x1F NOT AND PUSH1 0x20 ADD SWAP1 JUMP JUMPDEST PUSH1 0x0 JUMPDEST DUP4 DUP2 LT PUSH2 0x573 JUMPI POP POP PUSH1 0x0 SWAP2 ADD MSTORE JUMP JUMPDEST DUP2 DUP2 ADD MLOAD DUP4 DUP3 ADD MSTORE PUSH1 0x20 ADD PUSH2 0x563 JUMP JUMPDEST SWAP1 DUP1 PUSH1 0x20 SWAP4 SWAP3 DUP2 DUP5 MSTORE DUP5 DUP5 ADD CALLDATACOPY PUSH1 0x0 DUP3 DUP3 ADD DUP5 ADD MSTORE PUSH1 0x1F ADD PUSH1 0x1F NOT AND ADD ADD SWAP1 JUMP JUMPDEST MLOAD SWAP1 DUP2 ISZERO ISZERO DUP3 SUB PUSH2 0x4EE JUMPI JUMP JUMPDEST DUP2 PUSH1 0x1F DUP3 ADD SLT ISZERO PUSH2 0x4EE JUMPI DUP1 MLOAD PUSH2 0x5C7 DUP2 PUSH2 0x545 JUMP JUMPDEST SWAP3 PUSH2 0x5D5 PUSH1 0x40 MLOAD SWAP5 DUP6 PUSH2 0x524 JUMP JUMPDEST DUP2 DUP5 MSTORE PUSH1 0x20 DUP3 DUP5 ADD ADD GT PUSH2 0x4EE JUMPI PUSH2 0x5F3 SWAP2 PUSH1 0x20 DUP1 DUP6 ADD SWAP2 ADD PUSH2 0x560 JUMP JUMPDEST SWAP1 JUMP JUMPDEST MLOAD SWAP1 PUSH1 0x1 PUSH1 0x1 PUSH1 0xA0 SHL SUB DUP3 AND DUP3 SUB PUSH2 0x4EE JUMPI JUMP JUMPDEST MLOAD SWAP1 PUSH1 0xFF DUP3 AND DUP3 SUB PUSH2 0x4EE JUMPI JUMP JUMPDEST DUP1 SLOAD DUP3 LT ISZERO PUSH2 0x630 JUMPI PUSH1 0x0 MSTORE PUSH1 0x20 PUSH1 0x0 KECCAK256 ADD SWAP1 PUSH1 0x0 SWAP1 JUMP JUMPDEST PUSH4 0x4E487B71 PUSH1 0xE0 SHL PUSH1 0x0 MSTORE PUSH1 0x32 PUSH1 0x4 MSTORE PUSH1 0x24 PUSH1 0x0 REVERT JUMPDEST SWAP1 PUSH1 0x20 SWAP2 PUSH2 0x65F DUP2 MLOAD DUP1 SWAP3 DUP2 DUP6 MSTORE DUP6 DUP1 DUP7 ADD SWAP2 ADD PUSH2 0x560 JUMP JUMPDEST PUSH1 0x1F ADD PUSH1 0x1F NOT AND ADD ADD SWAP1 JUMP JUMPDEST SWAP1 DUP2 MLOAD DUP1 DUP3 MSTORE PUSH1 0x20 DUP1 SWAP3 ADD SWAP2 DUP3 DUP2 DUP4 PUSH1 0x5 SHL DUP6 ADD SWAP6 ADD SWAP4 PUSH1 0x0 SWAP2 JUMPDEST DUP5 DUP4 LT PUSH2 0x696 JUMPI POP POP POP POP POP POP SWAP1 JUMP JUMPDEST SWAP1 SWAP2 SWAP3 SWAP4 SWAP5 SWAP6 DUP5 DUP1 PUSH2 0x6B0 DUP4 DUP6 PUSH1 0x1 SWAP6 SUB DUP8 MSTORE DUP11 MLOAD PUSH2 0x646 JUMP JUMPDEST SWAP9 ADD SWAP4 ADD SWAP4 ADD SWAP2 SWAP5 SWAP4 SWAP3 SWAP1 PUSH2 0x686 JUMP JUMPDEST SWAP2 SWAP1 SWAP4 SWAP3 PUSH1 0x0 PUSH1 0x40 MLOAD SWAP1 PUSH1 0x20 DUP3 ADD DUP3 DUP2 LT PUSH1 0x1 PUSH1 0x1 PUSH1 0x40 SHL SUB DUP3 GT OR PUSH2 0xB00 JUMPI PUSH1 0x40 SWAP1 DUP2 MSTORE DUP2 DUP4 MSTORE PUSH1 0x3 SLOAD SWAP1 MLOAD PUSH4 0x58C3DE93 PUSH1 0xE1 SHL DUP2 MSTORE SWAP1 PUSH1 0x20 SWAP1 DUP3 SWAP1 PUSH1 0x4 SWAP1 DUP3 SWAP1 PUSH1 0x1 PUSH1 0x1 PUSH1 0xA0 SHL SUB AND GAS STATICCALL SWAP1 DUP2 ISZERO PUSH2 0xB14 JUMPI DUP3 SWAP2 PUSH2 0x11E6 JUMPI JUMPDEST POP PUSH2 0x11AF JUMPI PUSH1 0xFF PUSH1 0x40 MLOAD DUP5 DUP7 DUP3 CALLDATACOPY PUSH1 0x20 DUP2 DUP7 DUP2 ADD PUSH1 0x4 DUP2 MSTORE SUB ADD SWAP1 KECCAK256 SLOAD AND PUSH2 0x1168 JUMPI DUP1 SLOAD PUSH1 0x40 MLOAD PUSH4 0x9F8A13D7 PUSH1 0xE0 SHL DUP2 MSTORE PUSH1 0x1 PUSH1 0x1 PUSH1 0xA0 SHL SUB DUP8 DUP2 AND PUSH1 0x4 DUP4 ADD MSTORE SWAP1 SWAP2 PUSH1 0x20 SWAP2 DUP4 SWAP2 PUSH1 0x24 SWAP2 DUP4 SWAP2 AND GAS STATICCALL SWAP1 DUP2 ISZERO PUSH2 0xB14 JUMPI DUP3 SWAP2 PUSH2 0x112E JUMPI JUMPDEST POP ISZERO PUSH2 0x10F2 JUMPI DUP1 SLOAD PUSH1 0x40 MLOAD PUSH4 0x5B962D2D PUSH1 0xE0 SHL DUP2 MSTORE PUSH1 0x1 PUSH1 0x1 PUSH1 0xA0 SHL SUB DUP8 DUP2 AND PUSH1 0x4 DUP4 ADD MSTORE SWAP1 SWAP2 PUSH1 0x20 SWAP2 DUP4 SWAP2 PUSH1 0x24 SWAP2 DUP4 SWAP2 AND GAS STATICCALL SWAP1 DUP2 ISZERO PUSH2 0xB14 JUMPI DUP3 SWAP2 PUSH2 0x10B8 JUMPI JUMPDEST POP PUSH2 0x1071 JUMPI PUSH1 0x1 SLOAD PUSH1 0x40 MLOAD PUSH4 0x418EA659 PUSH1 0xE0 SHL DUP2 MSTORE PUSH1 0x4 DUP2 ADD DUP10 SWAP1 MSTORE SWAP1 DUP3 SWAP1 DUP3 SWAP1 PUSH1 0x24 SWAP1 DUP3 SWAP1 PUSH1 0x1 PUSH1 0x1 PUSH1 0xA0 SHL SUB AND GAS STATICCALL DUP1 ISZERO PUSH2 0xB14 JUMPI DUP3 SWAP2 DUP4 SWAP2 PUSH2 0xDA9 JUMPI JUMPDEST POP PUSH2 0x160 DUP3 ADD MLOAD ISZERO PUSH2 0xD6A JUMPI PUSH2 0x140 DUP3 ADD MLOAD PUSH2 0xD29 JUMPI PUSH2 0xCE1 JUMPI DUP2 SLOAD PUSH1 0x40 MLOAD PUSH4 0x13CF5483 PUSH1 0xE2 SHL DUP2 MSTORE PUSH1 0x1 PUSH1 0x1 PUSH1 0xA0 SHL SUB DUP9 DUP2 AND PUSH1 0x4 DUP4 ADD MSTORE SWAP1 SWAP2 PUSH1 0x20 SWAP2 DUP4 SWAP2 PUSH1 0x24 SWAP2 DUP4 SWAP2 AND GAS STATICCALL SWAP1 DUP2 ISZERO PUSH2 0xCD6 JUMPI DUP4 SWAP2 PUSH2 0xC9C JUMPI JUMPDEST POP PUSH1 0xFF DUP1 PUSH1 0xA0 DUP5 ADD MLOAD AND SWAP2 AND LT PUSH2 0xC5B JUMPI PUSH1 0x1 PUSH1 0x1 PUSH1 0xA0 SHL SUB DUP7 AND DUP3 MSTORE PUSH1 0x5 PUSH1 0x20 MSTORE PUSH1 0x40 DUP3 KECCAK256 TIMESTAMP PUSH1 0x3B NOT DUP2 ADD GT PUSH2 0xC47 JUMPI DUP3 DUP2 SLOAD SWAP2 DUP3 JUMPDEST PUSH2 0xBF7 JUMPI JUMPDEST POP PUSH1 0xA SWAP2 POP LT ISZERO PUSH2 0xBB9 JUMPI PUSH1 0xC0 PUSH9 0x56BC75E2D63100000 SWAP2 ADD MLOAD LT ISZERO PUSH2 0xB33 JUMPI JUMPDEST PUSH1 0x1 PUSH1 0x1 PUSH1 0xA0 SHL SUB DUP6 AND DUP2 MSTORE PUSH1 0x5 PUSH1 0x20 MSTORE PUSH1 0x40 DUP2 KECCAK256 DUP1 SLOAD SWAP1 PUSH9 0x10000000000000000 DUP3 LT ISZERO PUSH2 0xB1F JUMPI SWAP1 PUSH2 0x8E7 SWAP2 PUSH1 0x1 DUP3 ADD DUP2 SSTORE PUSH2 0x618 JUMP JUMPDEST DUP2 SLOAD PUSH1 0x0 NOT PUSH1 0x3 SWAP3 SWAP1 SWAP3 SHL SWAP2 DUP3 SHL NOT AND TIMESTAMP SWAP1 SWAP2 SHL OR SWAP1 SSTORE DUP1 SLOAD PUSH1 0x1 PUSH1 0x1 PUSH1 0xA0 SHL SUB AND DUP1 EXTCODESIZE ISZERO PUSH2 0xD0 JUMPI PUSH1 0x40 MLOAD PUSH4 0x3655C3B9 PUSH1 0xE0 SHL DUP2 MSTORE PUSH1 0x1 PUSH1 0x1 PUSH1 0xA0 SHL SUB DUP8 AND PUSH1 0x4 DUP3 ADD MSTORE SWAP1 DUP3 SWAP1 DUP3 SWAP1 PUSH1 0x24 SWAP1 DUP3 SWAP1 DUP5 SWAP1 GAS CALL DUP1 ISZERO PUSH2 0xB14 JUMPI PUSH2 0xAE9 JUMPI JUMPDEST POP PUSH1 0x20 PUSH1 0x40 MLOAD DUP2 DUP2 ADD PUSH12 0xFFFFFFFFFFFFFFFFFFFFFFFF NOT DUP9 PUSH1 0x60 SHL AND DUP2 MSTORE DUP10 PUSH1 0x34 DUP4 ADD MSTORE DUP6 DUP8 PUSH1 0x54 DUP5 ADD CALLDATACOPY DUP6 DUP3 ADD SWAP2 TIMESTAMP PUSH1 0x54 DUP5 ADD MSTORE PUSH2 0x9A1 PUSH1 0x7C DUP3 PUSH8 0x1054141493D59151 PUSH1 0xC2 SHL SWAP6 DUP7 PUSH1 0x74 DUP3 ADD MSTORE SUB PUSH1 0x5C DUP2 ADD DUP5 MSTORE ADD DUP3 PUSH2 0x524 JUMP JUMPDEST MLOAD SWAP1 KECCAK256 SWAP8 DUP10 DUP5 DUP10 PUSH1 0x1 DUP1 PUSH1 0xA0 SHL SUB PUSH1 0x2 SLOAD AND SWAP4 PUSH2 0xA41 PUSH1 0x40 MLOAD SWAP10 DUP11 SWAP8 DUP9 SWAP7 DUP8 SWAP6 PUSH4 0x39804F53 PUSH1 0xE1 SHL DUP8 MSTORE PUSH1 0xE0 PUSH1 0x4 DUP9 ADD MSTORE PUSH1 0x14 PUSH1 0xE4 DUP9 ADD MSTORE PUSH20 0x141493D0D554915351539517D054141493D59151 PUSH1 0x62 SHL PUSH2 0x104 DUP9 ADD MSTORE PUSH1 0x1 DUP1 PUSH1 0xA0 SHL SUB AND PUSH1 0x24 DUP8 ADD MSTORE PUSH1 0x44 DUP7 ADD MSTORE PUSH2 0x120 PUSH1 0x64 DUP7 ADD MSTORE PUSH1 0x8 PUSH2 0x124 DUP7 ADD MSTORE PUSH2 0x144 DUP6 ADD MSTORE PUSH2 0x160 PUSH1 0x84 DUP6 ADD MSTORE DUP5 PUSH2 0x164 DUP6 ADD MSTORE PUSH2 0x180 PUSH1 0xA4 DUP6 ADD MSTORE PUSH2 0x184 DUP5 ADD SWAP1 PUSH2 0x66B JUMP JUMPDEST SWAP1 PUSH1 0xC4 DUP4 ADD MSTORE SUB SWAP3 GAS CALL SWAP1 DUP2 ISZERO PUSH2 0xADD JUMPI POP PUSH2 0xAB2 JUMPI JUMPDEST POP PUSH32 0x72041D86C440111D3ECB1E960BC3879CC0B5234A8ED0AE8AE113F157F0DDD787 SWAP3 PUSH2 0xA92 PUSH1 0x40 MLOAD SWAP4 DUP5 SWAP4 PUSH1 0x60 DUP6 MSTORE PUSH1 0x60 DUP6 ADD SWAP2 PUSH2 0x583 JUMP JUMPDEST TIMESTAMP PUSH1 0x20 DUP5 ADD MSTORE PUSH1 0x40 DUP4 ADD SWAP6 SWAP1 SWAP6 MSTORE PUSH1 0x1 PUSH1 0x1 PUSH1 0xA0 SHL SUB AND SWAP4 SUB SWAP1 LOG3 PUSH1 0x1 SWAP1 JUMP JUMPDEST PUSH1 0x20 SWAP1 DUP2 RETURNDATASIZE DUP4 GT PUSH2 0xAD6 JUMPI JUMPDEST PUSH2 0xAC8 DUP2 DUP4 PUSH2 0x524 JUMP JUMPDEST DUP2 ADD SUB SLT PUSH2 0x4EE JUMPI CODESIZE PUSH2 0xA58 JUMP JUMPDEST POP RETURNDATASIZE PUSH2 0xABE JUMP JUMPDEST PUSH1 0x40 MLOAD SWAP1 RETURNDATASIZE SWAP1 DUP3 RETURNDATACOPY RETURNDATASIZE SWAP1 REVERT JUMPDEST PUSH1 0x1 PUSH1 0x1 PUSH1 0x40 SHL SUB DUP2 GT PUSH2 0xB00 JUMPI PUSH1 0x40 MSTORE CODESIZE PUSH2 0x945 JUMP JUMPDEST PUSH4 0x4E487B71 PUSH1 0xE0 SHL DUP3 MSTORE PUSH1 0x41 PUSH1 0x4 MSTORE PUSH1 0x24 DUP3 REVERT JUMPDEST PUSH1 0x40 MLOAD RETURNDATASIZE DUP5 DUP3 RETURNDATACOPY RETURNDATASIZE SWAP1 REVERT JUMPDEST PUSH4 0x4E487B71 PUSH1 0xE0 SHL DUP4 MSTORE PUSH1 0x41 PUSH1 0x4 MSTORE PUSH1 0x24 DUP4 REVERT JUMPDEST DUP7 DUP2 MSTORE PUSH1 0x6 PUSH1 0x20 SWAP1 DUP2 MSTORE PUSH1 0x40 DUP1 DUP4 KECCAK256 PUSH1 0x1 PUSH1 0x1 PUSH1 0xA0 SHL SUB DUP9 AND DUP5 MSTORE SWAP1 SWAP2 MSTORE DUP2 KECCAK256 SLOAD PUSH1 0xFF AND PUSH2 0x8AE JUMPI SWAP6 DUP1 SWAP2 SWAP4 POP PUSH2 0x5F3 SWAP6 SWAP5 SWAP3 POP DUP7 MSTORE PUSH1 0x7 PUSH1 0x20 MSTORE PUSH1 0x40 DUP7 KECCAK256 PUSH1 0x1 PUSH1 0xFF NOT DUP3 SLOAD AND OR SWAP1 SSTORE PUSH1 0x40 MLOAD SWAP2 PUSH2 0xB8A DUP4 PUSH2 0x4F3 JUMP JUMPDEST PUSH1 0x19 DUP4 MSTORE PUSH32 0x5345434F4E445F5349474E41545552455F524551554952454400000000000000 PUSH1 0x20 DUP5 ADD MSTORE PUSH2 0x1220 JUMP JUMPDEST POP SWAP6 SWAP1 SWAP3 POP PUSH2 0x5F3 SWAP5 SWAP4 SWAP2 POP PUSH1 0x40 MLOAD SWAP2 PUSH2 0xBD2 DUP4 PUSH2 0x4F3 JUMP JUMPDEST PUSH1 0x13 DUP4 MSTORE PUSH19 0x1490551157D31253525517D15610D151511151 PUSH1 0x6A SHL PUSH1 0x20 DUP5 ADD MSTORE PUSH2 0x1220 JUMP JUMPDEST SWAP1 PUSH1 0x0 NOT DUP1 SWAP4 ADD SWAP3 PUSH2 0xC09 DUP5 DUP5 PUSH2 0x618 JUMP JUMPDEST SWAP1 SLOAD TIMESTAMP PUSH1 0x3B NOT ADD PUSH1 0x3 SWAP3 SWAP1 SWAP3 SHL SHR LT PUSH2 0xC40 JUMPI DUP2 EQ PUSH2 0xC2C JUMPI PUSH1 0x1 ADD SWAP1 DUP3 PUSH2 0x888 JUMP JUMPDEST PUSH4 0x4E487B71 PUSH1 0xE0 SHL DUP6 MSTORE PUSH1 0x11 PUSH1 0x4 MSTORE PUSH1 0x24 DUP6 REVERT JUMPDEST POP SWAP1 PUSH2 0x88D JUMP JUMPDEST PUSH4 0x4E487B71 PUSH1 0xE0 SHL DUP4 MSTORE PUSH1 0x11 PUSH1 0x4 MSTORE PUSH1 0x24 DUP4 REVERT JUMPDEST POP SWAP6 SWAP1 SWAP3 POP PUSH2 0x5F3 SWAP5 SWAP4 SWAP2 POP PUSH1 0x40 MLOAD SWAP2 PUSH2 0xC74 DUP4 PUSH2 0x4F3 JUMP JUMPDEST PUSH1 0x16 DUP4 MSTORE PUSH22 0x494E53554646494349454E545F434C454152414E4345 PUSH1 0x50 SHL PUSH1 0x20 DUP5 ADD MSTORE PUSH2 0x1220 JUMP JUMPDEST SWAP1 POP PUSH1 0x20 DUP2 RETURNDATASIZE PUSH1 0x20 GT PUSH2 0xCCE JUMPI JUMPDEST DUP2 PUSH2 0xCB7 PUSH1 0x20 SWAP4 DUP4 PUSH2 0x524 JUMP JUMPDEST DUP2 ADD SUB SLT PUSH2 0x178 JUMPI PUSH2 0xCC8 SWAP1 PUSH2 0x60A JUMP JUMPDEST CODESIZE PUSH2 0x851 JUMP JUMPDEST RETURNDATASIZE SWAP2 POP PUSH2 0xCAA JUMP JUMPDEST PUSH1 0x40 MLOAD RETURNDATASIZE DUP6 DUP3 RETURNDATACOPY RETURNDATASIZE SWAP1 REVERT JUMPDEST POP SWAP6 SWAP1 SWAP3 POP PUSH2 0x5F3 SWAP5 SWAP4 SWAP2 POP PUSH1 0x40 MLOAD SWAP2 PUSH2 0xCFA DUP4 PUSH2 0x4F3 JUMP JUMPDEST PUSH1 0x19 DUP4 MSTORE PUSH32 0x535550504C595F434841494E5F4741505F444554454354454400000000000000 PUSH1 0x20 DUP5 ADD MSTORE PUSH2 0x1220 JUMP JUMPDEST POP POP SWAP6 SWAP1 SWAP3 POP PUSH2 0x5F3 SWAP5 SWAP4 SWAP2 POP PUSH1 0x40 MLOAD SWAP2 PUSH2 0xD43 DUP4 PUSH2 0x4F3 JUMP JUMPDEST PUSH1 0x15 DUP4 MSTORE PUSH21 0x10D3D35413D391539517D0D3D3541493D35254D151 PUSH1 0x5A SHL PUSH1 0x20 DUP5 ADD MSTORE PUSH2 0x1220 JUMP JUMPDEST POP POP SWAP6 SWAP1 SWAP3 POP PUSH2 0x5F3 SWAP5 SWAP4 SWAP2 POP PUSH1 0x40 MLOAD SWAP2 PUSH2 0xD84 DUP4 PUSH2 0x4F3 JUMP JUMPDEST PUSH1 0x13 DUP4 MSTORE PUSH19 0x10D3D35413D391539517D393D517D193D55391 PUSH1 0x6A SHL PUSH1 0x20 DUP5 ADD MSTORE PUSH2 0x1220 JUMP JUMPDEST SWAP2 POP POP RETURNDATASIZE SWAP1 DUP2 DUP4 DUP3 RETURNDATACOPY PUSH2 0xDBC DUP3 DUP3 PUSH2 0x524 JUMP JUMPDEST PUSH1 0x60 DUP2 DUP4 DUP2 ADD SUB SLT PUSH2 0x178 JUMPI DUP1 MLOAD SWAP2 PUSH1 0x1 PUSH1 0x1 PUSH1 0x40 SHL SUB DUP4 GT PUSH2 0x2C6 JUMPI PUSH2 0x1A0 DUP4 DUP4 ADD DUP3 DUP5 ADD SUB SLT PUSH2 0x2C6 JUMPI PUSH1 0x40 MLOAD SWAP3 DUP4 PUSH2 0x1A0 DUP2 ADD LT PUSH1 0x1 PUSH1 0x1 PUSH1 0x40 SHL SUB PUSH2 0x1A0 DUP7 ADD GT OR PUSH2 0x105D JUMPI PUSH2 0x1A0 DUP5 ADD PUSH1 0x40 MSTORE DUP3 DUP2 ADD DUP1 MLOAD DUP6 MSTORE PUSH1 0x20 ADD MLOAD PUSH1 0x1 PUSH1 0x1 PUSH1 0x40 SHL SUB DUP2 GT PUSH2 0x2B1 JUMPI PUSH2 0xE38 SWAP1 DUP4 DUP6 ADD SWAP1 DUP4 DUP7 ADD ADD PUSH2 0x5B1 JUMP JUMPDEST PUSH1 0x20 DUP6 ADD MSTORE PUSH2 0xE4B PUSH1 0x40 DUP3 DUP6 ADD ADD PUSH2 0x5F6 JUMP JUMPDEST PUSH1 0x40 DUP6 ADD MSTORE PUSH1 0x60 DUP2 DUP5 ADD ADD MLOAD PUSH1 0x60 DUP6 ADD MSTORE PUSH2 0xE6A PUSH1 0x80 DUP3 DUP6 ADD ADD PUSH2 0x5F6 JUMP JUMPDEST PUSH1 0x80 DUP6 ADD MSTORE PUSH2 0xE7D PUSH1 0xA0 DUP3 DUP6 ADD ADD PUSH2 0x60A JUMP JUMPDEST PUSH1 0xA0 DUP6 ADD MSTORE DUP3 DUP2 ADD PUSH1 0xC0 DUP2 DUP2 ADD MLOAD SWAP1 DUP7 ADD MSTORE PUSH1 0xE0 DUP1 DUP3 ADD MLOAD SWAP1 DUP7 ADD MSTORE PUSH2 0x100 ADD MLOAD PUSH1 0x1 PUSH1 0x1 PUSH1 0x40 SHL SUB DUP2 GT PUSH2 0x2B1 JUMPI PUSH2 0xEBD SWAP1 DUP4 DUP6 ADD SWAP1 DUP4 DUP7 ADD ADD PUSH2 0x5B1 JUMP JUMPDEST PUSH2 0x100 DUP6 ADD MSTORE PUSH2 0x120 PUSH2 0xED3 DUP2 DUP4 DUP7 ADD ADD PUSH2 0x5A4 JUMP JUMPDEST SWAP1 DUP6 ADD MSTORE PUSH2 0x140 PUSH2 0xEE7 DUP2 DUP4 DUP7 ADD ADD PUSH2 0x5A4 JUMP JUMPDEST SWAP1 DUP6 ADD MSTORE PUSH2 0x160 PUSH2 0xEFB DUP2 DUP4 DUP7 ADD ADD PUSH2 0x5A4 JUMP JUMPDEST SWAP1 DUP6 ADD MSTORE PUSH2 0xF0F PUSH2 0x180 DUP1 SWAP3 DUP6 ADD ADD PUSH2 0x5A4 JUMP JUMPDEST SWAP1 DUP5 ADD MSTORE PUSH1 0x20 DUP3 ADD MLOAD SWAP1 PUSH1 0x1 PUSH1 0x1 PUSH1 0x40 SHL SUB DUP3 GT PUSH2 0x1059 JUMPI DUP1 DUP4 ADD PUSH1 0x1F DUP4 DUP6 ADD ADD SLT ISZERO PUSH2 0x1059 JUMPI DUP2 DUP4 ADD MLOAD SWAP1 PUSH1 0x1 PUSH1 0x1 PUSH1 0x40 SHL SUB DUP3 GT PUSH2 0x1045 JUMPI PUSH1 0x20 PUSH1 0x40 MLOAD PUSH2 0xF5D DUP3 DUP6 PUSH1 0x5 SHL ADD DUP3 PUSH2 0x524 JUMP JUMPDEST DUP4 DUP2 MSTORE ADD SWAP3 DUP2 DUP6 ADD PUSH1 0x20 PUSH1 0xA0 DUP6 MUL DUP4 DUP9 ADD ADD ADD GT PUSH2 0x1041 JUMPI PUSH1 0x20 DUP2 DUP7 ADD ADD SWAP4 JUMPDEST PUSH1 0x20 PUSH1 0xA0 DUP6 MUL DUP4 DUP9 ADD ADD ADD DUP6 LT PUSH2 0xFA5 JUMPI POP POP POP POP POP PUSH1 0x40 PUSH2 0xF9F SWAP2 ADD PUSH2 0x5A4 JUMP JUMPDEST CODESIZE PUSH2 0x7FB JUMP JUMPDEST PUSH1 0xA0 DUP6 DUP5 DUP9 ADD SUB SLT PUSH2 0x103D JUMPI PUSH1 0x40 MLOAD DUP1 PUSH1 0xA0 DUP2 ADD LT PUSH1 0x1 PUSH1 0x1 PUSH1 0x40 SHL SUB PUSH1 0xA0 DUP4 ADD GT OR PUSH2 0x1029 JUMPI PUSH1 0xA0 PUSH1 0x20 DUP1 SWAP5 SWAP4 DUP4 DUP4 DUP1 SWAP6 ADD PUSH1 0x40 MSTORE PUSH2 0xFE4 DUP11 PUSH2 0x5F6 JUMP JUMPDEST DUP2 MSTORE PUSH2 0xFF1 DUP4 DUP12 ADD PUSH2 0x5F6 JUMP JUMPDEST DUP4 DUP3 ADD MSTORE PUSH1 0x40 DUP11 ADD MLOAD PUSH1 0x40 DUP3 ADD MSTORE PUSH1 0x60 DUP11 ADD MLOAD PUSH1 0x60 DUP3 ADD MSTORE PUSH2 0x1015 PUSH1 0x80 DUP12 ADD PUSH2 0x5A4 JUMP JUMPDEST PUSH1 0x80 DUP3 ADD MSTORE DUP2 MSTORE ADD SWAP7 ADD SWAP6 SWAP2 SWAP3 POP POP PUSH2 0xF7D JUMP JUMPDEST PUSH4 0x4E487B71 PUSH1 0xE0 SHL DUP10 MSTORE PUSH1 0x41 PUSH1 0x4 MSTORE PUSH1 0x24 DUP10 REVERT JUMPDEST DUP8 DUP1 REVERT JUMPDEST DUP7 DUP1 REVERT JUMPDEST PUSH4 0x4E487B71 PUSH1 0xE0 SHL DUP7 MSTORE PUSH1 0x41 PUSH1 0x4 MSTORE PUSH1 0x24 DUP7 REVERT JUMPDEST DUP5 DUP1 REVERT JUMPDEST PUSH4 0x4E487B71 PUSH1 0xE0 SHL DUP6 MSTORE PUSH1 0x41 PUSH1 0x4 MSTORE PUSH1 0x24 DUP6 REVERT JUMPDEST SWAP6 SWAP1 SWAP3 POP PUSH2 0x5F3 SWAP5 SWAP4 SWAP2 POP PUSH1 0x40 MLOAD SWAP2 PUSH2 0x1089 DUP4 PUSH2 0x4F3 JUMP JUMPDEST PUSH1 0x17 DUP4 MSTORE PUSH32 0x4F4646494345525F414E4F4D414C595F464C4147474544000000000000000000 PUSH1 0x20 DUP5 ADD MSTORE PUSH2 0x1220 JUMP JUMPDEST SWAP1 POP PUSH1 0x20 DUP2 RETURNDATASIZE PUSH1 0x20 GT PUSH2 0x10EA JUMPI JUMPDEST DUP2 PUSH2 0x10D3 PUSH1 0x20 SWAP4 DUP4 PUSH2 0x524 JUMP JUMPDEST DUP2 ADD SUB SLT PUSH2 0xD0 JUMPI PUSH2 0x10E4 SWAP1 PUSH2 0x5A4 JUMP JUMPDEST CODESIZE PUSH2 0x7BB JUMP JUMPDEST RETURNDATASIZE SWAP2 POP PUSH2 0x10C6 JUMP JUMPDEST SWAP6 SWAP1 SWAP3 POP PUSH2 0x5F3 SWAP5 SWAP4 SWAP2 POP PUSH1 0x40 MLOAD SWAP2 PUSH2 0x110A DUP4 PUSH2 0x4F3 JUMP JUMPDEST PUSH1 0x12 DUP4 MSTORE PUSH18 0x4F4646494345525F4E4F545F414354495645 PUSH1 0x70 SHL PUSH1 0x20 DUP5 ADD MSTORE PUSH2 0x1220 JUMP JUMPDEST SWAP1 POP PUSH1 0x20 DUP2 RETURNDATASIZE PUSH1 0x20 GT PUSH2 0x1160 JUMPI JUMPDEST DUP2 PUSH2 0x1149 PUSH1 0x20 SWAP4 DUP4 PUSH2 0x524 JUMP JUMPDEST DUP2 ADD SUB SLT PUSH2 0xD0 JUMPI PUSH2 0x115A SWAP1 PUSH2 0x5A4 JUMP JUMPDEST CODESIZE PUSH2 0x779 JUMP JUMPDEST RETURNDATASIZE SWAP2 POP PUSH2 0x113C JUMP JUMPDEST SWAP6 SWAP1 SWAP3 POP PUSH2 0x5F3 SWAP5 SWAP4 SWAP2 POP PUSH1 0x40 MLOAD SWAP2 PUSH2 0x1180 DUP4 PUSH2 0x4F3 JUMP JUMPDEST PUSH1 0x18 DUP4 MSTORE PUSH32 0x434F4D50524F4D495345445F4445564943455F544F4B454E0000000000000000 PUSH1 0x20 DUP5 ADD MSTORE PUSH2 0x1220 JUMP JUMPDEST SWAP6 SWAP1 SWAP3 POP PUSH2 0x5F3 SWAP5 SWAP4 SWAP2 POP PUSH1 0x40 MLOAD SWAP2 PUSH2 0x11C7 DUP4 PUSH2 0x4F3 JUMP JUMPDEST PUSH1 0xD DUP4 MSTORE PUSH13 0x14D654D5115357D4105554D151 PUSH1 0x9A SHL PUSH1 0x20 DUP5 ADD MSTORE PUSH2 0x1220 JUMP JUMPDEST SWAP1 POP PUSH1 0x20 DUP2 RETURNDATASIZE PUSH1 0x20 GT PUSH2 0x1218 JUMPI JUMPDEST DUP2 PUSH2 0x1201 PUSH1 0x20 SWAP4 DUP4 PUSH2 0x524 JUMP JUMPDEST DUP2 ADD SUB SLT PUSH2 0xD0 JUMPI PUSH2 0x1212 SWAP1 PUSH2 0x5A4 JUMP JUMPDEST CODESIZE PUSH2 0x71B JUMP JUMPDEST RETURNDATASIZE SWAP2 POP PUSH2 0x11F4 JUMP JUMPDEST DUP3 SWAP2 SWAP5 SWAP4 PUSH1 0x40 MLOAD SWAP5 PUSH1 0x20 SWAP4 DUP5 SWAP2 DUP9 PUSH1 0x0 DUP5 DUP11 ADD SWAP7 PUSH1 0x1 DUP1 PUSH1 0xA0 SHL SUB SWAP8 DUP9 DUP3 AND SWAP12 DUP13 SWAP3 PUSH12 0xFFFFFFFFFFFFFFFFFFFFFFFF NOT SWAP1 PUSH1 0x60 SHL AND DUP3 MSTORE DUP5 PUSH1 0x34 DUP3 ADD MSTORE TIMESTAMP PUSH1 0x54 DUP3 ADD MSTORE PUSH2 0x129D PUSH1 0x7A DUP3 PUSH6 0x111153925151 PUSH1 0xD2 SHL SWAP10 DUP11 PUSH1 0x74 DUP4 ADD MSTORE PUSH2 0x128D DUP13 DUP3 MLOAD SWAP3 DUP4 SWAP2 DUP7 DUP7 ADD SWAP2 ADD PUSH2 0x560 JUMP JUMPDEST DUP2 ADD SUB PUSH1 0x5A DUP2 ADD DUP5 MSTORE ADD DUP3 PUSH2 0x524 JUMP JUMPDEST MLOAD SWAP1 KECCAK256 SWAP8 PUSH1 0x2 SLOAD AND SWAP4 PUSH2 0x1330 PUSH1 0x40 MLOAD SWAP9 DUP10 SWAP8 DUP9 SWAP7 DUP8 SWAP6 PUSH4 0x39804F53 PUSH1 0xE1 SHL DUP8 MSTORE PUSH1 0xE0 PUSH1 0x4 DUP9 ADD MSTORE PUSH1 0x12 PUSH1 0xE4 DUP9 ADD MSTORE PUSH18 0x141493D0D554915351539517D11153925151 PUSH1 0x72 SHL PUSH2 0x104 DUP9 ADD MSTORE PUSH1 0x24 DUP8 ADD MSTORE PUSH1 0x44 DUP7 ADD MSTORE PUSH2 0x120 PUSH1 0x64 DUP7 ADD MSTORE PUSH1 0x6 PUSH2 0x124 DUP7 ADD MSTORE PUSH2 0x144 DUP6 ADD MSTORE PUSH2 0x160 PUSH1 0x84 DUP6 ADD MSTORE PUSH2 0x131E DUP14 PUSH2 0x164 DUP7 ADD SWAP1 PUSH2 0x646 JUMP JUMPDEST DUP5 DUP2 SUB PUSH1 0x3 NOT ADD PUSH1 0xA4 DUP7 ADD MSTORE SWAP1 PUSH2 0x66B JUMP JUMPDEST SWAP1 PUSH1 0xC4 DUP4 ADD MSTORE SUB SWAP3 GAS CALL DUP1 ISZERO PUSH2 0x13C0 JUMPI PUSH2 0x1391 JUMPI JUMPDEST POP SWAP2 PUSH2 0x1381 SWAP2 PUSH32 0x9FA4AE2C35E8FD1027D0545F3FC77A557573B8585DA034B64BBF0527D23368CB SWAP4 PUSH1 0x40 MLOAD SWAP4 DUP5 SWAP4 PUSH1 0x60 DUP6 MSTORE PUSH1 0x60 DUP6 ADD SWAP1 PUSH2 0x646 JUMP JUMPDEST SWAP2 TIMESTAMP SWAP1 DUP5 ADD MSTORE PUSH1 0x40 DUP4 ADD MSTORE SUB SWAP1 LOG3 JUMP JUMPDEST SWAP2 DUP1 SWAP4 SWAP2 SWAP3 DUP2 RETURNDATASIZE DUP4 GT PUSH2 0x13B9 JUMPI JUMPDEST PUSH2 0x13A9 DUP2 DUP4 PUSH2 0x524 JUMP JUMPDEST DUP2 ADD SUB SLT PUSH2 0x4EE JUMPI SWAP2 SWAP1 CODESIZE PUSH2 0x1345 JUMP JUMPDEST POP RETURNDATASIZE PUSH2 0x139F JUMP JUMPDEST PUSH1 0x40 MLOAD RETURNDATASIZE PUSH1 0x0 DUP3 RETURNDATACOPY RETURNDATASIZE SWAP1 REVERT INVALID LOG2 PUSH5 0x6970667358 0x22 SLT KECCAK256 DELEGATECALL 0x2E REVERT GASLIMIT PREVRANDAO 0xEA 0xB1 0xB4 CODESIZE 0xD2 0x22 0xD7 0xAD PUSH10 0x97C2A9D3AB4AFC8DCBED LOG2 DUP13 0x2F 0x4E 0x2A CALLER DUP16 CALLDATACOPY PUSH5 0x736F6C6343 STOP ADDMOD EQ STOP CALLER "},"methodIdentifiers":{"HIGH_VALUE_THRESHOLD()":"ca7b64bb","RATE_LIMIT_COUNT()":"f85e3394","RATE_LIMIT_WINDOW()":"7130dfc9","approveProcurement(address,bytes32,string,bytes32)":"8b1c767c","auditLog()":"5a2d6ebd","circuitBreaker()":"16efd941","componentRegistry()":"ff0039cb","compromisedDeviceTokens(string)":"4cb30320","flagDeviceToken(string)":"1d0da64e","identityRegistry()":"134e18f4","isDeviceTokenCompromised(string)":"59c49248","submitSecondSignature(bytes32)":"6903604e"}}}}}