{"contracts/CircuitBreaker.sol":{"CircuitBreaker":{"abi":[{"inputs":[{"internalType":"address","name":"_governance","type":"address"}],"stateMutability":"nonpayable","type":"constructor"},{"anonymous":false,"inputs":[{"indexed":true,"internalType":"address","name":"governance","type":"address"}],"name":"GovernanceSet","type":"event"},{"anonymous":false,"inputs":[{"indexed":true,"internalType":"address","name":"triggeredBy","type":"address"},{"indexed":false,"internalType":"uint256","name":"timestamp","type":"uint256"}],"name":"SystemPaused","type":"event"},{"anonymous":false,"inputs":[{"indexed":true,"internalType":"address","name":"triggeredBy","type":"address"},{"indexed":false,"internalType":"uint256","name":"timestamp","type":"uint256"}],"name":"SystemUnpaused","type":"event"},{"inputs":[],"name":"governance","outputs":[{"internalType":"address","name":"","type":"address"}],"stateMutability":"view","type":"function"},{"inputs":[],"name":"isPaused","outputs":[{"internalType":"bool","name":"","type":"bool"}],"stateMutability":"view","type":"function"},{"inputs":[],"name":"pause","outputs":[],"stateMutability":"nonpayable","type":"function"},{"inputs":[],"name":"unpause","outputs":[],"stateMutability":"nonpayable","type":"function"}],"evm":{"bytecode":{"linkReferences":{},"object":"6080346100aa57601f61034c38819003918201601f19168301916001600160401b038311848410176100af578084926020946040528339810103126100aa57516001600160a01b038116908181036100aa57600080546001600160a81b03191660089290921b610100600160a81b031691909117815560405191907fc73be659241aade67e9a059bcf21494955018b213dbd1179054ccf928b13f3b69080a261028690816100c68239f35b600080fd5b634e487b7160e01b600052604160045260246000fdfe604060808152600436101561001357600080fd5b600090813560e01c80633f4ba83a146101485780635aa6e6751461011d5780638456cb591461006f5763b187bd261461004b57600080fd5b3461006b578160031936011261006b5760ff602092541690519015158152f35b5080fd5b503461006b578160031936011261006b57815461009a33600883901c6001600160a01b0316146101f3565b60ff81166100d95760019060ff1916178255514281527f5e8b1b247e297b008b631d7d147a69113d08a9419df413f261c6d8c30975b1b360203392a280f35b815162461bcd60e51b815260206004820152601e60248201527f43697263756974427265616b65723a20616c72656164792070617573656400006044820152606490fd5b503461006b578160031936011261006b579054905160089190911c6001600160a01b03168152602090f35b503461006b578160031936011261006b57815461017333600883901c6001600160a01b0316146101f3565b60ff8116156101af5760ff19168255514281527f6ffa4a8726138aebc013004f15b6ddb845335d588515369cd137ce2dc92e995760203392a280f35b815162461bcd60e51b815260206004820152601a60248201527f43697263756974427265616b65723a206e6f74207061757365640000000000006044820152606490fd5b156101fa57565b60405162461bcd60e51b815260206004820152602860248201527f43697263756974427265616b65723a2063616c6c6572206973206e6f7420676f6044820152677665726e616e636560c01b6064820152608490fdfea2646970667358221220d994e33f8bb3f6df6d62ff67ae794396c29c5f76e092d56ce138d11e4721ce8064736f6c63430008140033","opcodes":"PUSH1 0x80 CALLVALUE PUSH2 0xAA JUMPI PUSH1 0x1F PUSH2 0x34C CODESIZE DUP2 SWAP1 SUB SWAP2 DUP3 ADD PUSH1 0x1F NOT AND DUP4 ADD SWAP2 PUSH1 0x1 PUSH1 0x1 PUSH1 0x40 SHL SUB DUP4 GT DUP5 DUP5 LT OR PUSH2 0xAF JUMPI DUP1 DUP5 SWAP3 PUSH1 0x20 SWAP5 PUSH1 0x40 MSTORE DUP4 CODECOPY DUP2 ADD SUB SLT PUSH2 0xAA JUMPI MLOAD PUSH1 0x1 PUSH1 0x1 PUSH1 0xA0 SHL SUB DUP2 AND SWAP1 DUP2 DUP2 SUB PUSH2 0xAA JUMPI PUSH1 0x0 DUP1 SLOAD PUSH1 0x1 PUSH1 0x1 PUSH1 0xA8 SHL SUB NOT AND PUSH1 0x8 SWAP3 SWAP1 SWAP3 SHL PUSH2 0x100 PUSH1 0x1 PUSH1 0xA8 SHL SUB AND SWAP2 SWAP1 SWAP2 OR DUP2 SSTORE PUSH1 0x40 MLOAD SWAP2 SWAP1 PUSH32 0xC73BE659241AADE67E9A059BCF21494955018B213DBD1179054CCF928B13F3B6 SWAP1 DUP1 LOG2 PUSH2 0x286 SWAP1 DUP2 PUSH2 0xC6 DUP3 CODECOPY RETURN JUMPDEST PUSH1 0x0 DUP1 REVERT JUMPDEST PUSH4 0x4E487B71 PUSH1 0xE0 SHL PUSH1 0x0 MSTORE PUSH1 0x41 PUSH1 0x4 MSTORE PUSH1 0x24 PUSH1 0x0 REVERT INVALID PUSH1 0x40 PUSH1 0x80 DUP2 MSTORE PUSH1 0x4 CALLDATASIZE LT ISZERO PUSH2 0x13 JUMPI PUSH1 0x0 DUP1 REVERT JUMPDEST PUSH1 0x0 SWAP1 DUP2 CALLDATALOAD PUSH1 0xE0 SHR DUP1 PUSH4 0x3F4BA83A EQ PUSH2 0x148 JUMPI DUP1 PUSH4 0x5AA6E675 EQ PUSH2 0x11D JUMPI DUP1 PUSH4 0x8456CB59 EQ PUSH2 0x6F JUMPI PUSH4 0xB187BD26 EQ PUSH2 0x4B JUMPI PUSH1 0x0 DUP1 REVERT JUMPDEST CALLVALUE PUSH2 0x6B JUMPI DUP2 PUSH1 0x3 NOT CALLDATASIZE ADD SLT PUSH2 0x6B JUMPI PUSH1 0xFF PUSH1 0x20 SWAP3 SLOAD AND SWAP1 MLOAD SWAP1 ISZERO ISZERO DUP2 MSTORE RETURN JUMPDEST POP DUP1 REVERT JUMPDEST POP CALLVALUE PUSH2 0x6B JUMPI DUP2 PUSH1 0x3 NOT CALLDATASIZE ADD SLT PUSH2 0x6B JUMPI DUP2 SLOAD PUSH2 0x9A CALLER PUSH1 0x8 DUP4 SWAP1 SHR PUSH1 0x1 PUSH1 0x1 PUSH1 0xA0 SHL SUB AND EQ PUSH2 0x1F3 JUMP JUMPDEST PUSH1 0xFF DUP2 AND PUSH2 0xD9 JUMPI PUSH1 0x1 SWAP1 PUSH1 0xFF NOT AND OR DUP3 SSTORE MLOAD TIMESTAMP DUP2 MSTORE PUSH32 0x5E8B1B247E297B008B631D7D147A69113D08A9419DF413F261C6D8C30975B1B3 PUSH1 0x20 CALLER SWAP3 LOG2 DUP1 RETURN JUMPDEST DUP2 MLOAD PUSH3 0x461BCD PUSH1 0xE5 SHL DUP2 MSTORE PUSH1 0x20 PUSH1 0x4 DUP3 ADD MSTORE PUSH1 0x1E PUSH1 0x24 DUP3 ADD MSTORE PUSH32 0x43697263756974427265616B65723A20616C7265616479207061757365640000 PUSH1 0x44 DUP3 ADD MSTORE PUSH1 0x64 SWAP1 REVERT JUMPDEST POP CALLVALUE PUSH2 0x6B JUMPI DUP2 PUSH1 0x3 NOT CALLDATASIZE ADD SLT PUSH2 0x6B JUMPI SWAP1 SLOAD SWAP1 MLOAD PUSH1 0x8 SWAP2 SWAP1 SWAP2 SHR PUSH1 0x1 PUSH1 0x1 PUSH1 0xA0 SHL SUB AND DUP2 MSTORE PUSH1 0x20 SWAP1 RETURN JUMPDEST POP CALLVALUE PUSH2 0x6B JUMPI DUP2 PUSH1 0x3 NOT CALLDATASIZE ADD SLT PUSH2 0x6B JUMPI DUP2 SLOAD PUSH2 0x173 CALLER PUSH1 0x8 DUP4 SWAP1 SHR PUSH1 0x1 PUSH1 0x1 PUSH1 0xA0 SHL SUB AND EQ PUSH2 0x1F3 JUMP JUMPDEST PUSH1 0xFF DUP2 AND ISZERO PUSH2 0x1AF JUMPI PUSH1 0xFF NOT AND DUP3 SSTORE MLOAD TIMESTAMP DUP2 MSTORE PUSH32 0x6FFA4A8726138AEBC013004F15B6DDB845335D588515369CD137CE2DC92E9957 PUSH1 0x20 CALLER SWAP3 LOG2 DUP1 RETURN JUMPDEST DUP2 MLOAD PUSH3 0x461BCD PUSH1 0xE5 SHL DUP2 MSTORE PUSH1 0x20 PUSH1 0x4 DUP3 ADD MSTORE PUSH1 0x1A PUSH1 0x24 DUP3 ADD MSTORE PUSH32 0x43697263756974427265616B65723A206E6F7420706175736564000000000000 PUSH1 0x44 DUP3 ADD MSTORE PUSH1 0x64 SWAP1 REVERT JUMPDEST ISZERO PUSH2 0x1FA JUMPI JUMP JUMPDEST PUSH1 0x40 MLOAD PUSH3 0x461BCD PUSH1 0xE5 SHL DUP2 MSTORE PUSH1 0x20 PUSH1 0x4 DUP3 ADD MSTORE PUSH1 0x28 PUSH1 0x24 DUP3 ADD MSTORE PUSH32 0x43697263756974427265616B65723A2063616C6C6572206973206E6F7420676F PUSH1 0x44 DUP3 ADD MSTORE PUSH8 0x7665726E616E6365 PUSH1 0xC0 SHL PUSH1 0x64 DUP3 ADD MSTORE PUSH1 0x84 SWAP1 REVERT INVALID LOG2 PUSH5 0x6970667358 0x22 SLT KECCAK256 0xD9 SWAP5 0xE3 EXTCODEHASH DUP12 0xB3 0xF6 0xDF PUSH14 0x62FF67AE794396C29C5F76E092D5 PUSH13 0xE138D11E4721CE8064736F6C63 NUMBER STOP ADDMOD EQ STOP CALLER "},"methodIdentifiers":{"governance()":"5aa6e675","isPaused()":"b187bd26","pause()":"8456cb59","unpause()":"3f4ba83a"}}}}}