{"contracts/IdentityRegistry.sol":{"IdentityRegistry":{"abi":[{"inputs":[{"internalType":"address","name":"_governance","type":"address"}],"stateMutability":"nonpayable","type":"constructor"},{"anonymous":false,"inputs":[{"indexed":true,"internalType":"address","name":"wallet","type":"address"},{"indexed":false,"internalType":"bool","name":"flagged","type":"bool"}],"name":"AnomalyFlagged","type":"event"},{"anonymous":false,"inputs":[{"indexed":true,"internalType":"address","name":"wallet","type":"address"},{"indexed":false,"internalType":"uint8","name":"oldLevel","type":"uint8"},{"indexed":false,"internalType":"uint8","name":"newLevel","type":"uint8"},{"indexed":false,"internalType":"uint256","name":"timestamp","type":"uint256"}],"name":"ClearanceUpdated","type":"event"},{"anonymous":false,"inputs":[{"indexed":true,"internalType":"address","name":"wallet","type":"address"},{"indexed":false,"internalType":"uint256","name":"timestamp","type":"uint256"}],"name":"LastAccessUpdated","type":"event"},{"anonymous":false,"inputs":[{"indexed":true,"internalType":"address","name":"wallet","type":"address"},{"indexed":false,"internalType":"enum IdentityRegistry.Rank","name":"rank","type":"uint8"},{"indexed":false,"internalType":"uint8","name":"clearanceLevel","type":"uint8"},{"indexed":false,"internalType":"uint256","name":"timestamp","type":"uint256"}],"name":"SoldierRegistered","type":"event"},{"anonymous":false,"inputs":[{"indexed":true,"internalType":"address","name":"wallet","type":"address"},{"indexed":false,"internalType":"uint256","name":"timestamp","type":"uint256"},{"indexed":false,"internalType":"string","name":"reason","type":"string"}],"name":"SoldierRevoked","type":"event"},{"inputs":[{"internalType":"address","name":"","type":"address"}],"name":"anomalyFlagged","outputs":[{"internalType":"bool","name":"","type":"bool"}],"stateMutability":"view","type":"function"},{"inputs":[{"internalType":"address","name":"wallet","type":"address"},{"internalType":"address","name":"commander1","type":"address"},{"internalType":"address","name":"commander2","type":"address"}],"name":"emergencyRevoke","outputs":[],"stateMutability":"nonpayable","type":"function"},{"inputs":[{"internalType":"address","name":"wallet","type":"address"}],"name":"getClearance","outputs":[{"internalType":"uint8","name":"","type":"uint8"}],"stateMutability":"view","type":"function"},{"inputs":[{"internalType":"address","name":"wallet","type":"address"}],"name":"getSoldier","outputs":[{"internalType":"enum IdentityRegistry.Rank","name":"rank","type":"uint8"},{"internalType":"uint8","name":"clearanceLevel","type":"uint8"},{"internalType":"bool","name":"active","type":"bool"},{"internalType":"uint256","name":"registrationTimestamp","type":"uint256"},{"internalType":"uint256","name":"lastAccessTimestamp","type":"uint256"},{"internalType":"string","name":"didReference","type":"string"}],"stateMutability":"view","type":"function"},{"inputs":[],"name":"getSoldierCount","outputs":[{"internalType":"uint256","name":"","type":"uint256"}],"stateMutability":"view","type":"function"},{"inputs":[],"name":"governance","outputs":[{"internalType":"contract IGovernanceMultiSig","name":"","type":"address"}],"stateMutability":"view","type":"function"},{"inputs":[{"internalType":"address","name":"wallet","type":"address"}],"name":"isActive","outputs":[{"internalType":"bool","name":"","type":"bool"}],"stateMutability":"view","type":"function"},{"inputs":[{"internalType":"address","name":"wallet","type":"address"}],"name":"isAnomalyFlagged","outputs":[{"internalType":"bool","name":"","type":"bool"}],"stateMutability":"view","type":"function"},{"inputs":[{"internalType":"address","name":"wallet","type":"address"},{"internalType":"enum IdentityRegistry.Rank","name":"rank","type":"uint8"},{"internalType":"uint8","name":"clearanceLevel","type":"uint8"},{"internalType":"string","name":"didReference","type":"string"}],"name":"registerSoldier","outputs":[],"stateMutability":"nonpayable","type":"function"},{"inputs":[{"internalType":"address","name":"wallet","type":"address"},{"internalType":"string","name":"reason","type":"string"}],"name":"revokeSoldier","outputs":[],"stateMutability":"nonpayable","type":"function"},{"inputs":[{"internalType":"address","name":"wallet","type":"address"},{"internalType":"bool","name":"flagged","type":"bool"}],"name":"setAnomalyFlag","outputs":[],"stateMutability":"nonpayable","type":"function"},{"inputs":[{"internalType":"uint256","name":"","type":"uint256"}],"name":"soldierList","outputs":[{"internalType":"address","name":"","type":"address"}],"stateMutability":"view","type":"function"},{"inputs":[{"internalType":"address","name":"wallet","type":"address"},{"internalType":"uint8","name":"newLevel","type":"uint8"}],"name":"updateClearance","outputs":[],"stateMutability":"nonpayable","type":"function"},{"inputs":[{"internalType":"address","name":"wallet","type":"address"}],"name":"updateLastAccess","outputs":[],"stateMutability":"nonpayable","type":"function"}],"evm":{"bytecode":{"linkReferences":{},"object":"60803461007457601f61129f38819003918201601f19168301916001600160401b038311848410176100795780849260209460405283398101031261007457516001600160a01b0381169081900361007457600080546001600160a01b03191691909117905560405161120f90816100908239f35b600080fd5b634e487b7160e01b600052604160045260246000fdfe608080604052600436101561001357600080fd5b60003560e01c9081630ffa1e6714610f1a575080633655c3b914610e345780634f3d520c14610dd757806355fd410914610d955780635aa6e67514610d6c5780635b962d2d14610d2d5780635f11cd7014610c28578063606a437314610b1f5780639f8a13d714610af2578063b85a04c914610ad4578063c835faa114610862578063e1b66fdd1461041b578063e8900e581461020c5763eac1cf4a146100b957600080fd5b34610207576040366003190112610207576100d2610f55565b60243590811515808303610207576000546001600160a01b0391908216338114908115610196575b5015610151576101486020927f423263acd6a3498487f06de8a9bebf9183d8c3b5349a87d3561419f2a3054114941694856000526002845260406000209060ff801983541691151516179055565b604051908152a2005b60405162461bcd60e51b815260206004820152601e60248201527f4964656e7469747952656769737472793a20756e617574686f72697a656400006044820152606490fd5b60405163022d3ba160e01b81523360048201529150602090829060249082905afa9081156101fb576000916101cd575b50386100fa565b6101ee915060203d81116101f4575b6101e681836110cd565b81019061118d565b386101c6565b503d6101dc565b6040513d6000823e3d90fd5b600080fd5b34610207576020366003190112610207576001600160a01b038061022e610f55565b1680600052600160205261024c60ff60046040600020015416611135565b600052600160205260406000209060ff60405191610269836110b0565b83549081168352610282828260a01c16602085016110ef565b818160a81c16604084015260b01c161515606082015260018201546080820152600282015460a0820152600382019160405180936000908054906102c5826110fb565b80855291600181169081156103f357506001146103b2575b5050916102f060049260ff9403866110cd565b60c08401948552015416151560e0820152602081015191600583101561039c5760ff604083015116916060810151151560a0608083015192015192519361033a6040518097610fe6565b602086015260408501526060840152608083015260c060a0830152818151918260c083015260005b83811061038457505081600060e0809484010152601f80199101168101030190f35b602082820181015160e0878401015285935001610362565b634e487b7160e01b600052602160045260246000fd5b6000908152602081209092505b8183106103d757505081016020016102f060046102dd565b6020919350806001915483858a010152019101909185926103bf565b60ff191660208087019190915292151560051b850190920192506102f09150600490506102dd565b3461020757608036600319011261020757610434610f55565b60056024351015610207576044359060ff821682036102075760643567ffffffffffffffff81116102075761046d903690600401610fb8565b6000546001600160a01b031633148015610845575b61048b90610ff3565b6001600160a01b03831660009081526001602052604090206004015460ff166107eb57600160ff85161015806107dd575b6104c590611052565b604051906104d2826110b0565b6001600160a01b03841682526104ed602435602084016110ef565b60ff85166040830152600160608301524260808301524260a083015267ffffffffffffffff81116106fe5760405192610530601f8301601f1916602001856110cd565b81845236828201116102075781600092602092838701378401015260c08101918252600160e082015260018060a01b038316600052600160205260406000209160018060a01b038251168354906020840151600581101561039c576040850151606086015160a89190911b60ff60a81b1660a092831b60ff60a01b1661ffff60a81b19949094166001600160b81b03199590951694909417929092179290921790151560b01b60ff60b01b161784556080830151600185015582015160028401555180519067ffffffffffffffff82116106fe5761061160038501546110fb565b601f8111610796575b50602090601f831160011461071f57928260049360e09361066d9796600092610714575b50508160011b916000199060031b1c19161760038501555b0151151591019060ff801983541691151516179055565b600354680100000000000000008110156106fe577fef38ffd36f4ebb11e8792e6d7167f35c5270b6e4a0634d964035508b11ea2df0916106b582600160609401600355610f6b565b81546001600160a01b0384811660039390931b92831b921b19161790556040519360ff906106e586602435610fe6565b1660208501524260408501526001600160a01b031692a2005b634e487b7160e01b600052604160045260246000fd5b01519050898061063e565b90601f198316916003860160005260206000209260005b81811061077e57509360e09361066d9796936001938360049810610765575b505050811b016003850155610656565b015160001960f88460031b161c19169055898080610755565b92936020600181928786015181550195019301610736565b600385016000526020600020601f840160051c8101602085106107d6575b601f830160051c820181106107ca57505061061a565b600081556001016107b4565b50806107b4565b50600560ff851611156104bc565b60405162461bcd60e51b815260206004820152602c60248201527f4964656e7469747952656769737472793a20736f6c6469657220616c7265616460448201526b1e481c9959da5cdd195c995960a21b6064820152608490fd5b503373f39fd6e51aad88f6f4ce6ab8827279cfffb9226614610482565b346102075760603660031901126102075761087b610f55565b6001600160a01b0360248035828116939190849003610207576044358381168091036102075760005460405163022d3ba160e01b808252600482018890526020979287169188818781865afa9081156101fb57600091610ab7575b5015610a64578790856040518094819382528760048301525afa9081156101fb57600091610a47575b50156109f457146109b257507f6161bef668266c944aa598ceb3a83b1877ce52493e134931ed59bf63225505859160a0911692836000526001815261094e60ff60046040600020015416611135565b8360005260018152604060002060ff60b01b1981541690556040805191428352820152602860408201527f456d657267656e6379207265766f636174696f6e20627920636f6d6d616e6465606082015267722071756f72756d60c01b6080820152a2005b606490846040519162461bcd60e51b83528160048401528201527f4964656e7469747952656769737472793a2073616d6520636f6d6d616e6465726044820152fd5b60405162461bcd60e51b8152600481018790526026818501527f4964656e7469747952656769737472793a20636f6d6d616e64657232206e6f74604482015265081d985b1a5960d21b6064820152608490fd5b610a5e9150873d89116101f4576101e681836110cd565b876108ff565b60405162461bcd60e51b8152600481018990526026818701527f4964656e7469747952656769737472793a20636f6d6d616e64657231206e6f74604482015265081d985b1a5960d21b6064820152608490fd5b610ace9150893d8b116101f4576101e681836110cd565b896108d6565b34610207576000366003190112610207576020600354604051908152f35b34610207576020366003190112610207576020610b15610b10610f55565b6111a5565b6040519015158152f35b3461020757604036600319011261020757610b38610f55565b60243560ff811691828203610207577f3ac7f3847d8b15c70361bc711c74ce1cb0de5f5703f988aaeab15a68f63228659160609160018060a01b0390816000541633148015610c0b575b610b8b90610ff3565b1693846000526001602052610baa60ff60046040600020015416611135565b600181101580610c00575b610bbe90611052565b6000858152600160205260409020805460ff60a81b19811660a894851b60ff60a81b161790915590911c60ff16906040519182526020820152426040820152a2005b506005811115610bb5565b503373f39fd6e51aad88f6f4ce6ab8827279cfffb9226614610b82565b3461020757604036600319011261020757610c41610f55565b60243567ffffffffffffffff8111610207576060610c847f6161bef668266c944aa598ceb3a83b1877ce52493e134931ed59bf6322550585923690600401610fb8565b91909360018060a01b0390816000541633148015610d10575b610ca690610ff3565b1693846000526001602052610cc560ff60046040600020015416611135565b846000526001602052604060002060ff60b01b1981541690558260405193849242845260406020850152816040850152848401376000828201840152601f01601f19168101030190a2005b503373f39fd6e51aad88f6f4ce6ab8827279cfffb9226614610c9d565b34610207576020366003190112610207576001600160a01b03610d4e610f55565b166000526002602052602060ff604060002054166040519015158152f35b34610207576000366003190112610207576000546040516001600160a01b039091168152602090f35b346102075760203660031901126102075760043560035481101561020757610dbe602091610f6b565b905460405160039290921b1c6001600160a01b03168152f35b34610207576020366003190112610207576001600160a01b03610df8610f55565b16806000526001602052610e1660ff60046040600020015416611135565b6000526001602052602060ff60406000205460a81c16604051908152f35b3461020757602080600319360112610207576001600160a01b03610e56610f55565b16908160005260018152610e7460ff60046040600020015416611135565b816000526001815260ff60406000205460b01c1615610eca577f328b0a784b287fd38e5b3d92b9682a21cb41173b23d9bfe58b90f562ddd80ffc90826000526001815242600260406000200155604051428152a2005b6084906040519062461bcd60e51b825260048201526024808201527f4964656e7469747952656769737472793a20736f6c64696572206e6f742061636044820152637469766560e01b6064820152fd5b34610207576020366003190112610207576020906001600160a01b03610f3e610f55565b166000526002825260ff6040600020541615158152f35b600435906001600160a01b038216820361020757565b600354811015610fa25760036000527fc2575a0e9e593c00f959f8c92f12db2869c3395a3b0502d05e2516446f71f85b0190600090565b634e487b7160e01b600052603260045260246000fd5b9181601f840112156102075782359167ffffffffffffffff8311610207576020838186019501011161020757565b90600582101561039c5752565b15610ffa57565b60405162461bcd60e51b815260206004820152602a60248201527f4964656e7469747952656769737472793a2063616c6c6572206973206e6f7420604482015269676f7665726e616e636560b01b6064820152608490fd5b1561105957565b60405162461bcd60e51b815260206004820152602960248201527f4964656e7469747952656769737472793a20696e76616c696420636c656172616044820152681b98d9481b195d995b60ba1b6064820152608490fd5b610100810190811067ffffffffffffffff8211176106fe57604052565b90601f8019910116810190811067ffffffffffffffff8211176106fe57604052565b600582101561039c5752565b90600182811c9216801561112b575b602083101461111557565b634e487b7160e01b600052602260045260246000fd5b91607f169161110a565b1561113c57565b60405162461bcd60e51b815260206004820152602360248201527f4964656e7469747952656769737472793a20736f6c64696572206e6f7420666f6044820152621d5b9960ea1b6064820152608490fd5b90816020910312610207575180151581036102075790565b6001600160a01b03166000908152600160205260409020600481015460ff16156111d3575460b01c60ff1690565b5060009056fea2646970667358221220dcaaf6294e19cc7bdafd836362494e1f1c5b554a62eed6be2668e60f4fc14d8964736f6c63430008140033","opcodes":"PUSH1 0x80 CALLVALUE PUSH2 0x74 JUMPI PUSH1 0x1F PUSH2 0x129F CODESIZE DUP2 SWAP1 SUB SWAP2 DUP3 ADD PUSH1 0x1F NOT AND DUP4 ADD SWAP2 PUSH1 0x1 PUSH1 0x1 PUSH1 0x40 SHL SUB DUP4 GT DUP5 DUP5 LT OR PUSH2 0x79 JUMPI DUP1 DUP5 SWAP3 PUSH1 0x20 SWAP5 PUSH1 0x40 MSTORE DUP4 CODECOPY DUP2 ADD SUB SLT PUSH2 0x74 JUMPI MLOAD PUSH1 0x1 PUSH1 0x1 PUSH1 0xA0 SHL SUB DUP2 AND SWAP1 DUP2 SWAP1 SUB PUSH2 0x74 JUMPI PUSH1 0x0 DUP1 SLOAD PUSH1 0x1 PUSH1 0x1 PUSH1 0xA0 SHL SUB NOT AND SWAP2 SWAP1 SWAP2 OR SWAP1 SSTORE PUSH1 0x40 MLOAD PUSH2 0x120F SWAP1 DUP2 PUSH2 0x90 DUP3 CODECOPY RETURN JUMPDEST PUSH1 0x0 DUP1 REVERT JUMPDEST PUSH4 0x4E487B71 PUSH1 0xE0 SHL PUSH1 0x0 MSTORE PUSH1 0x41 PUSH1 0x4 MSTORE PUSH1 0x24 PUSH1 0x0 REVERT INVALID PUSH1 0x80 DUP1 PUSH1 0x40 MSTORE PUSH1 0x4 CALLDATASIZE LT ISZERO PUSH2 0x13 JUMPI PUSH1 0x0 DUP1 REVERT JUMPDEST PUSH1 0x0 CALLDATALOAD PUSH1 0xE0 SHR SWAP1 DUP2 PUSH4 0xFFA1E67 EQ PUSH2 0xF1A JUMPI POP DUP1 PUSH4 0x3655C3B9 EQ PUSH2 0xE34 JUMPI DUP1 PUSH4 0x4F3D520C EQ PUSH2 0xDD7 JUMPI DUP1 PUSH4 0x55FD4109 EQ PUSH2 0xD95 JUMPI DUP1 PUSH4 0x5AA6E675 EQ PUSH2 0xD6C JUMPI DUP1 PUSH4 0x5B962D2D EQ PUSH2 0xD2D JUMPI DUP1 PUSH4 0x5F11CD70 EQ PUSH2 0xC28 JUMPI DUP1 PUSH4 0x606A4373 EQ PUSH2 0xB1F JUMPI DUP1 PUSH4 0x9F8A13D7 EQ PUSH2 0xAF2 JUMPI DUP1 PUSH4 0xB85A04C9 EQ PUSH2 0xAD4 JUMPI DUP1 PUSH4 0xC835FAA1 EQ PUSH2 0x862 JUMPI DUP1 PUSH4 0xE1B66FDD EQ PUSH2 0x41B JUMPI DUP1 PUSH4 0xE8900E58 EQ PUSH2 0x20C JUMPI PUSH4 0xEAC1CF4A EQ PUSH2 0xB9 JUMPI PUSH1 0x0 DUP1 REVERT JUMPDEST CALLVALUE PUSH2 0x207 JUMPI PUSH1 0x40 CALLDATASIZE PUSH1 0x3 NOT ADD SLT PUSH2 0x207 JUMPI PUSH2 0xD2 PUSH2 0xF55 JUMP JUMPDEST PUSH1 0x24 CALLDATALOAD SWAP1 DUP2 ISZERO ISZERO DUP1 DUP4 SUB PUSH2 0x207 JUMPI PUSH1 0x0 SLOAD PUSH1 0x1 PUSH1 0x1 PUSH1 0xA0 SHL SUB SWAP2 SWAP1 DUP3 AND CALLER DUP2 EQ SWAP1 DUP2 ISZERO PUSH2 0x196 JUMPI JUMPDEST POP ISZERO PUSH2 0x151 JUMPI PUSH2 0x148 PUSH1 0x20 SWAP3 PUSH32 0x423263ACD6A3498487F06DE8A9BEBF9183D8C3B5349A87D3561419F2A3054114 SWAP5 AND SWAP5 DUP6 PUSH1 0x0 MSTORE PUSH1 0x2 DUP5 MSTORE PUSH1 0x40 PUSH1 0x0 KECCAK256 SWAP1 PUSH1 0xFF DUP1 NOT DUP4 SLOAD AND SWAP2 ISZERO ISZERO AND OR SWAP1 SSTORE JUMP JUMPDEST PUSH1 0x40 MLOAD SWAP1 DUP2 MSTORE LOG2 STOP JUMPDEST PUSH1 0x40 MLOAD PUSH3 0x461BCD PUSH1 0xE5 SHL DUP2 MSTORE PUSH1 0x20 PUSH1 0x4 DUP3 ADD MSTORE PUSH1 0x1E PUSH1 0x24 DUP3 ADD MSTORE PUSH32 0x4964656E7469747952656769737472793A20756E617574686F72697A65640000 PUSH1 0x44 DUP3 ADD MSTORE PUSH1 0x64 SWAP1 REVERT JUMPDEST PUSH1 0x40 MLOAD PUSH4 0x22D3BA1 PUSH1 0xE0 SHL DUP2 MSTORE CALLER PUSH1 0x4 DUP3 ADD MSTORE SWAP2 POP PUSH1 0x20 SWAP1 DUP3 SWAP1 PUSH1 0x24 SWAP1 DUP3 SWAP1 GAS STATICCALL SWAP1 DUP2 ISZERO PUSH2 0x1FB JUMPI PUSH1 0x0 SWAP2 PUSH2 0x1CD JUMPI JUMPDEST POP CODESIZE PUSH2 0xFA JUMP JUMPDEST PUSH2 0x1EE SWAP2 POP PUSH1 0x20 RETURNDATASIZE DUP2 GT PUSH2 0x1F4 JUMPI JUMPDEST PUSH2 0x1E6 DUP2 DUP4 PUSH2 0x10CD JUMP JUMPDEST DUP2 ADD SWAP1 PUSH2 0x118D JUMP JUMPDEST CODESIZE PUSH2 0x1C6 JUMP JUMPDEST POP RETURNDATASIZE PUSH2 0x1DC JUMP JUMPDEST PUSH1 0x40 MLOAD RETURNDATASIZE PUSH1 0x0 DUP3 RETURNDATACOPY RETURNDATASIZE SWAP1 REVERT JUMPDEST PUSH1 0x0 DUP1 REVERT JUMPDEST CALLVALUE PUSH2 0x207 JUMPI PUSH1 0x20 CALLDATASIZE PUSH1 0x3 NOT ADD SLT PUSH2 0x207 JUMPI PUSH1 0x1 PUSH1 0x1 PUSH1 0xA0 SHL SUB DUP1 PUSH2 0x22E PUSH2 0xF55 JUMP JUMPDEST AND DUP1 PUSH1 0x0 MSTORE PUSH1 0x1 PUSH1 0x20 MSTORE PUSH2 0x24C PUSH1 0xFF PUSH1 0x4 PUSH1 0x40 PUSH1 0x0 KECCAK256 ADD SLOAD AND PUSH2 0x1135 JUMP JUMPDEST PUSH1 0x0 MSTORE PUSH1 0x1 PUSH1 0x20 MSTORE PUSH1 0x40 PUSH1 0x0 KECCAK256 SWAP1 PUSH1 0xFF PUSH1 0x40 MLOAD SWAP2 PUSH2 0x269 DUP4 PUSH2 0x10B0 JUMP JUMPDEST DUP4 SLOAD SWAP1 DUP2 AND DUP4 MSTORE PUSH2 0x282 DUP3 DUP3 PUSH1 0xA0 SHR AND PUSH1 0x20 DUP6 ADD PUSH2 0x10EF JUMP JUMPDEST DUP2 DUP2 PUSH1 0xA8 SHR AND PUSH1 0x40 DUP5 ADD MSTORE PUSH1 0xB0 SHR AND ISZERO ISZERO PUSH1 0x60 DUP3 ADD MSTORE PUSH1 0x1 DUP3 ADD SLOAD PUSH1 0x80 DUP3 ADD MSTORE PUSH1 0x2 DUP3 ADD SLOAD PUSH1 0xA0 DUP3 ADD MSTORE PUSH1 0x3 DUP3 ADD SWAP2 PUSH1 0x40 MLOAD DUP1 SWAP4 PUSH1 0x0 SWAP1 DUP1 SLOAD SWAP1 PUSH2 0x2C5 DUP3 PUSH2 0x10FB JUMP JUMPDEST DUP1 DUP6 MSTORE SWAP2 PUSH1 0x1 DUP2 AND SWAP1 DUP2 ISZERO PUSH2 0x3F3 JUMPI POP PUSH1 0x1 EQ PUSH2 0x3B2 JUMPI JUMPDEST POP POP SWAP2 PUSH2 0x2F0 PUSH1 0x4 SWAP3 PUSH1 0xFF SWAP5 SUB DUP7 PUSH2 0x10CD JUMP JUMPDEST PUSH1 0xC0 DUP5 ADD SWAP5 DUP6 MSTORE ADD SLOAD AND ISZERO ISZERO PUSH1 0xE0 DUP3 ADD MSTORE PUSH1 0x20 DUP2 ADD MLOAD SWAP2 PUSH1 0x5 DUP4 LT ISZERO PUSH2 0x39C JUMPI PUSH1 0xFF PUSH1 0x40 DUP4 ADD MLOAD AND SWAP2 PUSH1 0x60 DUP2 ADD MLOAD ISZERO ISZERO PUSH1 0xA0 PUSH1 0x80 DUP4 ADD MLOAD SWAP3 ADD MLOAD SWAP3 MLOAD SWAP4 PUSH2 0x33A PUSH1 0x40 MLOAD DUP1 SWAP8 PUSH2 0xFE6 JUMP JUMPDEST PUSH1 0x20 DUP7 ADD MSTORE PUSH1 0x40 DUP6 ADD MSTORE PUSH1 0x60 DUP5 ADD MSTORE PUSH1 0x80 DUP4 ADD MSTORE PUSH1 0xC0 PUSH1 0xA0 DUP4 ADD MSTORE DUP2 DUP2 MLOAD SWAP2 DUP3 PUSH1 0xC0 DUP4 ADD MSTORE PUSH1 0x0 JUMPDEST DUP4 DUP2 LT PUSH2 0x384 JUMPI POP POP DUP2 PUSH1 0x0 PUSH1 0xE0 DUP1 SWAP5 DUP5 ADD ADD MSTORE PUSH1 0x1F DUP1 NOT SWAP2 ADD AND DUP2 ADD SUB ADD SWAP1 RETURN JUMPDEST PUSH1 0x20 DUP3 DUP3 ADD DUP2 ADD MLOAD PUSH1 0xE0 DUP8 DUP5 ADD ADD MSTORE DUP6 SWAP4 POP ADD PUSH2 0x362 JUMP JUMPDEST PUSH4 0x4E487B71 PUSH1 0xE0 SHL PUSH1 0x0 MSTORE PUSH1 0x21 PUSH1 0x4 MSTORE PUSH1 0x24 PUSH1 0x0 REVERT JUMPDEST PUSH1 0x0 SWAP1 DUP2 MSTORE PUSH1 0x20 DUP2 KECCAK256 SWAP1 SWAP3 POP JUMPDEST DUP2 DUP4 LT PUSH2 0x3D7 JUMPI POP POP DUP2 ADD PUSH1 0x20 ADD PUSH2 0x2F0 PUSH1 0x4 PUSH2 0x2DD JUMP JUMPDEST PUSH1 0x20 SWAP2 SWAP4 POP DUP1 PUSH1 0x1 SWAP2 SLOAD DUP4 DUP6 DUP11 ADD ADD MSTORE ADD SWAP2 ADD SWAP1 SWAP2 DUP6 SWAP3 PUSH2 0x3BF JUMP JUMPDEST PUSH1 0xFF NOT AND PUSH1 0x20 DUP1 DUP8 ADD SWAP2 SWAP1 SWAP2 MSTORE SWAP3 ISZERO ISZERO PUSH1 0x5 SHL DUP6 ADD SWAP1 SWAP3 ADD SWAP3 POP PUSH2 0x2F0 SWAP2 POP PUSH1 0x4 SWAP1 POP PUSH2 0x2DD JUMP JUMPDEST CALLVALUE PUSH2 0x207 JUMPI PUSH1 0x80 CALLDATASIZE PUSH1 0x3 NOT ADD SLT PUSH2 0x207 JUMPI PUSH2 0x434 PUSH2 0xF55 JUMP JUMPDEST PUSH1 0x5 PUSH1 0x24 CALLDATALOAD LT ISZERO PUSH2 0x207 JUMPI PUSH1 0x44 CALLDATALOAD SWAP1 PUSH1 0xFF DUP3 AND DUP3 SUB PUSH2 0x207 JUMPI PUSH1 0x64 CALLDATALOAD PUSH8 0xFFFFFFFFFFFFFFFF DUP2 GT PUSH2 0x207 JUMPI PUSH2 0x46D SWAP1 CALLDATASIZE SWAP1 PUSH1 0x4 ADD PUSH2 0xFB8 JUMP JUMPDEST PUSH1 0x0 SLOAD PUSH1 0x1 PUSH1 0x1 PUSH1 0xA0 SHL SUB AND CALLER EQ DUP1 ISZERO PUSH2 0x845 JUMPI JUMPDEST PUSH2 0x48B SWAP1 PUSH2 0xFF3 JUMP JUMPDEST PUSH1 0x1 PUSH1 0x1 PUSH1 0xA0 SHL SUB DUP4 AND PUSH1 0x0 SWAP1 DUP2 MSTORE PUSH1 0x1 PUSH1 0x20 MSTORE PUSH1 0x40 SWAP1 KECCAK256 PUSH1 0x4 ADD SLOAD PUSH1 0xFF AND PUSH2 0x7EB JUMPI PUSH1 0x1 PUSH1 0xFF DUP6 AND LT ISZERO DUP1 PUSH2 0x7DD JUMPI JUMPDEST PUSH2 0x4C5 SWAP1 PUSH2 0x1052 JUMP JUMPDEST PUSH1 0x40 MLOAD SWAP1 PUSH2 0x4D2 DUP3 PUSH2 0x10B0 JUMP JUMPDEST PUSH1 0x1 PUSH1 0x1 PUSH1 0xA0 SHL SUB DUP5 AND DUP3 MSTORE PUSH2 0x4ED PUSH1 0x24 CALLDATALOAD PUSH1 0x20 DUP5 ADD PUSH2 0x10EF JUMP JUMPDEST PUSH1 0xFF DUP6 AND PUSH1 0x40 DUP4 ADD MSTORE PUSH1 0x1 PUSH1 0x60 DUP4 ADD MSTORE TIMESTAMP PUSH1 0x80 DUP4 ADD MSTORE TIMESTAMP PUSH1 0xA0 DUP4 ADD MSTORE PUSH8 0xFFFFFFFFFFFFFFFF DUP2 GT PUSH2 0x6FE JUMPI PUSH1 0x40 MLOAD SWAP3 PUSH2 0x530 PUSH1 0x1F DUP4 ADD PUSH1 0x1F NOT AND PUSH1 0x20 ADD DUP6 PUSH2 0x10CD JUMP JUMPDEST DUP2 DUP5 MSTORE CALLDATASIZE DUP3 DUP3 ADD GT PUSH2 0x207 JUMPI DUP2 PUSH1 0x0 SWAP3 PUSH1 0x20 SWAP3 DUP4 DUP8 ADD CALLDATACOPY DUP5 ADD ADD MSTORE PUSH1 0xC0 DUP2 ADD SWAP2 DUP3 MSTORE PUSH1 0x1 PUSH1 0xE0 DUP3 ADD MSTORE PUSH1 0x1 DUP1 PUSH1 0xA0 SHL SUB DUP4 AND PUSH1 0x0 MSTORE PUSH1 0x1 PUSH1 0x20 MSTORE PUSH1 0x40 PUSH1 0x0 KECCAK256 SWAP2 PUSH1 0x1 DUP1 PUSH1 0xA0 SHL SUB DUP3 MLOAD AND DUP4 SLOAD SWAP1 PUSH1 0x20 DUP5 ADD MLOAD PUSH1 0x5 DUP2 LT ISZERO PUSH2 0x39C JUMPI PUSH1 0x40 DUP6 ADD MLOAD PUSH1 0x60 DUP7 ADD MLOAD PUSH1 0xA8 SWAP2 SWAP1 SWAP2 SHL PUSH1 0xFF PUSH1 0xA8 SHL AND PUSH1 0xA0 SWAP3 DUP4 SHL PUSH1 0xFF PUSH1 0xA0 SHL AND PUSH2 0xFFFF PUSH1 0xA8 SHL NOT SWAP5 SWAP1 SWAP5 AND PUSH1 0x1 PUSH1 0x1 PUSH1 0xB8 SHL SUB NOT SWAP6 SWAP1 SWAP6 AND SWAP5 SWAP1 SWAP5 OR SWAP3 SWAP1 SWAP3 OR SWAP3 SWAP1 SWAP3 OR SWAP1 ISZERO ISZERO PUSH1 0xB0 SHL PUSH1 0xFF PUSH1 0xB0 SHL AND OR DUP5 SSTORE PUSH1 0x80 DUP4 ADD MLOAD PUSH1 0x1 DUP6 ADD SSTORE DUP3 ADD MLOAD PUSH1 0x2 DUP5 ADD SSTORE MLOAD DUP1 MLOAD SWAP1 PUSH8 0xFFFFFFFFFFFFFFFF DUP3 GT PUSH2 0x6FE JUMPI PUSH2 0x611 PUSH1 0x3 DUP6 ADD SLOAD PUSH2 0x10FB JUMP JUMPDEST PUSH1 0x1F DUP2 GT PUSH2 0x796 JUMPI JUMPDEST POP PUSH1 0x20 SWAP1 PUSH1 0x1F DUP4 GT PUSH1 0x1 EQ PUSH2 0x71F JUMPI SWAP3 DUP3 PUSH1 0x4 SWAP4 PUSH1 0xE0 SWAP4 PUSH2 0x66D SWAP8 SWAP7 PUSH1 0x0 SWAP3 PUSH2 0x714 JUMPI JUMPDEST POP POP DUP2 PUSH1 0x1 SHL SWAP2 PUSH1 0x0 NOT SWAP1 PUSH1 0x3 SHL SHR NOT AND OR PUSH1 0x3 DUP6 ADD SSTORE JUMPDEST ADD MLOAD ISZERO ISZERO SWAP2 ADD SWAP1 PUSH1 0xFF DUP1 NOT DUP4 SLOAD AND SWAP2 ISZERO ISZERO AND OR SWAP1 SSTORE JUMP JUMPDEST PUSH1 0x3 SLOAD PUSH9 0x10000000000000000 DUP2 LT ISZERO PUSH2 0x6FE JUMPI PUSH32 0xEF38FFD36F4EBB11E8792E6D7167F35C5270B6E4A0634D964035508B11EA2DF0 SWAP2 PUSH2 0x6B5 DUP3 PUSH1 0x1 PUSH1 0x60 SWAP5 ADD PUSH1 0x3 SSTORE PUSH2 0xF6B JUMP JUMPDEST DUP2 SLOAD PUSH1 0x1 PUSH1 0x1 PUSH1 0xA0 SHL SUB DUP5 DUP2 AND PUSH1 0x3 SWAP4 SWAP1 SWAP4 SHL SWAP3 DUP4 SHL SWAP3 SHL NOT AND OR SWAP1 SSTORE PUSH1 0x40 MLOAD SWAP4 PUSH1 0xFF SWAP1 PUSH2 0x6E5 DUP7 PUSH1 0x24 CALLDATALOAD PUSH2 0xFE6 JUMP JUMPDEST AND PUSH1 0x20 DUP6 ADD MSTORE TIMESTAMP PUSH1 0x40 DUP6 ADD MSTORE PUSH1 0x1 PUSH1 0x1 PUSH1 0xA0 SHL SUB AND SWAP3 LOG2 STOP JUMPDEST PUSH4 0x4E487B71 PUSH1 0xE0 SHL PUSH1 0x0 MSTORE PUSH1 0x41 PUSH1 0x4 MSTORE PUSH1 0x24 PUSH1 0x0 REVERT JUMPDEST ADD MLOAD SWAP1 POP DUP10 DUP1 PUSH2 0x63E JUMP JUMPDEST SWAP1 PUSH1 0x1F NOT DUP4 AND SWAP2 PUSH1 0x3 DUP7 ADD PUSH1 0x0 MSTORE PUSH1 0x20 PUSH1 0x0 KECCAK256 SWAP3 PUSH1 0x0 JUMPDEST DUP2 DUP2 LT PUSH2 0x77E JUMPI POP SWAP4 PUSH1 0xE0 SWAP4 PUSH2 0x66D SWAP8 SWAP7 SWAP4 PUSH1 0x1 SWAP4 DUP4 PUSH1 0x4 SWAP9 LT PUSH2 0x765 JUMPI JUMPDEST POP POP POP DUP2 SHL ADD PUSH1 0x3 DUP6 ADD SSTORE PUSH2 0x656 JUMP JUMPDEST ADD MLOAD PUSH1 0x0 NOT PUSH1 0xF8 DUP5 PUSH1 0x3 SHL AND SHR NOT AND SWAP1 SSTORE DUP10 DUP1 DUP1 PUSH2 0x755 JUMP JUMPDEST SWAP3 SWAP4 PUSH1 0x20 PUSH1 0x1 DUP2 SWAP3 DUP8 DUP7 ADD MLOAD DUP2 SSTORE ADD SWAP6 ADD SWAP4 ADD PUSH2 0x736 JUMP JUMPDEST PUSH1 0x3 DUP6 ADD PUSH1 0x0 MSTORE PUSH1 0x20 PUSH1 0x0 KECCAK256 PUSH1 0x1F DUP5 ADD PUSH1 0x5 SHR DUP2 ADD PUSH1 0x20 DUP6 LT PUSH2 0x7D6 JUMPI JUMPDEST PUSH1 0x1F DUP4 ADD PUSH1 0x5 SHR DUP3 ADD DUP2 LT PUSH2 0x7CA JUMPI POP POP PUSH2 0x61A JUMP JUMPDEST PUSH1 0x0 DUP2 SSTORE PUSH1 0x1 ADD PUSH2 0x7B4 JUMP JUMPDEST POP DUP1 PUSH2 0x7B4 JUMP JUMPDEST POP PUSH1 0x5 PUSH1 0xFF DUP6 AND GT ISZERO PUSH2 0x4BC JUMP JUMPDEST PUSH1 0x40 MLOAD PUSH3 0x461BCD PUSH1 0xE5 SHL DUP2 MSTORE PUSH1 0x20 PUSH1 0x4 DUP3 ADD MSTORE PUSH1 0x2C PUSH1 0x24 DUP3 ADD MSTORE PUSH32 0x4964656E7469747952656769737472793A20736F6C6469657220616C72656164 PUSH1 0x44 DUP3 ADD MSTORE PUSH12 0x1E481C9959DA5CDD195C9959 PUSH1 0xA2 SHL PUSH1 0x64 DUP3 ADD MSTORE PUSH1 0x84 SWAP1 REVERT JUMPDEST POP CALLER PUSH20 0xF39FD6E51AAD88F6F4CE6AB8827279CFFFB92266 EQ PUSH2 0x482 JUMP JUMPDEST CALLVALUE PUSH2 0x207 JUMPI PUSH1 0x60 CALLDATASIZE PUSH1 0x3 NOT ADD SLT PUSH2 0x207 JUMPI PUSH2 0x87B PUSH2 0xF55 JUMP JUMPDEST PUSH1 0x1 PUSH1 0x1 PUSH1 0xA0 SHL SUB PUSH1 0x24 DUP1 CALLDATALOAD DUP3 DUP2 AND SWAP4 SWAP2 SWAP1 DUP5 SWAP1 SUB PUSH2 0x207 JUMPI PUSH1 0x44 CALLDATALOAD DUP4 DUP2 AND DUP1 SWAP2 SUB PUSH2 0x207 JUMPI PUSH1 0x0 SLOAD PUSH1 0x40 MLOAD PUSH4 0x22D3BA1 PUSH1 0xE0 SHL DUP1 DUP3 MSTORE PUSH1 0x4 DUP3 ADD DUP9 SWAP1 MSTORE PUSH1 0x20 SWAP8 SWAP3 DUP8 AND SWAP2 DUP9 DUP2 DUP8 DUP2 DUP7 GAS STATICCALL SWAP1 DUP2 ISZERO PUSH2 0x1FB JUMPI PUSH1 0x0 SWAP2 PUSH2 0xAB7 JUMPI JUMPDEST POP ISZERO PUSH2 0xA64 JUMPI DUP8 SWAP1 DUP6 PUSH1 0x40 MLOAD DUP1 SWAP5 DUP2 SWAP4 DUP3 MSTORE DUP8 PUSH1 0x4 DUP4 ADD MSTORE GAS STATICCALL SWAP1 DUP2 ISZERO PUSH2 0x1FB JUMPI PUSH1 0x0 SWAP2 PUSH2 0xA47 JUMPI JUMPDEST POP ISZERO PUSH2 0x9F4 JUMPI EQ PUSH2 0x9B2 JUMPI POP PUSH32 0x6161BEF668266C944AA598CEB3A83B1877CE52493E134931ED59BF6322550585 SWAP2 PUSH1 0xA0 SWAP2 AND SWAP3 DUP4 PUSH1 0x0 MSTORE PUSH1 0x1 DUP2 MSTORE PUSH2 0x94E PUSH1 0xFF PUSH1 0x4 PUSH1 0x40 PUSH1 0x0 KECCAK256 ADD SLOAD AND PUSH2 0x1135 JUMP JUMPDEST DUP4 PUSH1 0x0 MSTORE PUSH1 0x1 DUP2 MSTORE PUSH1 0x40 PUSH1 0x0 KECCAK256 PUSH1 0xFF PUSH1 0xB0 SHL NOT DUP2 SLOAD AND SWAP1 SSTORE PUSH1 0x40 DUP1 MLOAD SWAP2 TIMESTAMP DUP4 MSTORE DUP3 ADD MSTORE PUSH1 0x28 PUSH1 0x40 DUP3 ADD MSTORE PUSH32 0x456D657267656E6379207265766F636174696F6E20627920636F6D6D616E6465 PUSH1 0x60 DUP3 ADD MSTORE PUSH8 0x722071756F72756D PUSH1 0xC0 SHL PUSH1 0x80 DUP3 ADD MSTORE LOG2 STOP JUMPDEST PUSH1 0x64 SWAP1 DUP5 PUSH1 0x40 MLOAD SWAP2 PUSH3 0x461BCD PUSH1 0xE5 SHL DUP4 MSTORE DUP2 PUSH1 0x4 DUP5 ADD MSTORE DUP3 ADD MSTORE PUSH32 0x4964656E7469747952656769737472793A2073616D6520636F6D6D616E646572 PUSH1 0x44 DUP3 ADD MSTORE REVERT JUMPDEST PUSH1 0x40 MLOAD PUSH3 0x461BCD PUSH1 0xE5 SHL DUP2 MSTORE PUSH1 0x4 DUP2 ADD DUP8 SWAP1 MSTORE PUSH1 0x26 DUP2 DUP6 ADD MSTORE PUSH32 0x4964656E7469747952656769737472793A20636F6D6D616E64657232206E6F74 PUSH1 0x44 DUP3 ADD MSTORE PUSH6 0x81D985B1A59 PUSH1 0xD2 SHL PUSH1 0x64 DUP3 ADD MSTORE PUSH1 0x84 SWAP1 REVERT JUMPDEST PUSH2 0xA5E SWAP2 POP DUP8 RETURNDATASIZE DUP10 GT PUSH2 0x1F4 JUMPI PUSH2 0x1E6 DUP2 DUP4 PUSH2 0x10CD JUMP JUMPDEST DUP8 PUSH2 0x8FF JUMP JUMPDEST PUSH1 0x40 MLOAD PUSH3 0x461BCD PUSH1 0xE5 SHL DUP2 MSTORE PUSH1 0x4 DUP2 ADD DUP10 SWAP1 MSTORE PUSH1 0x26 DUP2 DUP8 ADD MSTORE PUSH32 0x4964656E7469747952656769737472793A20636F6D6D616E64657231206E6F74 PUSH1 0x44 DUP3 ADD MSTORE PUSH6 0x81D985B1A59 PUSH1 0xD2 SHL PUSH1 0x64 DUP3 ADD MSTORE PUSH1 0x84 SWAP1 REVERT JUMPDEST PUSH2 0xACE SWAP2 POP DUP10 RETURNDATASIZE DUP12 GT PUSH2 0x1F4 JUMPI PUSH2 0x1E6 DUP2 DUP4 PUSH2 0x10CD JUMP JUMPDEST DUP10 PUSH2 0x8D6 JUMP JUMPDEST CALLVALUE PUSH2 0x207 JUMPI PUSH1 0x0 CALLDATASIZE PUSH1 0x3 NOT ADD SLT PUSH2 0x207 JUMPI PUSH1 0x20 PUSH1 0x3 SLOAD PUSH1 0x40 MLOAD SWAP1 DUP2 MSTORE RETURN JUMPDEST CALLVALUE PUSH2 0x207 JUMPI PUSH1 0x20 CALLDATASIZE PUSH1 0x3 NOT ADD SLT PUSH2 0x207 JUMPI PUSH1 0x20 PUSH2 0xB15 PUSH2 0xB10 PUSH2 0xF55 JUMP JUMPDEST PUSH2 0x11A5 JUMP JUMPDEST PUSH1 0x40 MLOAD SWAP1 ISZERO ISZERO DUP2 MSTORE RETURN JUMPDEST CALLVALUE PUSH2 0x207 JUMPI PUSH1 0x40 CALLDATASIZE PUSH1 0x3 NOT ADD SLT PUSH2 0x207 JUMPI PUSH2 0xB38 PUSH2 0xF55 JUMP JUMPDEST PUSH1 0x24 CALLDATALOAD PUSH1 0xFF DUP2 AND SWAP2 DUP3 DUP3 SUB PUSH2 0x207 JUMPI PUSH32 0x3AC7F3847D8B15C70361BC711C74CE1CB0DE5F5703F988AAEAB15A68F6322865 SWAP2 PUSH1 0x60 SWAP2 PUSH1 0x1 DUP1 PUSH1 0xA0 SHL SUB SWAP1 DUP2 PUSH1 0x0 SLOAD AND CALLER EQ DUP1 ISZERO PUSH2 0xC0B JUMPI JUMPDEST PUSH2 0xB8B SWAP1 PUSH2 0xFF3 JUMP JUMPDEST AND SWAP4 DUP5 PUSH1 0x0 MSTORE PUSH1 0x1 PUSH1 0x20 MSTORE PUSH2 0xBAA PUSH1 0xFF PUSH1 0x4 PUSH1 0x40 PUSH1 0x0 KECCAK256 ADD SLOAD AND PUSH2 0x1135 JUMP JUMPDEST PUSH1 0x1 DUP2 LT ISZERO DUP1 PUSH2 0xC00 JUMPI JUMPDEST PUSH2 0xBBE SWAP1 PUSH2 0x1052 JUMP JUMPDEST PUSH1 0x0 DUP6 DUP2 MSTORE PUSH1 0x1 PUSH1 0x20 MSTORE PUSH1 0x40 SWAP1 KECCAK256 DUP1 SLOAD PUSH1 0xFF PUSH1 0xA8 SHL NOT DUP2 AND PUSH1 0xA8 SWAP5 DUP6 SHL PUSH1 0xFF PUSH1 0xA8 SHL AND OR SWAP1 SWAP2 SSTORE SWAP1 SWAP2 SHR PUSH1 0xFF AND SWAP1 PUSH1 0x40 MLOAD SWAP2 DUP3 MSTORE PUSH1 0x20 DUP3 ADD MSTORE TIMESTAMP PUSH1 0x40 DUP3 ADD MSTORE LOG2 STOP JUMPDEST POP PUSH1 0x5 DUP2 GT ISZERO PUSH2 0xBB5 JUMP JUMPDEST POP CALLER PUSH20 0xF39FD6E51AAD88F6F4CE6AB8827279CFFFB92266 EQ PUSH2 0xB82 JUMP JUMPDEST CALLVALUE PUSH2 0x207 JUMPI PUSH1 0x40 CALLDATASIZE PUSH1 0x3 NOT ADD SLT PUSH2 0x207 JUMPI PUSH2 0xC41 PUSH2 0xF55 JUMP JUMPDEST PUSH1 0x24 CALLDATALOAD PUSH8 0xFFFFFFFFFFFFFFFF DUP2 GT PUSH2 0x207 JUMPI PUSH1 0x60 PUSH2 0xC84 PUSH32 0x6161BEF668266C944AA598CEB3A83B1877CE52493E134931ED59BF6322550585 SWAP3 CALLDATASIZE SWAP1 PUSH1 0x4 ADD PUSH2 0xFB8 JUMP JUMPDEST SWAP2 SWAP1 SWAP4 PUSH1 0x1 DUP1 PUSH1 0xA0 SHL SUB SWAP1 DUP2 PUSH1 0x0 SLOAD AND CALLER EQ DUP1 ISZERO PUSH2 0xD10 JUMPI JUMPDEST PUSH2 0xCA6 SWAP1 PUSH2 0xFF3 JUMP JUMPDEST AND SWAP4 DUP5 PUSH1 0x0 MSTORE PUSH1 0x1 PUSH1 0x20 MSTORE PUSH2 0xCC5 PUSH1 0xFF PUSH1 0x4 PUSH1 0x40 PUSH1 0x0 KECCAK256 ADD SLOAD AND PUSH2 0x1135 JUMP JUMPDEST DUP5 PUSH1 0x0 MSTORE PUSH1 0x1 PUSH1 0x20 MSTORE PUSH1 0x40 PUSH1 0x0 KECCAK256 PUSH1 0xFF PUSH1 0xB0 SHL NOT DUP2 SLOAD AND SWAP1 SSTORE DUP3 PUSH1 0x40 MLOAD SWAP4 DUP5 SWAP3 TIMESTAMP DUP5 MSTORE PUSH1 0x40 PUSH1 0x20 DUP6 ADD MSTORE DUP2 PUSH1 0x40 DUP6 ADD MSTORE DUP5 DUP5 ADD CALLDATACOPY PUSH1 0x0 DUP3 DUP3 ADD DUP5 ADD MSTORE PUSH1 0x1F ADD PUSH1 0x1F NOT AND DUP2 ADD SUB ADD SWAP1 LOG2 STOP JUMPDEST POP CALLER PUSH20 0xF39FD6E51AAD88F6F4CE6AB8827279CFFFB92266 EQ PUSH2 0xC9D JUMP JUMPDEST CALLVALUE PUSH2 0x207 JUMPI PUSH1 0x20 CALLDATASIZE PUSH1 0x3 NOT ADD SLT PUSH2 0x207 JUMPI PUSH1 0x1 PUSH1 0x1 PUSH1 0xA0 SHL SUB PUSH2 0xD4E PUSH2 0xF55 JUMP JUMPDEST AND PUSH1 0x0 MSTORE PUSH1 0x2 PUSH1 0x20 MSTORE PUSH1 0x20 PUSH1 0xFF PUSH1 0x40 PUSH1 0x0 KECCAK256 SLOAD AND PUSH1 0x40 MLOAD SWAP1 ISZERO ISZERO DUP2 MSTORE RETURN JUMPDEST CALLVALUE PUSH2 0x207 JUMPI PUSH1 0x0 CALLDATASIZE PUSH1 0x3 NOT ADD SLT PUSH2 0x207 JUMPI PUSH1 0x0 SLOAD PUSH1 0x40 MLOAD PUSH1 0x1 PUSH1 0x1 PUSH1 0xA0 SHL SUB SWAP1 SWAP2 AND DUP2 MSTORE PUSH1 0x20 SWAP1 RETURN JUMPDEST CALLVALUE PUSH2 0x207 JUMPI PUSH1 0x20 CALLDATASIZE PUSH1 0x3 NOT ADD SLT PUSH2 0x207 JUMPI PUSH1 0x4 CALLDATALOAD PUSH1 0x3 SLOAD DUP2 LT ISZERO PUSH2 0x207 JUMPI PUSH2 0xDBE PUSH1 0x20 SWAP2 PUSH2 0xF6B JUMP JUMPDEST SWAP1 SLOAD PUSH1 0x40 MLOAD PUSH1 0x3 SWAP3 SWAP1 SWAP3 SHL SHR PUSH1 0x1 PUSH1 0x1 PUSH1 0xA0 SHL SUB AND DUP2 MSTORE RETURN JUMPDEST CALLVALUE PUSH2 0x207 JUMPI PUSH1 0x20 CALLDATASIZE PUSH1 0x3 NOT ADD SLT PUSH2 0x207 JUMPI PUSH1 0x1 PUSH1 0x1 PUSH1 0xA0 SHL SUB PUSH2 0xDF8 PUSH2 0xF55 JUMP JUMPDEST AND DUP1 PUSH1 0x0 MSTORE PUSH1 0x1 PUSH1 0x20 MSTORE PUSH2 0xE16 PUSH1 0xFF PUSH1 0x4 PUSH1 0x40 PUSH1 0x0 KECCAK256 ADD SLOAD AND PUSH2 0x1135 JUMP JUMPDEST PUSH1 0x0 MSTORE PUSH1 0x1 PUSH1 0x20 MSTORE PUSH1 0x20 PUSH1 0xFF PUSH1 0x40 PUSH1 0x0 KECCAK256 SLOAD PUSH1 0xA8 SHR AND PUSH1 0x40 MLOAD SWAP1 DUP2 MSTORE RETURN JUMPDEST CALLVALUE PUSH2 0x207 JUMPI PUSH1 0x20 DUP1 PUSH1 0x3 NOT CALLDATASIZE ADD SLT PUSH2 0x207 JUMPI PUSH1 0x1 PUSH1 0x1 PUSH1 0xA0 SHL SUB PUSH2 0xE56 PUSH2 0xF55 JUMP JUMPDEST AND SWAP1 DUP2 PUSH1 0x0 MSTORE PUSH1 0x1 DUP2 MSTORE PUSH2 0xE74 PUSH1 0xFF PUSH1 0x4 PUSH1 0x40 PUSH1 0x0 KECCAK256 ADD SLOAD AND PUSH2 0x1135 JUMP JUMPDEST DUP2 PUSH1 0x0 MSTORE PUSH1 0x1 DUP2 MSTORE PUSH1 0xFF PUSH1 0x40 PUSH1 0x0 KECCAK256 SLOAD PUSH1 0xB0 SHR AND ISZERO PUSH2 0xECA JUMPI PUSH32 0x328B0A784B287FD38E5B3D92B9682A21CB41173B23D9BFE58B90F562DDD80FFC SWAP1 DUP3 PUSH1 0x0 MSTORE PUSH1 0x1 DUP2 MSTORE TIMESTAMP PUSH1 0x2 PUSH1 0x40 PUSH1 0x0 KECCAK256 ADD SSTORE PUSH1 0x40 MLOAD TIMESTAMP DUP2 MSTORE LOG2 STOP JUMPDEST PUSH1 0x84 SWAP1 PUSH1 0x40 MLOAD SWAP1 PUSH3 0x461BCD PUSH1 0xE5 SHL DUP3 MSTORE PUSH1 0x4 DUP3 ADD MSTORE PUSH1 0x24 DUP1 DUP3 ADD MSTORE PUSH32 0x4964656E7469747952656769737472793A20736F6C64696572206E6F74206163 PUSH1 0x44 DUP3 ADD MSTORE PUSH4 0x74697665 PUSH1 0xE0 SHL PUSH1 0x64 DUP3 ADD MSTORE REVERT JUMPDEST CALLVALUE PUSH2 0x207 JUMPI PUSH1 0x20 CALLDATASIZE PUSH1 0x3 NOT ADD SLT PUSH2 0x207 JUMPI PUSH1 0x20 SWAP1 PUSH1 0x1 PUSH1 0x1 PUSH1 0xA0 SHL SUB PUSH2 0xF3E PUSH2 0xF55 JUMP JUMPDEST AND PUSH1 0x0 MSTORE PUSH1 0x2 DUP3 MSTORE PUSH1 0xFF PUSH1 0x40 PUSH1 0x0 KECCAK256 SLOAD AND ISZERO ISZERO DUP2 MSTORE RETURN JUMPDEST PUSH1 0x4 CALLDATALOAD SWAP1 PUSH1 0x1 PUSH1 0x1 PUSH1 0xA0 SHL SUB DUP3 AND DUP3 SUB PUSH2 0x207 JUMPI JUMP JUMPDEST PUSH1 0x3 SLOAD DUP2 LT ISZERO PUSH2 0xFA2 JUMPI PUSH1 0x3 PUSH1 0x0 MSTORE PUSH32 0xC2575A0E9E593C00F959F8C92F12DB2869C3395A3B0502D05E2516446F71F85B ADD SWAP1 PUSH1 0x0 SWAP1 JUMP JUMPDEST PUSH4 0x4E487B71 PUSH1 0xE0 SHL PUSH1 0x0 MSTORE PUSH1 0x32 PUSH1 0x4 MSTORE PUSH1 0x24 PUSH1 0x0 REVERT JUMPDEST SWAP2 DUP2 PUSH1 0x1F DUP5 ADD SLT ISZERO PUSH2 0x207 JUMPI DUP3 CALLDATALOAD SWAP2 PUSH8 0xFFFFFFFFFFFFFFFF DUP4 GT PUSH2 0x207 JUMPI PUSH1 0x20 DUP4 DUP2 DUP7 ADD SWAP6 ADD ADD GT PUSH2 0x207 JUMPI JUMP JUMPDEST SWAP1 PUSH1 0x5 DUP3 LT ISZERO PUSH2 0x39C JUMPI MSTORE JUMP JUMPDEST ISZERO PUSH2 0xFFA JUMPI JUMP JUMPDEST PUSH1 0x40 MLOAD PUSH3 0x461BCD PUSH1 0xE5 SHL DUP2 MSTORE PUSH1 0x20 PUSH1 0x4 DUP3 ADD MSTORE PUSH1 0x2A PUSH1 0x24 DUP3 ADD MSTORE PUSH32 0x4964656E7469747952656769737472793A2063616C6C6572206973206E6F7420 PUSH1 0x44 DUP3 ADD MSTORE PUSH10 0x676F7665726E616E6365 PUSH1 0xB0 SHL PUSH1 0x64 DUP3 ADD MSTORE PUSH1 0x84 SWAP1 REVERT JUMPDEST ISZERO PUSH2 0x1059 JUMPI JUMP JUMPDEST PUSH1 0x40 MLOAD PUSH3 0x461BCD PUSH1 0xE5 SHL DUP2 MSTORE PUSH1 0x20 PUSH1 0x4 DUP3 ADD MSTORE PUSH1 0x29 PUSH1 0x24 DUP3 ADD MSTORE PUSH32 0x4964656E7469747952656769737472793A20696E76616C696420636C65617261 PUSH1 0x44 DUP3 ADD MSTORE PUSH9 0x1B98D9481B195D995B PUSH1 0xBA SHL PUSH1 0x64 DUP3 ADD MSTORE PUSH1 0x84 SWAP1 REVERT JUMPDEST PUSH2 0x100 DUP2 ADD SWAP1 DUP2 LT PUSH8 0xFFFFFFFFFFFFFFFF DUP3 GT OR PUSH2 0x6FE JUMPI PUSH1 0x40 MSTORE JUMP JUMPDEST SWAP1 PUSH1 0x1F DUP1 NOT SWAP2 ADD AND DUP2 ADD SWAP1 DUP2 LT PUSH8 0xFFFFFFFFFFFFFFFF DUP3 GT OR PUSH2 0x6FE JUMPI PUSH1 0x40 MSTORE JUMP JUMPDEST PUSH1 0x5 DUP3 LT ISZERO PUSH2 0x39C JUMPI MSTORE JUMP JUMPDEST SWAP1 PUSH1 0x1 DUP3 DUP2 SHR SWAP3 AND DUP1 ISZERO PUSH2 0x112B JUMPI JUMPDEST PUSH1 0x20 DUP4 LT EQ PUSH2 0x1115 JUMPI JUMP JUMPDEST PUSH4 0x4E487B71 PUSH1 0xE0 SHL PUSH1 0x0 MSTORE PUSH1 0x22 PUSH1 0x4 MSTORE PUSH1 0x24 PUSH1 0x0 REVERT JUMPDEST SWAP2 PUSH1 0x7F AND SWAP2 PUSH2 0x110A JUMP JUMPDEST ISZERO PUSH2 0x113C JUMPI JUMP JUMPDEST PUSH1 0x40 MLOAD PUSH3 0x461BCD PUSH1 0xE5 SHL DUP2 MSTORE PUSH1 0x20 PUSH1 0x4 DUP3 ADD MSTORE PUSH1 0x23 PUSH1 0x24 DUP3 ADD MSTORE PUSH32 0x4964656E7469747952656769737472793A20736F6C64696572206E6F7420666F PUSH1 0x44 DUP3 ADD MSTORE PUSH3 0x1D5B99 PUSH1 0xEA SHL PUSH1 0x64 DUP3 ADD MSTORE PUSH1 0x84 SWAP1 REVERT JUMPDEST SWAP1 DUP2 PUSH1 0x20 SWAP2 SUB SLT PUSH2 0x207 JUMPI MLOAD DUP1 ISZERO ISZERO DUP2 SUB PUSH2 0x207 JUMPI SWAP1 JUMP JUMPDEST PUSH1 0x1 PUSH1 0x1 PUSH1 0xA0 SHL SUB AND PUSH1 0x0 SWAP1 DUP2 MSTORE PUSH1 0x1 PUSH1 0x20 MSTORE PUSH1 0x40 SWAP1 KECCAK256 PUSH1 0x4 DUP2 ADD SLOAD PUSH1 0xFF AND ISZERO PUSH2 0x11D3 JUMPI SLOAD PUSH1 0xB0 SHR PUSH1 0xFF AND SWAP1 JUMP JUMPDEST POP PUSH1 0x0 SWAP1 JUMP INVALID LOG2 PUSH5 0x6970667358 0x22 SLT KECCAK256 0xDC 0xAA 0xF6 0x29 0x4E NOT 0xCC PUSH28 0xDAFD836362494E1F1C5B554A62EED6BE2668E60F4FC14D8964736F6C PUSH4 0x43000814 STOP CALLER "},"methodIdentifiers":{"anomalyFlagged(address)":"0ffa1e67","emergencyRevoke(address,address,address)":"c835faa1","getClearance(address)":"4f3d520c","getSoldier(address)":"e8900e58","getSoldierCount()":"b85a04c9","governance()":"5aa6e675","isActive(address)":"9f8a13d7","isAnomalyFlagged(address)":"5b962d2d","registerSoldier(address,uint8,uint8,string)":"e1b66fdd","revokeSoldier(address,string)":"5f11cd70","setAnomalyFlag(address,bool)":"eac1cf4a","soldierList(uint256)":"55fd4109","updateClearance(address,uint8)":"606a4373","updateLastAccess(address)":"3655c3b9"}}}}}