{
  "_format": "hh-sol-artifact-1",
  "contractName": "IdentityRegistry",
  "sourceName": "contracts/IdentityRegistry.sol",
  "abi": [
    {
      "inputs": [
        {
          "internalType": "address",
          "name": "_governance",
          "type": "address"
        }
      ],
      "stateMutability": "nonpayable",
      "type": "constructor"
    },
    {
      "anonymous": false,
      "inputs": [
        {
          "indexed": true,
          "internalType": "address",
          "name": "wallet",
          "type": "address"
        },
        {
          "indexed": false,
          "internalType": "bool",
          "name": "flagged",
          "type": "bool"
        }
      ],
      "name": "AnomalyFlagged",
      "type": "event"
    },
    {
      "anonymous": false,
      "inputs": [
        {
          "indexed": true,
          "internalType": "address",
          "name": "wallet",
          "type": "address"
        },
        {
          "indexed": false,
          "internalType": "uint8",
          "name": "oldLevel",
          "type": "uint8"
        },
        {
          "indexed": false,
          "internalType": "uint8",
          "name": "newLevel",
          "type": "uint8"
        },
        {
          "indexed": false,
          "internalType": "uint256",
          "name": "timestamp",
          "type": "uint256"
        }
      ],
      "name": "ClearanceUpdated",
      "type": "event"
    },
    {
      "anonymous": false,
      "inputs": [
        {
          "indexed": true,
          "internalType": "address",
          "name": "wallet",
          "type": "address"
        },
        {
          "indexed": false,
          "internalType": "uint256",
          "name": "timestamp",
          "type": "uint256"
        }
      ],
      "name": "LastAccessUpdated",
      "type": "event"
    },
    {
      "anonymous": false,
      "inputs": [
        {
          "indexed": true,
          "internalType": "address",
          "name": "wallet",
          "type": "address"
        },
        {
          "indexed": false,
          "internalType": "enum IdentityRegistry.Rank",
          "name": "rank",
          "type": "uint8"
        },
        {
          "indexed": false,
          "internalType": "uint8",
          "name": "clearanceLevel",
          "type": "uint8"
        },
        {
          "indexed": false,
          "internalType": "uint256",
          "name": "timestamp",
          "type": "uint256"
        }
      ],
      "name": "SoldierRegistered",
      "type": "event"
    },
    {
      "anonymous": false,
      "inputs": [
        {
          "indexed": true,
          "internalType": "address",
          "name": "wallet",
          "type": "address"
        },
        {
          "indexed": false,
          "internalType": "uint256",
          "name": "timestamp",
          "type": "uint256"
        },
        {
          "indexed": false,
          "internalType": "string",
          "name": "reason",
          "type": "string"
        }
      ],
      "name": "SoldierRevoked",
      "type": "event"
    },
    {
      "inputs": [
        {
          "internalType": "address",
          "name": "",
          "type": "address"
        }
      ],
      "name": "anomalyFlagged",
      "outputs": [
        {
          "internalType": "bool",
          "name": "",
          "type": "bool"
        }
      ],
      "stateMutability": "view",
      "type": "function"
    },
    {
      "inputs": [
        {
          "internalType": "address",
          "name": "wallet",
          "type": "address"
        },
        {
          "internalType": "address",
          "name": "commander1",
          "type": "address"
        },
        {
          "internalType": "address",
          "name": "commander2",
          "type": "address"
        }
      ],
      "name": "emergencyRevoke",
      "outputs": [],
      "stateMutability": "nonpayable",
      "type": "function"
    },
    {
      "inputs": [
        {
          "internalType": "address",
          "name": "wallet",
          "type": "address"
        }
      ],
      "name": "getClearance",
      "outputs": [
        {
          "internalType": "uint8",
          "name": "",
          "type": "uint8"
        }
      ],
      "stateMutability": "view",
      "type": "function"
    },
    {
      "inputs": [
        {
          "internalType": "address",
          "name": "wallet",
          "type": "address"
        }
      ],
      "name": "getSoldier",
      "outputs": [
        {
          "internalType": "enum IdentityRegistry.Rank",
          "name": "rank",
          "type": "uint8"
        },
        {
          "internalType": "uint8",
          "name": "clearanceLevel",
          "type": "uint8"
        },
        {
          "internalType": "bool",
          "name": "active",
          "type": "bool"
        },
        {
          "internalType": "uint256",
          "name": "registrationTimestamp",
          "type": "uint256"
        },
        {
          "internalType": "uint256",
          "name": "lastAccessTimestamp",
          "type": "uint256"
        },
        {
          "internalType": "string",
          "name": "didReference",
          "type": "string"
        }
      ],
      "stateMutability": "view",
      "type": "function"
    },
    {
      "inputs": [],
      "name": "getSoldierCount",
      "outputs": [
        {
          "internalType": "uint256",
          "name": "",
          "type": "uint256"
        }
      ],
      "stateMutability": "view",
      "type": "function"
    },
    {
      "inputs": [],
      "name": "governance",
      "outputs": [
        {
          "internalType": "contract IGovernanceMultiSig",
          "name": "",
          "type": "address"
        }
      ],
      "stateMutability": "view",
      "type": "function"
    },
    {
      "inputs": [
        {
          "internalType": "address",
          "name": "wallet",
          "type": "address"
        }
      ],
      "name": "isActive",
      "outputs": [
        {
          "internalType": "bool",
          "name": "",
          "type": "bool"
        }
      ],
      "stateMutability": "view",
      "type": "function"
    },
    {
      "inputs": [
        {
          "internalType": "address",
          "name": "wallet",
          "type": "address"
        }
      ],
      "name": "isAnomalyFlagged",
      "outputs": [
        {
          "internalType": "bool",
          "name": "",
          "type": "bool"
        }
      ],
      "stateMutability": "view",
      "type": "function"
    },
    {
      "inputs": [
        {
          "internalType": "address",
          "name": "wallet",
          "type": "address"
        },
        {
          "internalType": "enum IdentityRegistry.Rank",
          "name": "rank",
          "type": "uint8"
        },
        {
          "internalType": "uint8",
          "name": "clearanceLevel",
          "type": "uint8"
        },
        {
          "internalType": "string",
          "name": "didReference",
          "type": "string"
        }
      ],
      "name": "registerSoldier",
      "outputs": [],
      "stateMutability": "nonpayable",
      "type": "function"
    },
    {
      "inputs": [
        {
          "internalType": "address",
          "name": "wallet",
          "type": "address"
        },
        {
          "internalType": "string",
          "name": "reason",
          "type": "string"
        }
      ],
      "name": "revokeSoldier",
      "outputs": [],
      "stateMutability": "nonpayable",
      "type": "function"
    },
    {
      "inputs": [
        {
          "internalType": "address",
          "name": "wallet",
          "type": "address"
        },
        {
          "internalType": "bool",
          "name": "flagged",
          "type": "bool"
        }
      ],
      "name": "setAnomalyFlag",
      "outputs": [],
      "stateMutability": "nonpayable",
      "type": "function"
    },
    {
      "inputs": [
        {
          "internalType": "uint256",
          "name": "",
          "type": "uint256"
        }
      ],
      "name": "soldierList",
      "outputs": [
        {
          "internalType": "address",
          "name": "",
          "type": "address"
        }
      ],
      "stateMutability": "view",
      "type": "function"
    },
    {
      "inputs": [
        {
          "internalType": "address",
          "name": "wallet",
          "type": "address"
        },
        {
          "internalType": "uint8",
          "name": "newLevel",
          "type": "uint8"
        }
      ],
      "name": "updateClearance",
      "outputs": [],
      "stateMutability": "nonpayable",
      "type": "function"
    },
    {
      "inputs": [
        {
          "internalType": "address",
          "name": "wallet",
          "type": "address"
        }
      ],
      "name": "updateLastAccess",
      "outputs": [],
      "stateMutability": "nonpayable",
      "type": "function"
    }
  ],
  "bytecode": "0x60803461007457601f61129f38819003918201601f19168301916001600160401b038311848410176100795780849260209460405283398101031261007457516001600160a01b0381169081900361007457600080546001600160a01b03191691909117905560405161120f90816100908239f35b600080fd5b634e487b7160e01b600052604160045260246000fdfe608080604052600436101561001357600080fd5b60003560e01c9081630ffa1e6714610f1a575080633655c3b914610e345780634f3d520c14610dd757806355fd410914610d955780635aa6e67514610d6c5780635b962d2d14610d2d5780635f11cd7014610c28578063606a437314610b1f5780639f8a13d714610af2578063b85a04c914610ad4578063c835faa114610862578063e1b66fdd1461041b578063e8900e581461020c5763eac1cf4a146100b957600080fd5b34610207576040366003190112610207576100d2610f55565b60243590811515808303610207576000546001600160a01b0391908216338114908115610196575b5015610151576101486020927f423263acd6a3498487f06de8a9bebf9183d8c3b5349a87d3561419f2a3054114941694856000526002845260406000209060ff801983541691151516179055565b604051908152a2005b60405162461bcd60e51b815260206004820152601e60248201527f4964656e7469747952656769737472793a20756e617574686f72697a656400006044820152606490fd5b60405163022d3ba160e01b81523360048201529150602090829060249082905afa9081156101fb576000916101cd575b50386100fa565b6101ee915060203d81116101f4575b6101e681836110cd565b81019061118d565b386101c6565b503d6101dc565b6040513d6000823e3d90fd5b600080fd5b34610207576020366003190112610207576001600160a01b038061022e610f55565b1680600052600160205261024c60ff60046040600020015416611135565b600052600160205260406000209060ff60405191610269836110b0565b83549081168352610282828260a01c16602085016110ef565b818160a81c16604084015260b01c161515606082015260018201546080820152600282015460a0820152600382019160405180936000908054906102c5826110fb565b80855291600181169081156103f357506001146103b2575b5050916102f060049260ff9403866110cd565b60c08401948552015416151560e0820152602081015191600583101561039c5760ff604083015116916060810151151560a0608083015192015192519361033a6040518097610fe6565b602086015260408501526060840152608083015260c060a0830152818151918260c083015260005b83811061038457505081600060e0809484010152601f80199101168101030190f35b602082820181015160e0878401015285935001610362565b634e487b7160e01b600052602160045260246000fd5b6000908152602081209092505b8183106103d757505081016020016102f060046102dd565b6020919350806001915483858a010152019101909185926103bf565b60ff191660208087019190915292151560051b850190920192506102f09150600490506102dd565b3461020757608036600319011261020757610434610f55565b60056024351015610207576044359060ff821682036102075760643567ffffffffffffffff81116102075761046d903690600401610fb8565b6000546001600160a01b031633148015610845575b61048b90610ff3565b6001600160a01b03831660009081526001602052604090206004015460ff166107eb57600160ff85161015806107dd575b6104c590611052565b604051906104d2826110b0565b6001600160a01b03841682526104ed602435602084016110ef565b60ff85166040830152600160608301524260808301524260a083015267ffffffffffffffff81116106fe5760405192610530601f8301601f1916602001856110cd565b81845236828201116102075781600092602092838701378401015260c08101918252600160e082015260018060a01b038316600052600160205260406000209160018060a01b038251168354906020840151600581101561039c576040850151606086015160a89190911b60ff60a81b1660a092831b60ff60a01b1661ffff60a81b19949094166001600160b81b03199590951694909417929092179290921790151560b01b60ff60b01b161784556080830151600185015582015160028401555180519067ffffffffffffffff82116106fe5761061160038501546110fb565b601f8111610796575b50602090601f831160011461071f57928260049360e09361066d9796600092610714575b50508160011b916000199060031b1c19161760038501555b0151151591019060ff801983541691151516179055565b600354680100000000000000008110156106fe577fef38ffd36f4ebb11e8792e6d7167f35c5270b6e4a0634d964035508b11ea2df0916106b582600160609401600355610f6b565b81546001600160a01b0384811660039390931b92831b921b19161790556040519360ff906106e586602435610fe6565b1660208501524260408501526001600160a01b031692a2005b634e487b7160e01b600052604160045260246000fd5b01519050898061063e565b90601f198316916003860160005260206000209260005b81811061077e57509360e09361066d9796936001938360049810610765575b505050811b016003850155610656565b015160001960f88460031b161c19169055898080610755565b92936020600181928786015181550195019301610736565b600385016000526020600020601f840160051c8101602085106107d6575b601f830160051c820181106107ca57505061061a565b600081556001016107b4565b50806107b4565b50600560ff851611156104bc565b60405162461bcd60e51b815260206004820152602c60248201527f4964656e7469747952656769737472793a20736f6c6469657220616c7265616460448201526b1e481c9959da5cdd195c995960a21b6064820152608490fd5b503373f39fd6e51aad88f6f4ce6ab8827279cfffb9226614610482565b346102075760603660031901126102075761087b610f55565b6001600160a01b0360248035828116939190849003610207576044358381168091036102075760005460405163022d3ba160e01b808252600482018890526020979287169188818781865afa9081156101fb57600091610ab7575b5015610a64578790856040518094819382528760048301525afa9081156101fb57600091610a47575b50156109f457146109b257507f6161bef668266c944aa598ceb3a83b1877ce52493e134931ed59bf63225505859160a0911692836000526001815261094e60ff60046040600020015416611135565b8360005260018152604060002060ff60b01b1981541690556040805191428352820152602860408201527f456d657267656e6379207265766f636174696f6e20627920636f6d6d616e6465606082015267722071756f72756d60c01b6080820152a2005b606490846040519162461bcd60e51b83528160048401528201527f4964656e7469747952656769737472793a2073616d6520636f6d6d616e6465726044820152fd5b60405162461bcd60e51b8152600481018790526026818501527f4964656e7469747952656769737472793a20636f6d6d616e64657232206e6f74604482015265081d985b1a5960d21b6064820152608490fd5b610a5e9150873d89116101f4576101e681836110cd565b876108ff565b60405162461bcd60e51b8152600481018990526026818701527f4964656e7469747952656769737472793a20636f6d6d616e64657231206e6f74604482015265081d985b1a5960d21b6064820152608490fd5b610ace9150893d8b116101f4576101e681836110cd565b896108d6565b34610207576000366003190112610207576020600354604051908152f35b34610207576020366003190112610207576020610b15610b10610f55565b6111a5565b6040519015158152f35b3461020757604036600319011261020757610b38610f55565b60243560ff811691828203610207577f3ac7f3847d8b15c70361bc711c74ce1cb0de5f5703f988aaeab15a68f63228659160609160018060a01b0390816000541633148015610c0b575b610b8b90610ff3565b1693846000526001602052610baa60ff60046040600020015416611135565b600181101580610c00575b610bbe90611052565b6000858152600160205260409020805460ff60a81b19811660a894851b60ff60a81b161790915590911c60ff16906040519182526020820152426040820152a2005b506005811115610bb5565b503373f39fd6e51aad88f6f4ce6ab8827279cfffb9226614610b82565b3461020757604036600319011261020757610c41610f55565b60243567ffffffffffffffff8111610207576060610c847f6161bef668266c944aa598ceb3a83b1877ce52493e134931ed59bf6322550585923690600401610fb8565b91909360018060a01b0390816000541633148015610d10575b610ca690610ff3565b1693846000526001602052610cc560ff60046040600020015416611135565b846000526001602052604060002060ff60b01b1981541690558260405193849242845260406020850152816040850152848401376000828201840152601f01601f19168101030190a2005b503373f39fd6e51aad88f6f4ce6ab8827279cfffb9226614610c9d565b34610207576020366003190112610207576001600160a01b03610d4e610f55565b166000526002602052602060ff604060002054166040519015158152f35b34610207576000366003190112610207576000546040516001600160a01b039091168152602090f35b346102075760203660031901126102075760043560035481101561020757610dbe602091610f6b565b905460405160039290921b1c6001600160a01b03168152f35b34610207576020366003190112610207576001600160a01b03610df8610f55565b16806000526001602052610e1660ff60046040600020015416611135565b6000526001602052602060ff60406000205460a81c16604051908152f35b3461020757602080600319360112610207576001600160a01b03610e56610f55565b16908160005260018152610e7460ff60046040600020015416611135565b816000526001815260ff60406000205460b01c1615610eca577f328b0a784b287fd38e5b3d92b9682a21cb41173b23d9bfe58b90f562ddd80ffc90826000526001815242600260406000200155604051428152a2005b6084906040519062461bcd60e51b825260048201526024808201527f4964656e7469747952656769737472793a20736f6c64696572206e6f742061636044820152637469766560e01b6064820152fd5b34610207576020366003190112610207576020906001600160a01b03610f3e610f55565b166000526002825260ff6040600020541615158152f35b600435906001600160a01b038216820361020757565b600354811015610fa25760036000527fc2575a0e9e593c00f959f8c92f12db2869c3395a3b0502d05e2516446f71f85b0190600090565b634e487b7160e01b600052603260045260246000fd5b9181601f840112156102075782359167ffffffffffffffff8311610207576020838186019501011161020757565b90600582101561039c5752565b15610ffa57565b60405162461bcd60e51b815260206004820152602a60248201527f4964656e7469747952656769737472793a2063616c6c6572206973206e6f7420604482015269676f7665726e616e636560b01b6064820152608490fd5b1561105957565b60405162461bcd60e51b815260206004820152602960248201527f4964656e7469747952656769737472793a20696e76616c696420636c656172616044820152681b98d9481b195d995b60ba1b6064820152608490fd5b610100810190811067ffffffffffffffff8211176106fe57604052565b90601f8019910116810190811067ffffffffffffffff8211176106fe57604052565b600582101561039c5752565b90600182811c9216801561112b575b602083101461111557565b634e487b7160e01b600052602260045260246000fd5b91607f169161110a565b1561113c57565b60405162461bcd60e51b815260206004820152602360248201527f4964656e7469747952656769737472793a20736f6c64696572206e6f7420666f6044820152621d5b9960ea1b6064820152608490fd5b90816020910312610207575180151581036102075790565b6001600160a01b03166000908152600160205260409020600481015460ff16156111d3575460b01c60ff1690565b5060009056fea2646970667358221220dcaaf6294e19cc7bdafd836362494e1f1c5b554a62eed6be2668e60f4fc14d8964736f6c63430008140033",
  "linkReferences": {},
  "deployedLinkReferences": {}
}