{
  "_format": "hh-sol-artifact-1",
  "contractName": "CircuitBreaker",
  "sourceName": "contracts/CircuitBreaker.sol",
  "abi": [
    {
      "inputs": [
        {
          "internalType": "address",
          "name": "_governance",
          "type": "address"
        }
      ],
      "stateMutability": "nonpayable",
      "type": "constructor"
    },
    {
      "anonymous": false,
      "inputs": [
        {
          "indexed": true,
          "internalType": "address",
          "name": "governance",
          "type": "address"
        }
      ],
      "name": "GovernanceSet",
      "type": "event"
    },
    {
      "anonymous": false,
      "inputs": [
        {
          "indexed": true,
          "internalType": "address",
          "name": "triggeredBy",
          "type": "address"
        },
        {
          "indexed": false,
          "internalType": "uint256",
          "name": "timestamp",
          "type": "uint256"
        }
      ],
      "name": "SystemPaused",
      "type": "event"
    },
    {
      "anonymous": false,
      "inputs": [
        {
          "indexed": true,
          "internalType": "address",
          "name": "triggeredBy",
          "type": "address"
        },
        {
          "indexed": false,
          "internalType": "uint256",
          "name": "timestamp",
          "type": "uint256"
        }
      ],
      "name": "SystemUnpaused",
      "type": "event"
    },
    {
      "inputs": [],
      "name": "governance",
      "outputs": [
        {
          "internalType": "address",
          "name": "",
          "type": "address"
        }
      ],
      "stateMutability": "view",
      "type": "function"
    },
    {
      "inputs": [],
      "name": "isPaused",
      "outputs": [
        {
          "internalType": "bool",
          "name": "",
          "type": "bool"
        }
      ],
      "stateMutability": "view",
      "type": "function"
    },
    {
      "inputs": [],
      "name": "pause",
      "outputs": [],
      "stateMutability": "nonpayable",
      "type": "function"
    },
    {
      "inputs": [],
      "name": "unpause",
      "outputs": [],
      "stateMutability": "nonpayable",
      "type": "function"
    }
  ],
  "bytecode": "0x6080346100aa57601f61034c38819003918201601f19168301916001600160401b038311848410176100af578084926020946040528339810103126100aa57516001600160a01b038116908181036100aa57600080546001600160a81b03191660089290921b610100600160a81b031691909117815560405191907fc73be659241aade67e9a059bcf21494955018b213dbd1179054ccf928b13f3b69080a261028690816100c68239f35b600080fd5b634e487b7160e01b600052604160045260246000fdfe604060808152600436101561001357600080fd5b600090813560e01c80633f4ba83a146101485780635aa6e6751461011d5780638456cb591461006f5763b187bd261461004b57600080fd5b3461006b578160031936011261006b5760ff602092541690519015158152f35b5080fd5b503461006b578160031936011261006b57815461009a33600883901c6001600160a01b0316146101f3565b60ff81166100d95760019060ff1916178255514281527f5e8b1b247e297b008b631d7d147a69113d08a9419df413f261c6d8c30975b1b360203392a280f35b815162461bcd60e51b815260206004820152601e60248201527f43697263756974427265616b65723a20616c72656164792070617573656400006044820152606490fd5b503461006b578160031936011261006b579054905160089190911c6001600160a01b03168152602090f35b503461006b578160031936011261006b57815461017333600883901c6001600160a01b0316146101f3565b60ff8116156101af5760ff19168255514281527f6ffa4a8726138aebc013004f15b6ddb845335d588515369cd137ce2dc92e995760203392a280f35b815162461bcd60e51b815260206004820152601a60248201527f43697263756974427265616b65723a206e6f74207061757365640000000000006044820152606490fd5b156101fa57565b60405162461bcd60e51b815260206004820152602860248201527f43697263756974427265616b65723a2063616c6c6572206973206e6f7420676f6044820152677665726e616e636560c01b6064820152608490fdfea2646970667358221220d994e33f8bb3f6df6d62ff67ae794396c29c5f76e092d56ce138d11e4721ce8064736f6c63430008140033",
  "linkReferences": {},
  "deployedLinkReferences": {}
}