{
  "_format": "hh-sol-artifact-1",
  "contractName": "AuditLog",
  "sourceName": "contracts/AuditLog.sol",
  "abi": [
    {
      "inputs": [
        {
          "internalType": "address",
          "name": "_procurementGate",
          "type": "address"
        }
      ],
      "stateMutability": "nonpayable",
      "type": "constructor"
    },
    {
      "anonymous": false,
      "inputs": [
        {
          "indexed": true,
          "internalType": "uint256",
          "name": "index",
          "type": "uint256"
        },
        {
          "indexed": false,
          "internalType": "string",
          "name": "eventType",
          "type": "string"
        },
        {
          "indexed": true,
          "internalType": "address",
          "name": "actor",
          "type": "address"
        },
        {
          "indexed": true,
          "internalType": "bytes32",
          "name": "componentId",
          "type": "bytes32"
        },
        {
          "indexed": false,
          "internalType": "uint256",
          "name": "timestamp",
          "type": "uint256"
        },
        {
          "indexed": false,
          "internalType": "uint256",
          "name": "blockNumber",
          "type": "uint256"
        },
        {
          "indexed": false,
          "internalType": "string",
          "name": "outcome",
          "type": "string"
        },
        {
          "indexed": false,
          "internalType": "string",
          "name": "denialReason",
          "type": "string"
        },
        {
          "indexed": false,
          "internalType": "string[]",
          "name": "anomalyFlags",
          "type": "string[]"
        },
        {
          "indexed": false,
          "internalType": "bytes32",
          "name": "locationHash",
          "type": "bytes32"
        },
        {
          "indexed": false,
          "internalType": "bytes32",
          "name": "rootHash",
          "type": "bytes32"
        }
      ],
      "name": "LogEntryAdded",
      "type": "event"
    },
    {
      "anonymous": false,
      "inputs": [
        {
          "indexed": true,
          "internalType": "address",
          "name": "gate",
          "type": "address"
        }
      ],
      "name": "ProcurementGateSet",
      "type": "event"
    },
    {
      "inputs": [
        {
          "internalType": "string",
          "name": "eventType",
          "type": "string"
        },
        {
          "internalType": "address",
          "name": "actor",
          "type": "address"
        },
        {
          "internalType": "bytes32",
          "name": "componentId",
          "type": "bytes32"
        },
        {
          "internalType": "string",
          "name": "outcome",
          "type": "string"
        },
        {
          "internalType": "string",
          "name": "denialReason",
          "type": "string"
        },
        {
          "internalType": "string[]",
          "name": "anomalyFlags",
          "type": "string[]"
        },
        {
          "internalType": "bytes32",
          "name": "locationHash",
          "type": "bytes32"
        }
      ],
      "name": "addEntry",
      "outputs": [
        {
          "internalType": "uint256",
          "name": "",
          "type": "uint256"
        }
      ],
      "stateMutability": "nonpayable",
      "type": "function"
    },
    {
      "inputs": [],
      "name": "entryCount",
      "outputs": [
        {
          "internalType": "uint256",
          "name": "",
          "type": "uint256"
        }
      ],
      "stateMutability": "view",
      "type": "function"
    },
    {
      "inputs": [
        {
          "internalType": "uint256",
          "name": "",
          "type": "uint256"
        }
      ],
      "name": "entryRootHashes",
      "outputs": [
        {
          "internalType": "bytes32",
          "name": "",
          "type": "bytes32"
        }
      ],
      "stateMutability": "view",
      "type": "function"
    },
    {
      "inputs": [
        {
          "internalType": "uint256",
          "name": "index",
          "type": "uint256"
        }
      ],
      "name": "getRootHash",
      "outputs": [
        {
          "internalType": "bytes32",
          "name": "",
          "type": "bytes32"
        }
      ],
      "stateMutability": "view",
      "type": "function"
    },
    {
      "inputs": [],
      "name": "procurementGate",
      "outputs": [
        {
          "internalType": "address",
          "name": "",
          "type": "address"
        }
      ],
      "stateMutability": "view",
      "type": "function"
    },
    {
      "inputs": [
        {
          "internalType": "address",
          "name": "_gate",
          "type": "address"
        }
      ],
      "name": "setProcurementGate",
      "outputs": [],
      "stateMutability": "nonpayable",
      "type": "function"
    },
    {
      "inputs": [
        {
          "internalType": "uint256",
          "name": "index",
          "type": "uint256"
        },
        {
          "internalType": "string",
          "name": "eventType",
          "type": "string"
        },
        {
          "internalType": "address",
          "name": "actor",
          "type": "address"
        },
        {
          "internalType": "bytes32",
          "name": "componentId",
          "type": "bytes32"
        },
        {
          "internalType": "uint256",
          "name": "timestamp",
          "type": "uint256"
        },
        {
          "internalType": "uint256",
          "name": "blockNumber",
          "type": "uint256"
        },
        {
          "internalType": "string",
          "name": "outcome",
          "type": "string"
        },
        {
          "internalType": "string",
          "name": "denialReason",
          "type": "string"
        },
        {
          "internalType": "bytes32",
          "name": "locationHash",
          "type": "bytes32"
        }
      ],
      "name": "verifyEntry",
      "outputs": [
        {
          "internalType": "bool",
          "name": "",
          "type": "bool"
        }
      ],
      "stateMutability": "view",
      "type": "function"
    }
  ],
  "bytecode": "0x60803461009857601f6107a238819003918201601f19168301916001600160401b0383118484101761009d5780849260209460405283398101031261009857516001600160a01b0381169081900361009857600080546001600160a01b0319168217815560405191907f171ca12bddcd7d07a200cba9403cc6c69b9138a97e7ee230184949feb4c6fd489080a26106ee90816100b48239f35b600080fd5b634e487b7160e01b600052604160045260246000fdfe6080604052600436101561001257600080fd5b60003560e01c8063093abc86146105575780630cbb0f83146105395780634d665cf91461046857806373009ea61461017f578063d1a8913314610153578063d3bdc7281461012a5763eac870251461006957600080fd5b34610125576020366003190112610125576004356001600160a01b038181169182900361012557600054908116801590811561011b575b50156100dd576001600160a01b031916811760009081557f171ca12bddcd7d07a200cba9403cc6c69b9138a97e7ee230184949feb4c6fd489080a2005b60405162461bcd60e51b8152602060048201526016602482015275105d591a5d131bd9ce881d5b985d5d1a1bdc9a5e995960521b6044820152606490fd5b90503314386100a0565b600080fd5b34610125576000366003190112610125576000546040516001600160a01b039091168152602090f35b346101255760203660031901126101255760043560005260026020526020604060002054604051908152f35b346101255760e03660031901126101255760043567ffffffffffffffff8111610125576101b0903690600401610590565b906001600160a01b0360243580821690036101255760643567ffffffffffffffff8111610125576101e5903690600401610590565b60849391933567ffffffffffffffff811161012557610208903690600401610590565b67ffffffffffffffff60a435116101255736602360a4350112156101255767ffffffffffffffff60a43560040135116101255736602460a4356004013560051b60a435010111610125578460005416330361041357604051610294816102868a8587898d60c435948d43914291604435916024359160208d016105be565b03601f198101835282610613565b602081519101209360015496876000526002602052856040600020556001549460001986146103fd576102e16102fb93600161030998016001556040519b8c6101008091528d019161064b565b914260208c01524360408c01528a830360608c015261064b565b91878303608089015261064b565b9084820360a086015260a4356004013582526020820191602060a4356004013560051b82010192602460a435019160005b60a43560040135811061039357505050507f57ccca1129f94e4d1ca08235b5ae10106fd34e31ed8521d1c417466b4f65d29f602095859260c43560c083015260e0820152806044359560243516940390a4604051908152f35b90919294601f19838203018452853560421960a4353603018112156101255760a4350167ffffffffffffffff602482013511610125576024810135360360448201136101255760206103f1600193836044602485960135910161064b565b9701940192910161033a565b634e487b7160e01b600052601160045260246000fd5b60405162461bcd60e51b815260206004820152602760248201527f41756469744c6f673a2063616c6c6572206973206e6f742050726f637572656d604482015266656e744761746560c81b6064820152608490fd5b34610125576101203660031901126101255767ffffffffffffffff6004356024358281116101255761049e903690600401610590565b60443593906001600160a01b03851685036101255760c435828111610125576104cb903690600401610590565b91909260e4359081116101255760209661051f936104f0610286933690600401610590565b916104fe6001548b1061066c565b6040519788968c88019a8b610104359760a4359360843593606435936105be565b519020906000526002825260406000205414604051908152f35b34610125576000366003190112610125576020600154604051908152f35b3461012557602036600319011261012557600435610578600154821061066c565b60005260026020526020604060002054604051908152f35b9181601f840112156101255782359167ffffffffffffffff8311610125576020838186019501011161012557565b9382899793958c9b9a9660949e9d9a969894823701956bffffffffffffffffffffffff199060601b16865260148601526034850152605484015260748301370191607483016000815237019060748201520190565b90601f8019910116810190811067ffffffffffffffff82111761063557604052565b634e487b7160e01b600052604160045260246000fd5b908060209392818452848401376000828201840152601f01601f1916010190565b1561067357565b60405162461bcd60e51b815260206004820152601d60248201527f41756469744c6f673a20696e646578206f7574206f6620626f756e64730000006044820152606490fdfea26469706673582212207f85bab5cf9edf4f975f725be87b7e6f82383e41472e49f5ce0dc43b2bbafe7064736f6c63430008140033",
  "linkReferences": {},
  "deployedLinkReferences": {}
}