{
  "_format": "hh-sol-artifact-1",
  "contractName": "GovernanceMultiSig",
  "sourceName": "contracts/GovernanceMultiSig.sol",
  "abi": [
    {
      "inputs": [
        {
          "internalType": "address",
          "name": "commander",
          "type": "address"
        },
        {
          "internalType": "address",
          "name": "auditor",
          "type": "address"
        },
        {
          "internalType": "address",
          "name": "procurementCommand",
          "type": "address"
        }
      ],
      "stateMutability": "nonpayable",
      "type": "constructor"
    },
    {
      "anonymous": false,
      "inputs": [
        {
          "indexed": true,
          "internalType": "address",
          "name": "member",
          "type": "address"
        },
        {
          "indexed": false,
          "internalType": "enum GovernanceMultiSig.Role",
          "name": "role",
          "type": "uint8"
        }
      ],
      "name": "MemberAdded",
      "type": "event"
    },
    {
      "anonymous": false,
      "inputs": [
        {
          "indexed": true,
          "internalType": "uint256",
          "name": "id",
          "type": "uint256"
        },
        {
          "indexed": false,
          "internalType": "enum GovernanceMultiSig.ActionType",
          "name": "actionType",
          "type": "uint8"
        },
        {
          "indexed": true,
          "internalType": "address",
          "name": "proposer",
          "type": "address"
        },
        {
          "indexed": false,
          "internalType": "address",
          "name": "targetAddress",
          "type": "address"
        }
      ],
      "name": "ProposalCreated",
      "type": "event"
    },
    {
      "anonymous": false,
      "inputs": [
        {
          "indexed": true,
          "internalType": "uint256",
          "name": "id",
          "type": "uint256"
        },
        {
          "indexed": false,
          "internalType": "enum GovernanceMultiSig.ActionType",
          "name": "actionType",
          "type": "uint8"
        },
        {
          "indexed": true,
          "internalType": "address",
          "name": "targetAddress",
          "type": "address"
        }
      ],
      "name": "ProposalExecuted",
      "type": "event"
    },
    {
      "anonymous": false,
      "inputs": [
        {
          "indexed": true,
          "internalType": "uint256",
          "name": "id",
          "type": "uint256"
        },
        {
          "indexed": true,
          "internalType": "address",
          "name": "revoker",
          "type": "address"
        }
      ],
      "name": "ProposalRevoked",
      "type": "event"
    },
    {
      "anonymous": false,
      "inputs": [
        {
          "indexed": true,
          "internalType": "uint256",
          "name": "id",
          "type": "uint256"
        },
        {
          "indexed": true,
          "internalType": "address",
          "name": "voter",
          "type": "address"
        },
        {
          "indexed": false,
          "internalType": "uint256",
          "name": "voteCount",
          "type": "uint256"
        }
      ],
      "name": "VoteCast",
      "type": "event"
    },
    {
      "inputs": [],
      "name": "PROPOSAL_EXPIRY",
      "outputs": [
        {
          "internalType": "uint256",
          "name": "",
          "type": "uint256"
        }
      ],
      "stateMutability": "view",
      "type": "function"
    },
    {
      "inputs": [],
      "name": "REQUIRED_VOTES",
      "outputs": [
        {
          "internalType": "uint256",
          "name": "",
          "type": "uint256"
        }
      ],
      "stateMutability": "view",
      "type": "function"
    },
    {
      "inputs": [],
      "name": "circuitBreaker",
      "outputs": [
        {
          "internalType": "address",
          "name": "",
          "type": "address"
        }
      ],
      "stateMutability": "view",
      "type": "function"
    },
    {
      "inputs": [],
      "name": "getMemberCount",
      "outputs": [
        {
          "internalType": "uint256",
          "name": "",
          "type": "uint256"
        }
      ],
      "stateMutability": "view",
      "type": "function"
    },
    {
      "inputs": [
        {
          "internalType": "uint256",
          "name": "id",
          "type": "uint256"
        }
      ],
      "name": "getProposalStatus",
      "outputs": [
        {
          "internalType": "enum GovernanceMultiSig.ProposalStatus",
          "name": "",
          "type": "uint8"
        }
      ],
      "stateMutability": "view",
      "type": "function"
    },
    {
      "inputs": [
        {
          "internalType": "uint256",
          "name": "id",
          "type": "uint256"
        }
      ],
      "name": "getProposalVoteCount",
      "outputs": [
        {
          "internalType": "uint256",
          "name": "",
          "type": "uint256"
        }
      ],
      "stateMutability": "view",
      "type": "function"
    },
    {
      "inputs": [],
      "name": "identityRegistry",
      "outputs": [
        {
          "internalType": "address",
          "name": "",
          "type": "address"
        }
      ],
      "stateMutability": "view",
      "type": "function"
    },
    {
      "inputs": [
        {
          "internalType": "bytes32",
          "name": "",
          "type": "bytes32"
        }
      ],
      "name": "isApprovedAction",
      "outputs": [
        {
          "internalType": "bool",
          "name": "",
          "type": "bool"
        }
      ],
      "stateMutability": "pure",
      "type": "function"
    },
    {
      "inputs": [
        {
          "internalType": "address",
          "name": "account",
          "type": "address"
        }
      ],
      "name": "isCommander",
      "outputs": [
        {
          "internalType": "bool",
          "name": "",
          "type": "bool"
        }
      ],
      "stateMutability": "view",
      "type": "function"
    },
    {
      "inputs": [
        {
          "internalType": "address",
          "name": "",
          "type": "address"
        }
      ],
      "name": "isGovernanceMember",
      "outputs": [
        {
          "internalType": "bool",
          "name": "",
          "type": "bool"
        }
      ],
      "stateMutability": "view",
      "type": "function"
    },
    {
      "inputs": [
        {
          "internalType": "uint256",
          "name": "",
          "type": "uint256"
        }
      ],
      "name": "members",
      "outputs": [
        {
          "internalType": "address",
          "name": "",
          "type": "address"
        }
      ],
      "stateMutability": "view",
      "type": "function"
    },
    {
      "inputs": [],
      "name": "proposalCount",
      "outputs": [
        {
          "internalType": "uint256",
          "name": "",
          "type": "uint256"
        }
      ],
      "stateMutability": "view",
      "type": "function"
    },
    {
      "inputs": [
        {
          "internalType": "uint256",
          "name": "",
          "type": "uint256"
        }
      ],
      "name": "proposals",
      "outputs": [
        {
          "internalType": "uint256",
          "name": "id",
          "type": "uint256"
        },
        {
          "internalType": "enum GovernanceMultiSig.ActionType",
          "name": "actionType",
          "type": "uint8"
        },
        {
          "internalType": "address",
          "name": "proposer",
          "type": "address"
        },
        {
          "internalType": "address",
          "name": "targetAddress",
          "type": "address"
        },
        {
          "internalType": "uint8",
          "name": "clearanceLevel",
          "type": "uint8"
        },
        {
          "internalType": "uint8",
          "name": "rank",
          "type": "uint8"
        },
        {
          "internalType": "string",
          "name": "didReference",
          "type": "string"
        },
        {
          "internalType": "string",
          "name": "reason",
          "type": "string"
        },
        {
          "internalType": "uint256",
          "name": "voteCount",
          "type": "uint256"
        },
        {
          "internalType": "uint256",
          "name": "createdAt",
          "type": "uint256"
        },
        {
          "internalType": "enum GovernanceMultiSig.ProposalStatus",
          "name": "status",
          "type": "uint8"
        }
      ],
      "stateMutability": "view",
      "type": "function"
    },
    {
      "inputs": [
        {
          "internalType": "enum GovernanceMultiSig.ActionType",
          "name": "actionType",
          "type": "uint8"
        },
        {
          "internalType": "address",
          "name": "targetAddress",
          "type": "address"
        },
        {
          "internalType": "uint8",
          "name": "clearanceLevel",
          "type": "uint8"
        },
        {
          "internalType": "uint8",
          "name": "rank",
          "type": "uint8"
        },
        {
          "internalType": "string",
          "name": "didReference",
          "type": "string"
        },
        {
          "internalType": "string",
          "name": "reason",
          "type": "string"
        }
      ],
      "name": "proposeAction",
      "outputs": [
        {
          "internalType": "uint256",
          "name": "",
          "type": "uint256"
        }
      ],
      "stateMutability": "nonpayable",
      "type": "function"
    },
    {
      "inputs": [
        {
          "internalType": "uint256",
          "name": "id",
          "type": "uint256"
        }
      ],
      "name": "revokeProposal",
      "outputs": [],
      "stateMutability": "nonpayable",
      "type": "function"
    },
    {
      "inputs": [
        {
          "internalType": "address",
          "name": "",
          "type": "address"
        }
      ],
      "name": "roles",
      "outputs": [
        {
          "internalType": "enum GovernanceMultiSig.Role",
          "name": "",
          "type": "uint8"
        }
      ],
      "stateMutability": "view",
      "type": "function"
    },
    {
      "inputs": [
        {
          "internalType": "address",
          "name": "_identityRegistry",
          "type": "address"
        },
        {
          "internalType": "address",
          "name": "_circuitBreaker",
          "type": "address"
        }
      ],
      "name": "setContracts",
      "outputs": [],
      "stateMutability": "nonpayable",
      "type": "function"
    },
    {
      "inputs": [
        {
          "internalType": "uint256",
          "name": "id",
          "type": "uint256"
        }
      ],
      "name": "vote",
      "outputs": [],
      "stateMutability": "nonpayable",
      "type": "function"
    }
  ],
  "bytecode": "0x6080346200023857601f620014ca38819003918201601f1916830191906001600160401b038311848410176200023d5781606092859260409586528339810103126200023857620000508262000253565b60206200006c836200006483870162000253565b950162000253565b6001600160a01b039283166000818152808452858120805460ff1990811690915560018086528783208054831682179055600380549297949568010000000000000000959193868110156200022457838101808655811015620002105788999a9b83918688528a8820019860018060a01b031999818b8254161790558d518881527ff833c29297cb62e4d5e38257097ec5d6575967915f151215dd8fc03f8f548ce89c8d91a2168086528589528b8620848c8254161790558389528b8620848c825416179055845487811015620001fc57848101808755811015620001e85785875289872001818982541617905589898d51868152a21697888452838752898420600282825416179055818752818a852091825416179055815493841015620001d4578301808255831015620001c057815283902001805490911684179055835160028152a2516112619081620002698239f35b634e487b7160e01b82526032600452602482fd5b634e487b7160e01b83526041600452602483fd5b634e487b7160e01b87526032600452602487fd5b634e487b7160e01b87526041600452602487fd5b634e487b7160e01b86526032600452602486fd5b634e487b7160e01b86526041600452602486fd5b600080fd5b634e487b7160e01b600052604160045260246000fd5b51906001600160a01b0382168203620002385756fe6080604052600436101561001257600080fd5b60003560e01c80630121b93f14610a38578063013cf08b14610954578063022d3ba1146108f05780630645b8db146108c1578063134e18f41461089857806316efd9411461086f578063401853b7146108365780635daf08ca146107db578063822248691461079c57806385a6a091146106b257806387106a6e1461026c5780638a14e3d01461024e57806399374642146101f2578063997072f7146101d4578063c93b63a3146101b8578063d8952a4914610121578063da35c664146101035763fdd7e7f9146100e257600080fd5b346100fe5760003660031901126100fe57602060405160028152f35b600080fd5b346100fe5760003660031901126100fe576020600454604051908152f35b346100fe5760403660031901126100fe5761013a610d3d565b610142610d53565b9033600052600160205261015d60ff60406000205416610d97565b6005546001600160a01b0391829081831615610199575b505050600654918183161561018557005b6001600160a01b0319909216911617600655005b16906bffffffffffffffffffffffff60a01b1617600555828181610174565b346100fe5760203660031901126100fe57602060405160018152f35b346100fe5760003660031901126100fe576020600354604051908152f35b346100fe5760203660031901126100fe576001600160a01b03610213610d3d565b16600052600060205260ff604060002054166040516003821015610238576020918152f35b634e487b7160e01b600052602160045260246000fd5b346100fe5760003660031901126100fe57602060405162093a808152f35b346100fe5760c03660031901126100fe57600560043510156100fe57610290610d53565b60443560ff811681036100fe5760643560ff811681036100fe5760843567ffffffffffffffff81116100fe576102ca903690600401610d69565b92909360a43567ffffffffffffffff81116100fe576102ed903690600401610d69565b94909533600052600160205261030a60ff60406000205416610d97565b6004549461031786610de2565b600490815560008781526002602081905260409091208881556001810180546001600160a81b031916933560ff16939093173360081b610100600160a81b031617909255810180546001600160b01b0319166001600160a01b0387161760a09790971b60ff60a01b169690961760a89290921b60ff60a81b169190911790945567ffffffffffffffff82116105cd5781906103b56003860154610be0565b601f811161065f575b50600090601f83116001146105ee576000926105e3575b50508160011b916000199060031b1c19161760038301555b6004820167ffffffffffffffff85116105cd5761040a8154610be0565b95601f8711610585575b60209650600090601f871160011461051c5795809160029697600092610511575b50508160011b916000199060031b1c19161790555b6005820191600183554260068201556008600782019160ff19928381541690553360005201865260016040600020918254161790556040519061048f82600435610ce3565b6001600160a01b031681860152339084907f27ea2cad5e4584ad97131983569ea163d6939d2154ceb6288fc4ee1bb8a2c63b90604090a360405160018152837f2acce567deca3aabf56327adbb4524bd5318936eaefa69e3a5208ffda0cfec09863393a3541015610503575b604051908152f35b61050c81610ee4565b6104fb565b013590508880610435565b601f1987169183600052886000209260005b81811061056e57509160019391896002999a9410610554575b505050811b01905561044a565b0135600019600384901b60f8161c19169055888080610547565b91938a60018192878701358155019501920161052e565b816000526020600020601f870160051c810197602088106105c3575b601f0160051c01965b8781106105b75750610414565b600081556001016105aa565b90975087906105a1565b634e487b7160e01b600052604160045260246000fd5b0135905087806103d5565b909250600385016000526020600020906000935b601f1984168510610647576001945083601f1981161061062d575b505050811b0160038301556103ed565b0135600019600384901b60f8161c1916905587808061061d565b81810135835560209485019460019093019201610602565b909150600385016000526020600020601f840160051c8101602085106106ab575b90849392915b601f830160051c8201811061069c5750506103be565b60008155859450600101610686565b5080610680565b346100fe5760203660031901126100fe576004353360005260016020526106e060ff60406000205416610d97565b8060005260026020526040600020600781019081549060ff821660048110156102385761070d9015610df1565b600101543360089190911c6001600160a01b0316036107585760ff1916600217905533907f6a3eb8ca820be079fbd3fa6f657d5eb9882f642d01bf0ff5589af458d3331af7600080a3005b606460405162461bcd60e51b815260206004820152602060248201527f476f7665726e616e63654d756c74695369673a206e6f742070726f706f7365726044820152fd5b346100fe5760203660031901126100fe576001600160a01b036107bd610d3d565b166000526001602052602060ff604060002054166040519015158152f35b346100fe5760203660031901126100fe576004356003548110156100fe5760036000527fc2575a0e9e593c00f959f8c92f12db2869c3395a3b0502d05e2516446f71f85b01546040516001600160a01b039091168152602090f35b346100fe5760203660031901126100fe576004356000526002602052602060ff6007604060002001541661086d6040518092610d30565bf35b346100fe5760003660031901126100fe576006546040516001600160a01b039091168152602090f35b346100fe5760003660031901126100fe576005546040516001600160a01b039091168152602090f35b346100fe5760203660031901126100fe5760043560005260026020526020600560406000200154604051908152f35b346100fe5760203660031901126100fe576001600160a01b03610911610d3d565b16600052600160205260ff6040600020541680610936575b6020906040519015158152f35b50600060205260ff6040600020541660038110156102385715610929565b346100fe5760203660031901126100fe57600435600052600260205260406000208054600182015491610a34600282015461099160038401610c2e565b92610a1c6109a160048301610c2e565b610a0e60058401549660ff806007600688015497015416966040519b8c9b8c526109d060208d01848316610ce3565b60018060a01b03809160081c1660408d0152811660608c0152818160a01c1660808c015260a81c1660a08a01526101608060c08b0152890190610cf0565b9087820360e0890152610cf0565b93610100860152610120850152610140840190610d30565b0390f35b346100fe576020806003193601126100fe57600435903360005260018152610a6760ff60406000205416610d97565b8160005260028152604060002060ff600782015416600481101561023857610a8f9015610df1565b600881013360005280835260ff60406000205416610b9157600682015462093a808101809111610b7b574211610b2a57600292916005913360005283526040600020600160ff198254161790550190610ae88254610de2565b809255837f2acce567deca3aabf56327adbb4524bd5318936eaefa69e3a5208ffda0cfec09604051928484523393a31015610b1f57005b610b2890610ee4565b005b60405162461bcd60e51b8152600481018490526024808201527f476f7665726e616e63654d756c74695369673a2070726f706f73616c206578706044820152631a5c995960e21b6064820152608490fd5b634e487b7160e01b600052601160045260246000fd5b60405162461bcd60e51b815260048101849052602160248201527f476f7665726e616e63654d756c74695369673a20616c726561647920766f74656044820152601960fa1b6064820152608490fd5b90600182811c92168015610c10575b6020831014610bfa57565b634e487b7160e01b600052602260045260246000fd5b91607f1691610bef565b67ffffffffffffffff81116105cd57604052565b9060405191600090805490610c4282610be0565b908186526001928381169081600014610cc25750600114610c85575b505050829003601f01601f1916820167ffffffffffffffff8111838210176105cd57604052565b9092506000526020918260002091836000935b838510610cae5750505050830101388080610c5e565b805488860183015293019284908201610c98565b92935050506020925060ff191682850152151560051b830101388080610c5e565b9060058210156102385752565b919082519283825260005b848110610d1c575050826000602080949584010152601f8019910116010190565b602081830181015184830182015201610cfb565b9060048210156102385752565b600435906001600160a01b03821682036100fe57565b602435906001600160a01b03821682036100fe57565b9181601f840112156100fe5782359167ffffffffffffffff83116100fe57602083818601950101116100fe57565b15610d9e57565b606460405162461bcd60e51b815260206004820152602060248201527f476f7665726e616e63654d756c74695369673a206e6f742061206d656d6265726044820152fd5b6000198114610b7b5760010190565b15610df857565b60405162461bcd60e51b815260206004820152602860248201527f476f7665726e616e63654d756c74695369673a2070726f706f73616c206e6f746044820152672070656e64696e6760c01b6064820152608490fd5b9060009291805491610e5f83610be0565b918282526001938481169081600014610ec15750600114610e81575b50505050565b90919394506000526020928360002092846000945b838610610ead575050505001019038808080610e7b565b805485870183015294019385908201610e96565b9294505050602093945060ff191683830152151560051b01019038808080610e7b565b6000908082526002806020526040928381209060078201600160ff19825416179055600182019060ff82541660058110156111f75780610fe957506005548385015491906001600160a01b03908116803b15610fe55790829160ff8a5195869363e1b66fdd60e01b855281166004850152818160a81c16602485015260a01c16604483015260806064830152818381610f836084820160038c01610e4e565b03925af1908115610fda57509260ff60008051602061120c8339815191529593610fc893602096610fcb575b505b54169260018060a01b039101541695518092610ce3565ba3565b610fd490610c1a565b38610faf565b8751903d90823e3d90fd5b8280fd5b600181036110825750600554838501546001600160a01b03918216929116823b1561107e57819088519384916305f11cd760e41b8352600483015289602483015281838161103d6044820160048c01610e4e565b03925af1908115610fda57509260ff60008051602061120c8339815191529593610fc89360209661106f575b50610fb1565b61107890610c1a565b38611069565b5080fd5b808503611103575060055483850154906001600160a01b03908116803b156110ff579160448493928460ff96948c51978895869463606a437360e01b86528116600486015260a01c1660248401525af1908115610fda57509260ff60008051602061120c8339815191529593610fc89360209661106f5750610fb1565b8380fd5b6003810361116357506006546001600160a01b0316803b1561107e578180916004895180958193638456cb5960e01b83525af1908115610fda57509260ff60008051602061120c8339815191529593610fc89360209661106f5750610fb1565b60041461118a575b5091610fc860209260ff60008051602061120c83398151915295610fb1565b6006546001600160a01b0316803b1561107e578180916004895180958193631fa5d41d60e11b83525af1908115610fda57509260ff60008051602061120c8339815191529593610fc8936020966111e8575b5093955050925061116b565b6111f190610c1a565b386111dc565b634e487b7160e01b82526021600452602482fdfefca604f7c65f1962e4db27dbf7b2473457d3d7e34127ff2002bfb14e5c7467f8a264697066735822122018201a51b64385e05aa94dd1e60110882f8779891b282b749cce24236f1b91a564736f6c63430008140033",
  "linkReferences": {},
  "deployedLinkReferences": {}
}